{
  "_format": "hh-sol-artifact-1",
  "contractName": "SubBoardFacet",
  "sourceName": "contracts/Meme/facets/SubBoardFacet.sol",
  "abi": [
    {
      "anonymous": false,
      "inputs": [
        {
          "indexed": false,
          "internalType": "address",
          "name": "subOwner",
          "type": "address"
        },
        {
          "indexed": false,
          "internalType": "string",
          "name": "title",
          "type": "string"
        },
        {
          "indexed": false,
          "internalType": "string",
          "name": "metaData",
          "type": "string"
        },
        {
          "components": [
            {
              "internalType": "uint256",
              "name": "listingFee",
              "type": "uint256"
            },
            {
              "internalType": "uint256",
              "name": "listingReferralFee",
              "type": "uint256"
            },
            {
              "internalType": "uint24",
              "name": "buyFeePer",
              "type": "uint24"
            },
            {
              "internalType": "uint24",
              "name": "sellFeePer",
              "type": "uint24"
            },
            {
              "internalType": "uint24",
              "name": "finalizeFeePer",
              "type": "uint24"
            },
            {
              "internalType": "uint24",
              "name": "flashLaunchFeePer",
              "type": "uint24"
            },
            {
              "internalType": "uint24",
              "name": "tradingFeeAfterLaunchPer",
              "type": "uint24"
            },
            {
              "internalType": "uint8",
              "name": "_padding",
              "type": "uint8"
            }
          ],
          "indexed": false,
          "internalType": "struct Fee[]",
          "name": "fee",
          "type": "tuple[]"
        }
      ],
      "name": "LogSubBoardApplied",
      "type": "event"
    },
    {
      "anonymous": false,
      "inputs": [
        {
          "indexed": false,
          "internalType": "address",
          "name": "subOwner",
          "type": "address"
        },
        {
          "indexed": false,
          "internalType": "string",
          "name": "title",
          "type": "string"
        },
        {
          "indexed": false,
          "internalType": "uint256",
          "name": "package",
          "type": "uint256"
        },
        {
          "components": [
            {
              "internalType": "uint256",
              "name": "listingFee",
              "type": "uint256"
            },
            {
              "internalType": "uint256",
              "name": "listingReferralFee",
              "type": "uint256"
            },
            {
              "internalType": "uint24",
              "name": "buyFeePer",
              "type": "uint24"
            },
            {
              "internalType": "uint24",
              "name": "sellFeePer",
              "type": "uint24"
            },
            {
              "internalType": "uint24",
              "name": "finalizeFeePer",
              "type": "uint24"
            },
            {
              "internalType": "uint24",
              "name": "flashLaunchFeePer",
              "type": "uint24"
            },
            {
              "internalType": "uint24",
              "name": "tradingFeeAfterLaunchPer",
              "type": "uint24"
            },
            {
              "internalType": "uint8",
              "name": "_padding",
              "type": "uint8"
            }
          ],
          "indexed": false,
          "internalType": "struct Fee",
          "name": "fee",
          "type": "tuple"
        }
      ],
      "name": "LogSubBoardListingReferralFeeUpdated",
      "type": "event"
    },
    {
      "anonymous": false,
      "inputs": [
        {
          "indexed": false,
          "internalType": "address",
          "name": "subOwner",
          "type": "address"
        },
        {
          "indexed": false,
          "internalType": "string",
          "name": "title",
          "type": "string"
        },
        {
          "indexed": false,
          "internalType": "string",
          "name": "metaData",
          "type": "string"
        }
      ],
      "name": "LogSubBoardMetaDataChanged",
      "type": "event"
    },
    {
      "inputs": [
        {
          "internalType": "string",
          "name": "title",
          "type": "string"
        },
        {
          "internalType": "string",
          "name": "metaData",
          "type": "string"
        },
        {
          "components": [
            {
              "internalType": "uint256",
              "name": "listingFee",
              "type": "uint256"
            },
            {
              "internalType": "uint256",
              "name": "listingReferralFee",
              "type": "uint256"
            },
            {
              "internalType": "uint24",
              "name": "buyFeePer",
              "type": "uint24"
            },
            {
              "internalType": "uint24",
              "name": "sellFeePer",
              "type": "uint24"
            },
            {
              "internalType": "uint24",
              "name": "finalizeFeePer",
              "type": "uint24"
            },
            {
              "internalType": "uint24",
              "name": "flashLaunchFeePer",
              "type": "uint24"
            },
            {
              "internalType": "uint24",
              "name": "tradingFeeAfterLaunchPer",
              "type": "uint24"
            },
            {
              "internalType": "uint8",
              "name": "_padding",
              "type": "uint8"
            }
          ],
          "internalType": "struct Fee[]",
          "name": "fee",
          "type": "tuple[]"
        }
      ],
      "name": "applySubBoard",
      "outputs": [],
      "stateMutability": "payable",
      "type": "function"
    },
    {
      "inputs": [
        {
          "internalType": "string",
          "name": "title",
          "type": "string"
        },
        {
          "internalType": "uint256",
          "name": "package",
          "type": "uint256"
        },
        {
          "components": [
            {
              "internalType": "uint256",
              "name": "listingFee",
              "type": "uint256"
            },
            {
              "internalType": "uint256",
              "name": "listingReferralFee",
              "type": "uint256"
            },
            {
              "internalType": "uint24",
              "name": "buyFeePer",
              "type": "uint24"
            },
            {
              "internalType": "uint24",
              "name": "sellFeePer",
              "type": "uint24"
            },
            {
              "internalType": "uint24",
              "name": "finalizeFeePer",
              "type": "uint24"
            },
            {
              "internalType": "uint24",
              "name": "flashLaunchFeePer",
              "type": "uint24"
            },
            {
              "internalType": "uint24",
              "name": "tradingFeeAfterLaunchPer",
              "type": "uint24"
            },
            {
              "internalType": "uint8",
              "name": "_padding",
              "type": "uint8"
            }
          ],
          "internalType": "struct Fee",
          "name": "fee",
          "type": "tuple"
        }
      ],
      "name": "updateSubBoardFee",
      "outputs": [],
      "stateMutability": "nonpayable",
      "type": "function"
    },
    {
      "inputs": [
        {
          "internalType": "string",
          "name": "title",
          "type": "string"
        },
        {
          "internalType": "string",
          "name": "metaData",
          "type": "string"
        }
      ],
      "name": "updateSubBoardMetaData",
      "outputs": [],
      "stateMutability": "nonpayable",
      "type": "function"
    }
  ],
  "bytecode": "0x60808060405234601557610f00908161001a8239f35b5f80fdfe6080806040526004361015610012575f80fd5b5f905f3560e01c9081638a5633831461066057508063a2ff79fd146104335763b0e138a81461003f575f80fd5b34610430576101403660031901126104305760043567ffffffffffffffff811161042e57610071903690600401610d09565b61010036604319011261042e5760ff600654166104005760405160208101906100b4602082855180838801875e810187838201520301601f198101835282610cb7565b5190208252600f60205260408220805460ff8160081c166103d15760ff8116156103a1576100e0610e86565b6001600160a01b0360109290921c8216911603610373576101079060026024359101610d83565b61035f57604435815560643560018201556002019060843562ffffff8116900361035b5781549162ffffff60a4351660a435036103575762ffffff60c4351660c435036103575762ffffff60e4351660e435036103575762ffffff6101043516610104350361035757610124359260ff841684036103535760ff60781b607885901b1668ffffff00000000000060c43560301b1665ffffff00000060a43560181b1662ffffff608435166fffffffffffffffffffffffffffffffff19949094168417171762ffffff60481b60e43560481b161762ffffff60601b6101043560601b161717909155620186a01061032657620186a062ffffff60a435161161032657620186a062ffffff60c435161161032657620dbba062ffffff60e43516116102f957620dbba062ffffff6101043516116102f9577f59952c6a57883f1d72df817b6aade162742206ad1066814549636c0ba391aadf91610266610e86565b9060ff61028f60405194859460018060a01b031685526101606020860152610160850190610e62565b9160243560408501526044356060850152606435608085015262ffffff6084351660a085015262ffffff60a4351660c085015262ffffff60c4351660e085015262ffffff60e4351661010085015262ffffff6101043516610120850152166101408301520390a180f35b60405162461bcd60e51b81526020600482015260056024820152643c3d39302560d81b6044820152606490fd5b60405162461bcd60e51b81526020600482015260056024820152643c3d31302560d81b6044820152606490fd5b8480fd5b8380fd5b8280fd5b634e487b7160e01b83526004839052602483fd5b60405162461bcd60e51b815260206004820152600660248201526510b7bbb732b960d11b6044820152606490fd5b60405162461bcd60e51b815260206004820152600860248201526708505c1c1b1a595960c21b6044820152606490fd5b60405162461bcd60e51b8152602060048201526007602482015266105b1b1bddd95960ca1b6044820152606490fd5b60405162461bcd60e51b81526020600482015260066024820152651c185d5cd95960d21b6044820152606490fd5b505b80fd5b50346104305760403660031901126104305760043567ffffffffffffffff811161042e57610465903690600401610d09565b9060243567ffffffffffffffff811161042e57610486903690600401610d09565b9160ff600654166104005760405160208101906104bd602082855180838801875e810187838201520301601f198101835282610cb7565b5190208252600f60205260408220805460ff8160081c166103d15760ff8116156103a1576104e9610e86565b6001600160a01b0360109290921c8216911603610373576001019280519367ffffffffffffffff851161064c5761052a856105248354610d9c565b83610dd4565b6020601f86116001146105cb57858596610579927fedadfefa4461341ef45e06247faa5ecf19659b48fd886891c82f0c5e7170673097916105c0575b508160011b915f199060031b1c19161790565b90555b6105ba610587610e86565b916105ac60405194859460018060a01b03168552606060208601526060850190610e62565b908382036040850152610e62565b0390a180f35b90508401515f610566565b81855280852090601f198716865b81811061063457509187917fedadfefa4461341ef45e06247faa5ecf19659b48fd886891c82f0c5e7170673097986001941061061c575b5050811b01905561057c565b8501515f1960f88460031b161c191690555f80610610565b919260206001819286890151815501940192016105d9565b634e487b7160e01b84526041600452602484fd5b90506060366003190112610c2f5760043567ffffffffffffffff8111610c2f5761068e903690600401610c89565b9160243567ffffffffffffffff8111610c2f576106af903690600401610c89565b6044359367ffffffffffffffff8511610c2f5736602386011215610c2f5784600401359367ffffffffffffffff8511610c2f576024860195602436918760081b010111610c2f5760ff60065416610c5e57506007543410610c33575f546001600160a01b0316803b15610c2f575f604491604051928380926311f9fbc960e21b825284600483015284602483015234905af18015610c2457610c0f575b506040516020810190878383376107766020828a81018c838201520301601f198101835282610cb7565b51902060405188815261078a602082610cb7565b602081519101208114610be257808852600f60205260ff6040892054166103a1578752600f60205260408720956107bf610e86565b9660028101895b8789818310610a085750505050600160ff198254161781556001810167ffffffffffffffff85116109f4576107ff856105248354610d9c565b898a601f871160011461098457926020979592610839888061088b9a989561087d989161097957508160011b915f199060031b1c19161790565b90555b805462010000600160b01b03191660108c901b62010000600160b01b03161790556040516001600160a01b03909a168a526080878b018190528a0191610e32565b918783036040890152610e32565b848103606086015282815201919084905b8082106108cd57857f104987d352b41fa656e13168c1434840957c6b78a89041bdfad8005036d15d1086860387a180f35b909192833581526020840135602082015262ffffff6108ee60408601610e52565b16604082015262ffffff61090460608601610e52565b16606082015262ffffff61091a60808601610e52565b16608082015262ffffff61093060a08601610e52565b1660a082015262ffffff61094660c08601610e52565b1660c082015260e08401359060ff8216809203610975576101008160019360e08394015201940192019061089c565b8680fd5b90508901355f610566565b50818b5260208b2090601f1987168c5b8181106109dc57509287959261087d959261088b9960209b9996106109c3575b5050600186811b01905561083c565b8801355f19600389901b60f8161c191690555f806109b4565b9192602060018192868d013581550194019201610994565b634e487b7160e01b8a52604160045260248afd5b610a266040610a2085620186a09562ffffff95610d4f565b01610d73565b161161032657620186a062ffffff610a446060610a20858d8f610d4f565b161161032657620186a062ffffff610a626080610a20858d8f610d4f565b161161032657620dbba062ffffff610a8060a0610a20858d8f610d4f565b16116102f957620dbba062ffffff610a9e60c0610a20858d8f610d4f565b16116102f957610aaf81898b610d4f565b90825468010000000000000000811015610bce57806001610ad39201855584610d83565b610bba57823581556020830135600182015560020162ffffff610af860408501610d73565b169281549065ffffff000000610b1060608301610d73565b60181b169168ffffff000000000000610b2b60808401610d73565b60301b169062ffffff60481b610b4360a08501610d73565b60481b169160e062ffffff60601b610b5d60c08701610d73565b60601b169401359760ff89168903610bb35760019860ff60781b9060781b169560ff60781b199362ffffff60601b199262ffffff60481b199168ffffffffffffffffff19161716171617161717179055016107c6565b5050508f80fd5b634e487b7160e01b8d5260048d905260248dfd5b634e487b7160e01b8d52604160045260248dfd5b60405162461bcd60e51b8152602060048201526005602482015264626c616e6b60d81b6044820152606490fd5b610c1c9197505f90610cb7565b5f955f61074c565b6040513d5f823e3d90fd5b5f80fd5b606460405162461bcd60e51b81526020600482015260046024820152632166656560e01b6044820152fd5b62461bcd60e51b81526020600482015260066024820152651c185d5cd95960d21b6044820152606490fd5b9181601f84011215610c2f5782359167ffffffffffffffff8311610c2f5760208381860195010111610c2f57565b90601f8019910116810190811067ffffffffffffffff821117610cd957604052565b634e487b7160e01b5f52604160045260245ffd5b67ffffffffffffffff8111610cd957601f01601f191660200190565b81601f82011215610c2f57803590610d2082610ced565b92610d2e6040519485610cb7565b82845260208383010111610c2f57815f926020809301838601378301015290565b9190811015610d5f5760081b0190565b634e487b7160e01b5f52603260045260245ffd5b3562ffffff81168103610c2f5790565b8054821015610d5f575f52600360205f20910201905f90565b90600182811c92168015610dca575b6020831014610db657565b634e487b7160e01b5f52602260045260245ffd5b91607f1691610dab565b919091601f8311610de5575b505050565b818311610df157505050565b5f5260205f206020601f830160051c9210610e2a575b81601f9101920160051c03905f5b82811015610de0575f82820155600101610e15565b5f9150610e07565b908060209392818452848401375f828201840152601f01601f1916010190565b359062ffffff82168203610c2f57565b805180835260209291819084018484015e5f828201840152601f01601f1916010190565b333003610ec657610e9636610ced565b610ea36040519182610cb7565b368152365f60208301375f6020369290920191820152516001600160a01b031690565b339056fea2646970667358221220c571c9c9fe6509686cb82d78cd7e3deb92aa47f20296bba8f7f7cdb90d839e2c64736f6c63430008220033",
  "linkReferences": {},
  "deployedLinkReferences": {}
}