{
  "_format": "hh-sol-artifact-1",
  "contractName": "CollectFeeForLBPFacet",
  "sourceName": "contracts/Meme/facets/CollectFeeForLBPFacet.sol",
  "abi": [
    {
      "inputs": [],
      "name": "ETHTransferFailed",
      "type": "error"
    },
    {
      "inputs": [
        {
          "internalType": "address",
          "name": "token",
          "type": "address"
        }
      ],
      "name": "SafeERC20FailedOperation",
      "type": "error"
    },
    {
      "anonymous": false,
      "inputs": [
        {
          "indexed": true,
          "internalType": "address",
          "name": "memeOwner",
          "type": "address"
        },
        {
          "indexed": true,
          "internalType": "address",
          "name": "token",
          "type": "address"
        },
        {
          "indexed": false,
          "internalType": "uint256",
          "name": "amount",
          "type": "uint256"
        }
      ],
      "name": "MemeOwnerFeeCollected",
      "type": "event"
    },
    {
      "anonymous": false,
      "inputs": [
        {
          "indexed": true,
          "internalType": "address",
          "name": "to",
          "type": "address"
        },
        {
          "indexed": false,
          "internalType": "uint256",
          "name": "amount",
          "type": "uint256"
        }
      ],
      "name": "PaymentOwed",
      "type": "event"
    },
    {
      "anonymous": false,
      "inputs": [
        {
          "indexed": true,
          "internalType": "address",
          "name": "referrer",
          "type": "address"
        },
        {
          "indexed": true,
          "internalType": "address",
          "name": "token",
          "type": "address"
        },
        {
          "indexed": false,
          "internalType": "uint256",
          "name": "amount",
          "type": "uint256"
        }
      ],
      "name": "ReferralFeeCollected",
      "type": "event"
    },
    {
      "anonymous": false,
      "inputs": [
        {
          "indexed": true,
          "internalType": "address",
          "name": "subBoardOwner",
          "type": "address"
        },
        {
          "indexed": true,
          "internalType": "address",
          "name": "token",
          "type": "address"
        },
        {
          "indexed": false,
          "internalType": "uint256",
          "name": "amount",
          "type": "uint256"
        }
      ],
      "name": "SubBoardFeeCollected",
      "type": "event"
    },
    {
      "inputs": [
        {
          "internalType": "address",
          "name": "memeToken",
          "type": "address"
        }
      ],
      "name": "collectFeeForLBP",
      "outputs": [
        {
          "internalType": "uint256",
          "name": "amount0",
          "type": "uint256"
        },
        {
          "internalType": "uint256",
          "name": "amount1",
          "type": "uint256"
        }
      ],
      "stateMutability": "nonpayable",
      "type": "function"
    },
    {
      "inputs": [
        {
          "internalType": "address",
          "name": "memeToken",
          "type": "address"
        }
      ],
      "name": "getIsAdminTokenRefundWhenCollectFeeForLBP",
      "outputs": [
        {
          "internalType": "bool",
          "name": "",
          "type": "bool"
        }
      ],
      "stateMutability": "view",
      "type": "function"
    },
    {
      "inputs": [
        {
          "internalType": "address",
          "name": "memeToken",
          "type": "address"
        }
      ],
      "name": "getIsTokenBurnWhenCollectFee",
      "outputs": [
        {
          "internalType": "bool",
          "name": "",
          "type": "bool"
        }
      ],
      "stateMutability": "view",
      "type": "function"
    },
    {
      "inputs": [
        {
          "internalType": "address",
          "name": "memeToken",
          "type": "address"
        },
        {
          "internalType": "bool",
          "name": "isAdminTokenRefundWhenCollectFee",
          "type": "bool"
        }
      ],
      "name": "updateIsAdminTokenRefundWhenCollectFeeForLBP",
      "outputs": [],
      "stateMutability": "nonpayable",
      "type": "function"
    },
    {
      "inputs": [
        {
          "internalType": "address",
          "name": "memeToken",
          "type": "address"
        },
        {
          "internalType": "bool",
          "name": "isTokenBurnWhenCollectFee",
          "type": "bool"
        }
      ],
      "name": "updateIsTokenBurnWhenCollectFee",
      "outputs": [],
      "stateMutability": "nonpayable",
      "type": "function"
    }
  ],
  "bytecode": "0x60808060405234601557611c1a908161001a8239f35b5f80fdfe6080806040526004361015610012575f80fd5b5f905f3560e01c90816353ab74c51461130557508063647bc8cf146111d9578063a471e85b1461119a578063bbe0e022146110df5763e1da836614610055575f80fd5b346110dc5760203660031901126110dc5761006e61133e565b906001600554146110975760016005556001600160a01b03821681526010602052604080822090518291829190610260820167ffffffffffffffff8111838210176106de5760405260018060a01b03815416825260018101546020830152600281015460408301526003810154606083015260048101546080830152600581015460a0830152600681015460c0830152600781015460e08301526008810154610100830152600981015461012083015260ff600a820154818116610140850152818160081c161515610160850152818160101c161515610180850152818160181c1615156101a0850152818160201c1615156101c085015260281c166101e0830152604051610240810181811067ffffffffffffffff8211176106de5760405260018060a01b03600b830154168152600c8201546020820152600d8201546040820152600e8201546060820152600f8201546080820152601082015460a0820152601182015460c0820152601282015462ffffff811660e083015262ffffff8160181c1661010083015262ffffff8160301c1661012083015262ffffff8160481c1661014083015262ffffff8160601c1661016083015264ffffffffff8160781c1661018083015264ffffffffff8160a01c166101a083015260ff8160c81c1615156101c083015260d01c6101e08201526013820180549061026f826113a5565b9161027d6040519384611383565b80835260208301918752602087209187905b82821061100e5750505050610200820152601891906102b0601483016113bd565b6102208201526102008401526102c860158201611489565b61022084015201546102408201526001600160a01b038516808352601860209081526040808520549285526019909152808420548151939260ff91821692911690840167ffffffffffffffff8111858210176106de5760405215158352151560208301526102008082015101515195839291905b87841061035757604087878760055582519182526020820152f35b90919294956102008084015101518051871015610ffa576020908760051b0101519060a0820151610fed57602060018060a01b0383511692015182875260126020526040872054600381145f1461083b575060405163133f757160e31b8152600481018290529161018083602481875afa9384156108305788938995610763575b506040516370a0823160e01b8152306004820152906020826024816001600160a01b0389165afa918215610671578a92610730575b506040516370a0823160e01b8152306004820152936020856024816001600160a01b038b165afa948515610725578b956106f2575b50604051608081019181831067ffffffffffffffff8411176106de576040928352815230602082019081526001600160801b0382840181815260608401828152855163fc6f786560e01b81529451600486015292516001600160a01b031660248501525181166044840152905116606482015291829060849082908e905af18015610671576106af575b506040516370a0823160e01b8152306004820152906020826024816001600160a01b0389165afa8015610671578a9061067c575b61050a925061158a565b6040516370a0823160e01b81523060048201529092906020816024816001600160a01b038a165afa90811561067157889288928b928d91610627575b5091600198818561056261059699979561059c9c9b999761158a565b998661056d816115cd565b94919590938c868689836105e9575b50505050505050508a6105aa575b50505050505050611529565b98611529565b955b01965b9692919061033c565b6105dd968d8060a01b03905116928b6020875115159701511515978f8060a01b0387169060018060a01b03161495611909565b87878a5f80808061058a565b965185516020969096015161061a9890151597961515966001600160a01b0390811687821614969216949091611909565b8686865f8c86868961057c565b9796945050939150506020853d8211610669575b8161064860209383611383565b81010312610665579351929390929091879187918a916001610546565b5f80fd5b3d915061063b565b6040513d8c823e3d90fd5b506020823d82116106a7575b8161069560209383611383565b810103126106655761050a9151610500565b3d9150610688565b604090813d81116106d7575b6106c58183611383565b810103126106d3575f6104cc565b8880fd5b503d6106bb565b634e487b7160e01b5f52604160045260245ffd5b9094506020813d821161071d575b8161070d60209383611383565b810103126106655751935f610442565b3d9150610700565b6040513d8d823e3d90fd5b9091506020813d821161075b575b8161074b60209383611383565b810103126106655751905f61040d565b3d915061073e565b93509350610180833d8211610828575b816107816101809383611383565b810103126108245782516bffffffffffffffffffffffff811603610824576107ab60208401611597565b506107b860408401611597565b6107c460608501611597565b93608081015162ffffff81160361082057610160816107e860a061081794016115ab565b506107f560c082016115ab565b5061080260e082016115b9565b5061081061014082016115b9565b50016115b9565b5092935f6103d8565b8980fd5b8780fd5b3d9150610773565b6040513d8a823e3d90fd5b6004819a9994939a14908115610fe2575b5061085c575b505060019061059e565b90919760018060a09b99989b1b03610200860151511660018060a01b0360035416928115938415610fd8575b508315610fd1578b945b8415610f5f578c47915b6040516370a0823160e01b8152306004820152976020896024816001600160a01b038e165afa988915610f54578399610f1e575b50606092604051916108e28584611383565b60028352815b601f1986018110610f0e57509e9f9d9e60209661094b6040519161090c8a84611383565b84835261093d6040519384928c840152866040840152868a84015286608084015260a08084015260c0830190611566565b03601f198101835282611383565b6109548461150c565b5261095e8361150c565b506001600160a01b038c811690821611908115610f07578c915b15610f00575b604080516001600160a01b039384168a820152919092169181019190915230858201528481526109af608082611383565b6109b883611519565b526109c282611519565b50604051600160f81b87820152601160f81b6021820152600281526109fe906109ec602282611383565b60405195604089880152860190611566565b601f1985820301604086015282518082528782019188808360051b8301019501935b828110610ed65750505050509d9e9b9c9d82610a449103601f198101845283611383565b603c420191824211610c7457813b15610ca0578c91610a82918360405180968195829463dd46508f60e01b8452604060048501526044840190611566565b90602483015203925af18015610725578b90610ebf575b50508415610e5757610aab904761158a565b945b6040516370a0823160e01b81523060048201529082826024816001600160a01b038c165afa8015610725578b90610e28575b610ae9925061158a565b93610af3886115cd565b94918a8a8d8a89868683610dfc575b5050505050505088610b2d575b50505050505091610596610b2592600194611529565b95905f610852565b8a516001600160a01b0390811696908116908e85888d85610d42575b505050505050620f4240610b6262ffffff84168b611b3a565b048d818615610cb55750546001600160a01b0316803b15610cb1578e906044604051809481936311f9fbc960e21b83528560048401528560248401525af18015610ca457908e91610c88575b505062ffffff905b16620f42400390620f42408211610c7457610bde620f42409262ffffff610be493169061158a565b89611b3a565b049115610c4157508980808084875af1610bfc61197b565b5015610c32579289610596935f516020611bc55f395f51905f52610b25979460019997604051908152a35b929481945f80610b0f565b63b12d13eb60e01b8a5260048afd5b835f516020611bc55f395f51905f52610b25979484610c6860019b999661059699876119e1565b604051908152a3610c27565b634e487b7160e01b8d52601160045260248dfd5b90610c9291611383565b8c5f12610ca0578c5f610bae565b8c80fd5b8e604051903d90823e3d90fd5b8e80fd5b9054610ccb91906001600160a01b031686611a1d565b8d546001600160a01b031690813b15610cb1576040516311f9fbc960e21b81526001600160a01b03861660048201526024810191909152908e908290604490829084905af18015610ca457908e91610d2a575b505062ffffff90610bb6565b90610d3491611383565b8c5f12610ca0578c5f610d1e565b610d56620f42409162ffffff891690611b3a565b04938915610dbe5750505080808084865af1610d7061197b565b5015610daf57907fb31d5740c93468f40d7cfaf4abee5f8bbf99655d372c474822ccc6a88bf27a508f928890604051908152a35b5f808e85888d610b49565b63b12d13eb60e01b8f5260048ffd5b7fb31d5740c93468f40d7cfaf4abee5f8bbf99655d372c474822ccc6a88bf27a50935084610df09184979693946119e1565b604051908152a3610da4565b610e1c9660018060a01b039051169360208651151596015115159661171f565b8a8a8d8a898686610b02565b508282813d8311610e50575b610e3e8183611383565b8101031261066557610ae99151610adf565b503d610e34565b6040516370a0823160e01b8152306004820152908282602481875afa8015610725578b90610e90575b610e8a925061158a565b94610aad565b508282813d8311610eb8575b610ea68183611383565b8101031261066557610e8a9151610e80565b503d610e9c565b610ec891611383565b895f12610820575f8a610a99565b90919293948980610ef3600193601f198782030189528951611566565b9701950193929101610a20565b508b61097e565b8091610978565b80866020809387010152016108e8565b925097506020823d8211610f4c575b81610f3a60209383611383565b81010312610665578e9151975f6108d0565b3d9150610f2d565b6040513d85823e3d90fd5b6040516370a0823160e01b81523060048201528d90602081602481885afa908115610fc6578291610f92575b509161089c565b9150506020813d8211610fbe575b81610fad60209383611383565b81010312610665578d90515f610f8b565b3d9150610fa0565b6040513d84823e3d90fd5b8194610892565b821493505f610888565b600e9150145f61084c565b96956001915001966105a1565b634e487b7160e01b5f52603260045260245ffd5b60405160e0810181811067ffffffffffffffff8211176106de57600192600392602092604052848060a01b038854168152848801548382015260ff600289015462ffffff811660408401528060181c60020b606084015262ffffff8160301c166080840152818160481c16151560a084015260501c1660c082015281520194019101909261028f565b60405162461bcd60e51b815260206004820152601f60248201527f5265656e7472616e637947756172643a207265656e7472616e742063616c6c006044820152606490fd5b80fd5b50346110dc576110ee36611354565b7fc8fcad8db84d3cc18b4c41d551ea0ee66dd599cde068d998e57d5e09332c1320546001600160a01b0316330361114a576111479160018060a01b031683526019602052604083209060ff801983541691151516179055565b80f35b60405162461bcd60e51b815260206004820152602260248201527f4c69624469616d6f6e643a204d75737420626520636f6e7472616374206f776e60448201526132b960f11b6064820152608490fd5b50346110dc5760203660031901126110dc5760209060ff906040906001600160a01b036111c561133e565b168152601884522054166040519015158152f35b5034610665576111e836611354565b913330036112fd57506111fa3661154a565b916112086040519384611383565b3683525f92365f60208301375f6020369290920191820152516001600160a01b0316915b6001600160a01b039081168085526010602052604085205490938216911681149081156112c9575b501561127a576111479183526018602052604083209060ff801983541691151516179055565b60405162461bcd60e51b815260206004820152602160248201527f4c696241707053746f726167653a20446f206e6f7420686176652061636365736044820152607360f81b6064820152608490fd5b7fc8fcad8db84d3cc18b4c41d551ea0ee66dd599cde068d998e57d5e09332c1320546001600160a01b03161490505f611254565b91339161122c565b34610665576020366003190112610665576020906001600160a01b0361132961133e565b165f526019825260ff60405f20541615158152f35b600435906001600160a01b038216820361066557565b6040906003190112610665576004356001600160a01b0381168103610665579060243580151581036106655790565b90601f8019910116810190811067ffffffffffffffff8211176106de57604052565b67ffffffffffffffff81116106de5760051b60200190565b90604051915f8154908160011c926001831692831561147f575b60208510841461146b5784875286939081156114495750600114611405575b5061140392500383611383565b565b90505f9291925260205f20905f915b81831061142d575050906020611403928201015f6113f6565b6020919350806001915483858901015201910190918492611414565b90506020925061140394915060ff191682840152151560051b8201015f6113f6565b634e487b7160e01b5f52602260045260245ffd5b93607f16936113d7565b90604051610100810181811067ffffffffffffffff8211176106de5760405260e060ff600283958054855260018101546020860152015462ffffff8116604085015262ffffff8160181c16606085015262ffffff8160301c16608085015262ffffff8160481c1660a085015262ffffff8160601c1660c085015260781c16910152565b805115610ffa5760200190565b805160011015610ffa5760400190565b9190820180921161153657565b634e487b7160e01b5f52601160045260245ffd5b67ffffffffffffffff81116106de57601f01601f191660200190565b805180835260209291819084018484015e5f828201840152601f01601f1916010190565b9190820391821161153657565b51906001600160a01b038216820361066557565b51908160020b820361066557565b51906001600160801b038216820361066557565b905f916101008101515f52600f60205260405f20926040519360a0850185811067ffffffffffffffff8211176106de5760405280549460ff8616151581526002602082019260ff8860081c1615158452604083019760018060a01b039060101c16885261163c600182016113bd565b606084015201805461164d816113a5565b9161165b6040519384611383565b81835260208301905f5260205f205f915b8383106117015750505050608082015251151590816116f7575b50156116e1575060c061022062ffffff9201510151169062ffffff806116cf620f42406116c7816116bf8560085460601c169882611b3a565b049687611b3a565b04809561158a565b931692169260018060a01b0390511690565b90925062ffffff60c06102205f95015101511691565b905051155f611686565b6003602060019261171185611489565b81520192019201919061166c565b949690956118f357611768575050506001600160a01b0316915f516020611bc55f395f51905f52906020906117558482876119e1565b6040519384526001600160a01b031692a3565b92935f9390926001600160a01b0381169182611879575b50505061179562ffffff620f4240921683611b3a565b0490816117e1575b6117af926117aa9161158a565b61158a565b90816117ba57505050565b6001600160a01b0316915f516020611bc55f395f51905f52906020906117558482876119e1565b5f546117fc9083906001600160a01b03908116908716611a1d565b5f546001600160a01b031692833b15610665576040516311f9fbc960e21b81526001600160a01b038616600482015260248101849052935f908590604490829084905af191821561186e576117af946117aa9361185e575b509150925061179d565b5f61186891611383565b5f611854565b6040513d5f823e3d90fd5b6117959295509262ffffff91620f42406118968482971688611b3a565b049687806118a8575b5050509261177f565b6001600160a01b038a16927fb31d5740c93468f40d7cfaf4abee5f8bbf99655d372c474822ccc6a88bf27a50916020916118e4908290876119e1565b604051908152a35f808061189f565b50505050611403925060018060a01b03166119aa565b95809293949598919781611973575b5061195c5781611953575b5015611768575050506001600160a01b0316915f516020611bc55f395f51905f52906020906117558482876119e1565b9050155f611923565b5050505050611403925060018060a01b03166119aa565b90505f611918565b3d156119a5573d9061198c8261154a565b9161199a6040519384611383565b82523d5f602084013e565b606090565b90611403916040519163a9059cbb60e01b602084015261dead60248401526044830152604482526119dc606483611383565b611ae2565b60405163a9059cbb60e01b60208201526001600160a01b03929092166024830152604480830193909352918152611403916119dc606483611383565b60405163095ea7b360e01b60208083019182526001600160a01b0385166024840152604480840196909652948252929390925f90611a5c606486611383565b84519082855af15f513d82611abd575b505015611a7857505050565b60405163095ea7b360e01b60208201526001600160a01b0390931660248401525f6044808501919091528352611403926119dc90611ab7606482611383565b82611ae2565b909150611ada57506001600160a01b0381163b15155b5f80611a6c565b600114611ad3565b905f602091828151910182855af11561186e575f513d611b3157506001600160a01b0381163b155b611b115750565b635274afe760e01b5f9081526001600160a01b0391909116600452602490fd5b60011415611b0a565b90811591828015611bbc575b611bb55781810292611ba157820403611b5c5790565b60405162461bcd60e51b815260206004820152601d60248201527f4d6174683a206d756c7469706c69636174696f6e206f766572666c6f770000006044820152606490fd5b634e487b7160e01b5f52601260045260245ffd5b5050505f90565b508115611b4656fe9c24c3f39ed26fab2a4d8825658bf0838140ab25f12e94dc30f09c509664ee75a264697066735822122049a3404055bca65c8b118a7d12b5672f08f1c2f42c2ff88ab6d2f051f90c115164736f6c63430008240033",
  "linkReferences": {},
  "deployedLinkReferences": {}
}