{
  "_format": "hh-sol-artifact-1",
  "contractName": "CreationFacet",
  "sourceName": "contracts/Meme/facets/CreationFacet.sol",
  "abi": [
    {
      "inputs": [],
      "name": "Create2EmptyBytecode",
      "type": "error"
    },
    {
      "inputs": [],
      "name": "DynamicFeeRequired",
      "type": "error"
    },
    {
      "inputs": [],
      "name": "EmptyVolumeLevels",
      "type": "error"
    },
    {
      "inputs": [],
      "name": "FailedDeployment",
      "type": "error"
    },
    {
      "inputs": [],
      "name": "FailedLaunch",
      "type": "error"
    },
    {
      "inputs": [],
      "name": "FeeBpsTooHigh",
      "type": "error"
    },
    {
      "inputs": [],
      "name": "FeeTooHigh",
      "type": "error"
    },
    {
      "inputs": [
        {
          "internalType": "uint256",
          "name": "balance",
          "type": "uint256"
        },
        {
          "internalType": "uint256",
          "name": "needed",
          "type": "uint256"
        }
      ],
      "name": "InsufficientBalance",
      "type": "error"
    },
    {
      "inputs": [],
      "name": "InsufficientFee",
      "type": "error"
    },
    {
      "inputs": [],
      "name": "InvalidBaseFeeFactor",
      "type": "error"
    },
    {
      "inputs": [],
      "name": "InvalidBaseTokenDecimals",
      "type": "error"
    },
    {
      "inputs": [],
      "name": "InvalidCustomWalletConfig",
      "type": "error"
    },
    {
      "inputs": [],
      "name": "InvalidDefaultBaseFeeBps",
      "type": "error"
    },
    {
      "inputs": [],
      "name": "InvalidEndTime",
      "type": "error"
    },
    {
      "inputs": [],
      "name": "InvalidExternalFeeTriggerLen",
      "type": "error"
    },
    {
      "inputs": [],
      "name": "InvalidFeeThreshold",
      "type": "error"
    },
    {
      "inputs": [],
      "name": "InvalidHardcap",
      "type": "error"
    },
    {
      "inputs": [],
      "name": "InvalidMinTokenBalance",
      "type": "error"
    },
    {
      "inputs": [],
      "name": "InvalidRewardSwapConfigLen",
      "type": "error"
    },
    {
      "inputs": [],
      "name": "InvalidRouter",
      "type": "error"
    },
    {
      "inputs": [],
      "name": "InvalidRouterType",
      "type": "error"
    },
    {
      "inputs": [],
      "name": "InvalidSoftcap",
      "type": "error"
    },
    {
      "inputs": [],
      "name": "InvalidTickSpacing",
      "type": "error"
    },
    {
      "inputs": [],
      "name": "InvalidTierAmountLevels",
      "type": "error"
    },
    {
      "inputs": [],
      "name": "InvalidTierConfig",
      "type": "error"
    },
    {
      "inputs": [],
      "name": "InvalidTierFeesBps",
      "type": "error"
    },
    {
      "inputs": [],
      "name": "InvalidTotalFeeBps",
      "type": "error"
    },
    {
      "inputs": [],
      "name": "InvalidTotalPer",
      "type": "error"
    },
    {
      "inputs": [],
      "name": "InvalidV3Fee",
      "type": "error"
    },
    {
      "inputs": [],
      "name": "InvalidV4HookDataLen",
      "type": "error"
    },
    {
      "inputs": [],
      "name": "InvalidVersion",
      "type": "error"
    },
    {
      "inputs": [],
      "name": "InvalidVolumeLevels",
      "type": "error"
    },
    {
      "inputs": [],
      "name": "InvalidVolumeMultiplierBps",
      "type": "error"
    },
    {
      "inputs": [],
      "name": "InvalidWhitelistMax",
      "type": "error"
    },
    {
      "inputs": [],
      "name": "MismatchVolume",
      "type": "error"
    },
    {
      "inputs": [],
      "name": "Paused",
      "type": "error"
    },
    {
      "inputs": [],
      "name": "PoolAlreadyExists",
      "type": "error"
    },
    {
      "inputs": [
        {
          "internalType": "address",
          "name": "token",
          "type": "address"
        }
      ],
      "name": "SafeERC20FailedOperation",
      "type": "error"
    },
    {
      "inputs": [],
      "name": "SelfReferral",
      "type": "error"
    },
    {
      "inputs": [],
      "name": "TokenTransferMismatch",
      "type": "error"
    },
    {
      "inputs": [],
      "name": "TransferFailed",
      "type": "error"
    },
    {
      "inputs": [],
      "name": "V2NotSupported",
      "type": "error"
    },
    {
      "inputs": [],
      "name": "WrongRewardToken",
      "type": "error"
    },
    {
      "anonymous": false,
      "inputs": [
        {
          "indexed": true,
          "internalType": "address",
          "name": "buyer",
          "type": "address"
        },
        {
          "indexed": true,
          "internalType": "address",
          "name": "memeToken",
          "type": "address"
        },
        {
          "indexed": false,
          "internalType": "address",
          "name": "referrer",
          "type": "address"
        },
        {
          "indexed": false,
          "internalType": "uint256",
          "name": "amountIn",
          "type": "uint256"
        },
        {
          "indexed": false,
          "internalType": "uint256",
          "name": "amountOut",
          "type": "uint256"
        },
        {
          "indexed": false,
          "internalType": "uint256",
          "name": "amountOwnerFee",
          "type": "uint256"
        },
        {
          "indexed": false,
          "internalType": "uint256",
          "name": "amountSubBoardFee",
          "type": "uint256"
        },
        {
          "indexed": false,
          "internalType": "uint256",
          "name": "amountMemeTokenOwnerFee",
          "type": "uint256"
        },
        {
          "indexed": false,
          "internalType": "uint256",
          "name": "amountReferralFee",
          "type": "uint256"
        },
        {
          "indexed": false,
          "internalType": "uint256",
          "name": "volumn",
          "type": "uint256"
        },
        {
          "indexed": false,
          "internalType": "uint256",
          "name": "virtualReserveETH",
          "type": "uint256"
        },
        {
          "indexed": false,
          "internalType": "uint256",
          "name": "virtualReserveToken",
          "type": "uint256"
        },
        {
          "indexed": false,
          "internalType": "bool",
          "name": "isHardCapReached",
          "type": "bool"
        },
        {
          "indexed": false,
          "internalType": "uint8",
          "name": "decimals",
          "type": "uint8"
        },
        {
          "indexed": false,
          "internalType": "uint256",
          "name": "virtualReserveETHHardcap",
          "type": "uint256"
        },
        {
          "indexed": false,
          "internalType": "uint256",
          "name": "virtualReserveETHSoftcap",
          "type": "uint256"
        }
      ],
      "name": "Bought",
      "type": "event"
    },
    {
      "anonymous": false,
      "inputs": [
        {
          "indexed": true,
          "internalType": "address",
          "name": "memeToken",
          "type": "address"
        },
        {
          "components": [
            {
              "internalType": "address",
              "name": "memeOwner",
              "type": "address"
            },
            {
              "internalType": "uint256",
              "name": "volumn",
              "type": "uint256"
            },
            {
              "internalType": "uint256",
              "name": "virtualReserveETH",
              "type": "uint256"
            },
            {
              "internalType": "uint256",
              "name": "virtualReserveToken",
              "type": "uint256"
            },
            {
              "internalType": "uint256",
              "name": "initialVirtualReserveETH",
              "type": "uint256"
            },
            {
              "internalType": "uint256",
              "name": "initialVirtualReserveToken",
              "type": "uint256"
            },
            {
              "internalType": "uint256",
              "name": "virtualReserveETHHardcap",
              "type": "uint256"
            },
            {
              "internalType": "uint256",
              "name": "virtualReserveETHSoftcap",
              "type": "uint256"
            },
            {
              "internalType": "bytes32",
              "name": "subBoard",
              "type": "bytes32"
            },
            {
              "internalType": "bytes32",
              "name": "keyForXSale",
              "type": "bytes32"
            },
            {
              "internalType": "uint8",
              "name": "package",
              "type": "uint8"
            },
            {
              "internalType": "bool",
              "name": "isXSale",
              "type": "bool"
            },
            {
              "internalType": "bool",
              "name": "isListed",
              "type": "bool"
            },
            {
              "internalType": "bool",
              "name": "isCancelled",
              "type": "bool"
            },
            {
              "internalType": "bool",
              "name": "isTaxToken",
              "type": "bool"
            },
            {
              "internalType": "uint8",
              "name": "_padding",
              "type": "uint8"
            },
            {
              "components": [
                {
                  "internalType": "address",
                  "name": "baseTokenForPair",
                  "type": "address"
                },
                {
                  "internalType": "uint256",
                  "name": "liquidityForHardcap",
                  "type": "uint256"
                },
                {
                  "internalType": "uint256",
                  "name": "liquidityForSoftcap",
                  "type": "uint256"
                },
                {
                  "internalType": "uint256",
                  "name": "marketCap",
                  "type": "uint256"
                },
                {
                  "internalType": "uint256",
                  "name": "maxAllocationPerUser",
                  "type": "uint256"
                },
                {
                  "internalType": "uint256",
                  "name": "maxAllocationPerWhitelistedUser",
                  "type": "uint256"
                },
                {
                  "internalType": "bytes32",
                  "name": "whitelistMerkleRoot",
                  "type": "bytes32"
                },
                {
                  "internalType": "uint24",
                  "name": "buyReferralFeePer",
                  "type": "uint24"
                },
                {
                  "internalType": "uint24",
                  "name": "sellMemeTokenOwnerFeePer",
                  "type": "uint24"
                },
                {
                  "internalType": "uint24",
                  "name": "buyMemeTokenOwnerFeePer",
                  "type": "uint24"
                },
                {
                  "internalType": "uint24",
                  "name": "finalizeFeePer",
                  "type": "uint24"
                },
                {
                  "internalType": "uint24",
                  "name": "delayTradeTime",
                  "type": "uint24"
                },
                {
                  "internalType": "uint40",
                  "name": "startTime",
                  "type": "uint40"
                },
                {
                  "internalType": "uint40",
                  "name": "endTime",
                  "type": "uint40"
                },
                {
                  "internalType": "bool",
                  "name": "isWhitelist",
                  "type": "bool"
                },
                {
                  "internalType": "uint48",
                  "name": "_padding",
                  "type": "uint48"
                },
                {
                  "components": [
                    {
                      "internalType": "address",
                      "name": "routerOrPositionManager",
                      "type": "address"
                    },
                    {
                      "internalType": "uint256",
                      "name": "poolId",
                      "type": "uint256"
                    },
                    {
                      "internalType": "uint24",
                      "name": "fee",
                      "type": "uint24"
                    },
                    {
                      "internalType": "int24",
                      "name": "tickSpacing",
                      "type": "int24"
                    },
                    {
                      "internalType": "uint24",
                      "name": "per",
                      "type": "uint24"
                    },
                    {
                      "internalType": "bool",
                      "name": "isLPBurn",
                      "type": "bool"
                    },
                    {
                      "internalType": "uint8",
                      "name": "_padding",
                      "type": "uint8"
                    }
                  ],
                  "internalType": "struct Dex[]",
                  "name": "dex",
                  "type": "tuple[]"
                },
                {
                  "internalType": "string",
                  "name": "metaData",
                  "type": "string"
                }
              ],
              "internalType": "struct InitialMemeTokenData",
              "name": "initialData",
              "type": "tuple"
            },
            {
              "components": [
                {
                  "internalType": "uint256",
                  "name": "listingFee",
                  "type": "uint256"
                },
                {
                  "internalType": "uint256",
                  "name": "listingReferralFee",
                  "type": "uint256"
                },
                {
                  "internalType": "uint24",
                  "name": "buyFeePer",
                  "type": "uint24"
                },
                {
                  "internalType": "uint24",
                  "name": "sellFeePer",
                  "type": "uint24"
                },
                {
                  "internalType": "uint24",
                  "name": "finalizeFeePer",
                  "type": "uint24"
                },
                {
                  "internalType": "uint24",
                  "name": "flashLaunchFeePer",
                  "type": "uint24"
                },
                {
                  "internalType": "uint24",
                  "name": "tradingFeeAfterLaunchPer",
                  "type": "uint24"
                },
                {
                  "internalType": "uint8",
                  "name": "_padding",
                  "type": "uint8"
                }
              ],
              "internalType": "struct Fee",
              "name": "fee",
              "type": "tuple"
            },
            {
              "internalType": "uint256",
              "name": "tokenVersion",
              "type": "uint256"
            }
          ],
          "indexed": false,
          "internalType": "struct MemeTokenData",
          "name": "memeTokenData",
          "type": "tuple"
        },
        {
          "indexed": false,
          "internalType": "uint256",
          "name": "initialBuyAmount",
          "type": "uint256"
        },
        {
          "indexed": false,
          "internalType": "address",
          "name": "referrer",
          "type": "address"
        },
        {
          "components": [
            {
              "internalType": "bool",
              "name": "hasV4Hook",
              "type": "bool"
            },
            {
              "components": [
                {
                  "internalType": "uint16",
                  "name": "liquidityFeeBps",
                  "type": "uint16"
                },
                {
                  "internalType": "uint16",
                  "name": "buybackFeeBps",
                  "type": "uint16"
                },
                {
                  "internalType": "uint16",
                  "name": "rewardFeeBps",
                  "type": "uint16"
                },
                {
                  "internalType": "address[]",
                  "name": "customWallets",
                  "type": "address[]"
                },
                {
                  "internalType": "uint16[]",
                  "name": "customWalletBps",
                  "type": "uint16[]"
                }
              ],
              "internalType": "struct HookFeeDistributionData",
              "name": "hookFeeDistributionConfig",
              "type": "tuple"
            },
            {
              "internalType": "uint256",
              "name": "feeThreshold",
              "type": "uint256"
            },
            {
              "internalType": "address",
              "name": "rewardToken",
              "type": "address"
            },
            {
              "components": [
                {
                  "internalType": "Currency",
                  "name": "currency0",
                  "type": "address"
                },
                {
                  "internalType": "Currency",
                  "name": "currency1",
                  "type": "address"
                },
                {
                  "internalType": "uint24",
                  "name": "fee",
                  "type": "uint24"
                },
                {
                  "internalType": "int24",
                  "name": "tickSpacing",
                  "type": "int24"
                },
                {
                  "internalType": "contract IHooks",
                  "name": "hooks",
                  "type": "address"
                }
              ],
              "internalType": "struct PoolKey",
              "name": "rewardPoolKey",
              "type": "tuple"
            },
            {
              "internalType": "enum IBasedBidHook.FeeKind",
              "name": "feeKind",
              "type": "uint8"
            },
            {
              "internalType": "uint24",
              "name": "staticPoolFeeBpsBuy",
              "type": "uint24"
            },
            {
              "internalType": "uint24",
              "name": "staticPoolFeeBpsSell",
              "type": "uint24"
            },
            {
              "internalType": "uint24",
              "name": "hookFeeBpsBuy",
              "type": "uint24"
            },
            {
              "internalType": "uint24",
              "name": "hookFeeBpsSell",
              "type": "uint24"
            },
            {
              "components": [
                {
                  "internalType": "uint24",
                  "name": "minBaseFeeBpsBuy",
                  "type": "uint24"
                },
                {
                  "internalType": "uint24",
                  "name": "minBaseFeeBpsSell",
                  "type": "uint24"
                },
                {
                  "internalType": "uint24",
                  "name": "maxBaseFeeBpsBuy",
                  "type": "uint24"
                },
                {
                  "internalType": "uint24",
                  "name": "maxBaseFeeBpsSell",
                  "type": "uint24"
                },
                {
                  "internalType": "uint32",
                  "name": "baseFeeFactorBuy",
                  "type": "uint32"
                },
                {
                  "internalType": "uint32",
                  "name": "baseFeeFactorSell",
                  "type": "uint32"
                },
                {
                  "internalType": "uint24",
                  "name": "defaultBaseFeeBpsBuy",
                  "type": "uint24"
                },
                {
                  "internalType": "uint24",
                  "name": "defaultBaseFeeBpsSell",
                  "type": "uint24"
                },
                {
                  "internalType": "uint32",
                  "name": "surgeDecayPeriodSeconds",
                  "type": "uint32"
                },
                {
                  "internalType": "uint32",
                  "name": "surgeMultiplierPpm",
                  "type": "uint32"
                },
                {
                  "internalType": "bool",
                  "name": "perSwapMode",
                  "type": "bool"
                },
                {
                  "internalType": "uint32",
                  "name": "capAutoTuneStepPpm",
                  "type": "uint32"
                },
                {
                  "internalType": "uint32",
                  "name": "capAutoTuneIntervalSeconds",
                  "type": "uint32"
                }
              ],
              "internalType": "struct IBasedBidHook.DynamicFeeConfig",
              "name": "dynamicFeeConfig",
              "type": "tuple"
            },
            {
              "components": [
                {
                  "internalType": "uint16[]",
                  "name": "buyFeesBps",
                  "type": "uint16[]"
                },
                {
                  "internalType": "uint16[]",
                  "name": "sellFeesBps",
                  "type": "uint16[]"
                },
                {
                  "internalType": "uint256[]",
                  "name": "buyFeeTierAmountLevels",
                  "type": "uint256[]"
                },
                {
                  "internalType": "uint256[]",
                  "name": "sellFeeTierAmountLevels",
                  "type": "uint256[]"
                }
              ],
              "internalType": "struct IBasedBidHook.TieredFeeConfig",
              "name": "tieredFeeConfig",
              "type": "tuple"
            },
            {
              "internalType": "uint48",
              "name": "protectPeriod",
              "type": "uint48"
            },
            {
              "internalType": "uint256",
              "name": "maxBuyPerOrigin",
              "type": "uint256"
            },
            {
              "internalType": "bool",
              "name": "isAntiSandwich",
              "type": "bool"
            },
            {
              "internalType": "uint32",
              "name": "cooldownSeconds",
              "type": "uint32"
            },
            {
              "internalType": "uint24",
              "name": "penaltyFeeBps",
              "type": "uint24"
            },
            {
              "components": [
                {
                  "internalType": "uint32",
                  "name": "volumeIntervalSeconds",
                  "type": "uint32"
                },
                {
                  "internalType": "uint256[]",
                  "name": "volumeLevels",
                  "type": "uint256[]"
                },
                {
                  "internalType": "uint16[]",
                  "name": "volumeMultiplierBps",
                  "type": "uint16[]"
                }
              ],
              "internalType": "struct IBasedBidHook.VolumeConfig",
              "name": "volumeConfig",
              "type": "tuple"
            }
          ],
          "indexed": false,
          "internalType": "struct V4HookData[]",
          "name": "v4HookData",
          "type": "tuple[]"
        },
        {
          "components": [
            {
              "internalType": "bool",
              "name": "isWhitelist",
              "type": "bool"
            },
            {
              "internalType": "uint256",
              "name": "maxBuyPerOrigin",
              "type": "uint256"
            }
          ],
          "indexed": false,
          "internalType": "struct WhitelistOptionForHookBuy[]",
          "name": "whitelistOptionForHookBuy",
          "type": "tuple[]"
        },
        {
          "components": [
            {
              "internalType": "bool",
              "name": "isSwapAll",
              "type": "bool"
            },
            {
              "internalType": "uint8",
              "name": "swapForRewardNo",
              "type": "uint8"
            },
            {
              "internalType": "uint16[]",
              "name": "RWAPercentsBps",
              "type": "uint16[]"
            },
            {
              "components": [
                {
                  "components": [
                    {
                      "internalType": "Currency",
                      "name": "currency0",
                      "type": "address"
                    },
                    {
                      "internalType": "Currency",
                      "name": "currency1",
                      "type": "address"
                    },
                    {
                      "internalType": "uint24",
                      "name": "fee",
                      "type": "uint24"
                    },
                    {
                      "internalType": "int24",
                      "name": "tickSpacing",
                      "type": "int24"
                    },
                    {
                      "internalType": "contract IHooks",
                      "name": "hooks",
                      "type": "address"
                    }
                  ],
                  "internalType": "struct PoolKey[]",
                  "name": "hops",
                  "type": "tuple[]"
                }
              ],
              "internalType": "struct IBasedBidHook.RewardPath[]",
              "name": "paths",
              "type": "tuple[]"
            }
          ],
          "indexed": false,
          "internalType": "struct IBasedBidHook.RWASwapConfig[]",
          "name": "rewardSwapData",
          "type": "tuple[]"
        },
        {
          "indexed": false,
          "internalType": "string[][]",
          "name": "customWalletLabels",
          "type": "string[][]"
        },
        {
          "components": [
            {
              "internalType": "bool",
              "name": "isSwapAll",
              "type": "bool"
            },
            {
              "internalType": "uint8",
              "name": "swapForRewardNo",
              "type": "uint8"
            },
            {
              "internalType": "uint16[]",
              "name": "RWAPercentsBps",
              "type": "uint16[]"
            },
            {
              "components": [
                {
                  "components": [
                    {
                      "internalType": "Currency",
                      "name": "currency0",
                      "type": "address"
                    },
                    {
                      "internalType": "Currency",
                      "name": "currency1",
                      "type": "address"
                    },
                    {
                      "internalType": "uint24",
                      "name": "fee",
                      "type": "uint24"
                    },
                    {
                      "internalType": "int24",
                      "name": "tickSpacing",
                      "type": "int24"
                    },
                    {
                      "internalType": "contract IHooks",
                      "name": "hooks",
                      "type": "address"
                    }
                  ],
                  "internalType": "struct PoolKey[]",
                  "name": "hops",
                  "type": "tuple[]"
                }
              ],
              "internalType": "struct IBasedBidHook.RewardPath[]",
              "name": "paths",
              "type": "tuple[]"
            }
          ],
          "indexed": false,
          "internalType": "struct IBasedBidHook.RWASwapConfig[][]",
          "name": "customWalletSwapConfigs",
          "type": "tuple[][]"
        },
        {
          "indexed": false,
          "internalType": "address[]",
          "name": "_rewardTokens",
          "type": "address[]"
        },
        {
          "indexed": false,
          "internalType": "bool[]",
          "name": "isExternalFeeTrigger",
          "type": "bool[]"
        }
      ],
      "name": "LogMemeTokenCreated",
      "type": "event"
    },
    {
      "anonymous": false,
      "inputs": [
        {
          "indexed": false,
          "internalType": "address",
          "name": "memeToken",
          "type": "address"
        },
        {
          "components": [
            {
              "internalType": "address",
              "name": "memeOwner",
              "type": "address"
            },
            {
              "internalType": "uint256",
              "name": "volumn",
              "type": "uint256"
            },
            {
              "internalType": "uint256",
              "name": "virtualReserveETH",
              "type": "uint256"
            },
            {
              "internalType": "uint256",
              "name": "virtualReserveToken",
              "type": "uint256"
            },
            {
              "internalType": "uint256",
              "name": "initialVirtualReserveETH",
              "type": "uint256"
            },
            {
              "internalType": "uint256",
              "name": "initialVirtualReserveToken",
              "type": "uint256"
            },
            {
              "internalType": "uint256",
              "name": "virtualReserveETHHardcap",
              "type": "uint256"
            },
            {
              "internalType": "uint256",
              "name": "virtualReserveETHSoftcap",
              "type": "uint256"
            },
            {
              "internalType": "bytes32",
              "name": "subBoard",
              "type": "bytes32"
            },
            {
              "internalType": "bytes32",
              "name": "keyForXSale",
              "type": "bytes32"
            },
            {
              "internalType": "uint8",
              "name": "package",
              "type": "uint8"
            },
            {
              "internalType": "bool",
              "name": "isXSale",
              "type": "bool"
            },
            {
              "internalType": "bool",
              "name": "isListed",
              "type": "bool"
            },
            {
              "internalType": "bool",
              "name": "isCancelled",
              "type": "bool"
            },
            {
              "internalType": "bool",
              "name": "isTaxToken",
              "type": "bool"
            },
            {
              "internalType": "uint8",
              "name": "_padding",
              "type": "uint8"
            },
            {
              "components": [
                {
                  "internalType": "address",
                  "name": "baseTokenForPair",
                  "type": "address"
                },
                {
                  "internalType": "uint256",
                  "name": "liquidityForHardcap",
                  "type": "uint256"
                },
                {
                  "internalType": "uint256",
                  "name": "liquidityForSoftcap",
                  "type": "uint256"
                },
                {
                  "internalType": "uint256",
                  "name": "marketCap",
                  "type": "uint256"
                },
                {
                  "internalType": "uint256",
                  "name": "maxAllocationPerUser",
                  "type": "uint256"
                },
                {
                  "internalType": "uint256",
                  "name": "maxAllocationPerWhitelistedUser",
                  "type": "uint256"
                },
                {
                  "internalType": "bytes32",
                  "name": "whitelistMerkleRoot",
                  "type": "bytes32"
                },
                {
                  "internalType": "uint24",
                  "name": "buyReferralFeePer",
                  "type": "uint24"
                },
                {
                  "internalType": "uint24",
                  "name": "sellMemeTokenOwnerFeePer",
                  "type": "uint24"
                },
                {
                  "internalType": "uint24",
                  "name": "buyMemeTokenOwnerFeePer",
                  "type": "uint24"
                },
                {
                  "internalType": "uint24",
                  "name": "finalizeFeePer",
                  "type": "uint24"
                },
                {
                  "internalType": "uint24",
                  "name": "delayTradeTime",
                  "type": "uint24"
                },
                {
                  "internalType": "uint40",
                  "name": "startTime",
                  "type": "uint40"
                },
                {
                  "internalType": "uint40",
                  "name": "endTime",
                  "type": "uint40"
                },
                {
                  "internalType": "bool",
                  "name": "isWhitelist",
                  "type": "bool"
                },
                {
                  "internalType": "uint48",
                  "name": "_padding",
                  "type": "uint48"
                },
                {
                  "components": [
                    {
                      "internalType": "address",
                      "name": "routerOrPositionManager",
                      "type": "address"
                    },
                    {
                      "internalType": "uint256",
                      "name": "poolId",
                      "type": "uint256"
                    },
                    {
                      "internalType": "uint24",
                      "name": "fee",
                      "type": "uint24"
                    },
                    {
                      "internalType": "int24",
                      "name": "tickSpacing",
                      "type": "int24"
                    },
                    {
                      "internalType": "uint24",
                      "name": "per",
                      "type": "uint24"
                    },
                    {
                      "internalType": "bool",
                      "name": "isLPBurn",
                      "type": "bool"
                    },
                    {
                      "internalType": "uint8",
                      "name": "_padding",
                      "type": "uint8"
                    }
                  ],
                  "internalType": "struct Dex[]",
                  "name": "dex",
                  "type": "tuple[]"
                },
                {
                  "internalType": "string",
                  "name": "metaData",
                  "type": "string"
                }
              ],
              "internalType": "struct InitialMemeTokenData",
              "name": "initialData",
              "type": "tuple"
            },
            {
              "components": [
                {
                  "internalType": "uint256",
                  "name": "listingFee",
                  "type": "uint256"
                },
                {
                  "internalType": "uint256",
                  "name": "listingReferralFee",
                  "type": "uint256"
                },
                {
                  "internalType": "uint24",
                  "name": "buyFeePer",
                  "type": "uint24"
                },
                {
                  "internalType": "uint24",
                  "name": "sellFeePer",
                  "type": "uint24"
                },
                {
                  "internalType": "uint24",
                  "name": "finalizeFeePer",
                  "type": "uint24"
                },
                {
                  "internalType": "uint24",
                  "name": "flashLaunchFeePer",
                  "type": "uint24"
                },
                {
                  "internalType": "uint24",
                  "name": "tradingFeeAfterLaunchPer",
                  "type": "uint24"
                },
                {
                  "internalType": "uint8",
                  "name": "_padding",
                  "type": "uint8"
                }
              ],
              "internalType": "struct Fee",
              "name": "fee",
              "type": "tuple"
            },
            {
              "internalType": "uint256",
              "name": "tokenVersion",
              "type": "uint256"
            }
          ],
          "indexed": false,
          "internalType": "struct MemeTokenData",
          "name": "memeTokenData",
          "type": "tuple"
        }
      ],
      "name": "LogMemeTokenUpdated",
      "type": "event"
    },
    {
      "anonymous": false,
      "inputs": [
        {
          "indexed": true,
          "internalType": "address",
          "name": "memeOwner",
          "type": "address"
        },
        {
          "indexed": true,
          "internalType": "address",
          "name": "token",
          "type": "address"
        },
        {
          "indexed": false,
          "internalType": "uint256",
          "name": "amount",
          "type": "uint256"
        }
      ],
      "name": "MemeOwnerFeeCollected",
      "type": "event"
    },
    {
      "anonymous": false,
      "inputs": [
        {
          "indexed": true,
          "internalType": "address",
          "name": "to",
          "type": "address"
        },
        {
          "indexed": false,
          "internalType": "uint256",
          "name": "amount",
          "type": "uint256"
        }
      ],
      "name": "PaymentOwed",
      "type": "event"
    },
    {
      "anonymous": false,
      "inputs": [
        {
          "indexed": true,
          "internalType": "address",
          "name": "referrer",
          "type": "address"
        },
        {
          "indexed": true,
          "internalType": "address",
          "name": "token",
          "type": "address"
        },
        {
          "indexed": false,
          "internalType": "uint256",
          "name": "amount",
          "type": "uint256"
        }
      ],
      "name": "ReferralFeeCollected",
      "type": "event"
    },
    {
      "anonymous": false,
      "inputs": [
        {
          "indexed": true,
          "internalType": "address",
          "name": "subBoardOwner",
          "type": "address"
        },
        {
          "indexed": true,
          "internalType": "address",
          "name": "token",
          "type": "address"
        },
        {
          "indexed": false,
          "internalType": "uint256",
          "name": "amount",
          "type": "uint256"
        }
      ],
      "name": "SubBoardFeeCollected",
      "type": "event"
    },
    {
      "inputs": [
        {
          "internalType": "uint256",
          "name": "package",
          "type": "uint256"
        },
        {
          "internalType": "bytes",
          "name": "initCode",
          "type": "bytes"
        },
        {
          "internalType": "bytes32",
          "name": "salt",
          "type": "bytes32"
        },
        {
          "internalType": "string",
          "name": "subBoardTitle",
          "type": "string"
        },
        {
          "internalType": "address",
          "name": "referrer",
          "type": "address"
        },
        {
          "internalType": "uint256",
          "name": "totalSupply",
          "type": "uint256"
        },
        {
          "internalType": "string",
          "name": "name",
          "type": "string"
        },
        {
          "internalType": "string",
          "name": "symbol",
          "type": "string"
        },
        {
          "internalType": "uint8",
          "name": "decimals",
          "type": "uint8"
        },
        {
          "internalType": "uint256",
          "name": "initialBuyAmount",
          "type": "uint256"
        },
        {
          "components": [
            {
              "internalType": "address",
              "name": "baseTokenForPair",
              "type": "address"
            },
            {
              "internalType": "uint256",
              "name": "liquidityForHardcap",
              "type": "uint256"
            },
            {
              "internalType": "uint256",
              "name": "liquidityForSoftcap",
              "type": "uint256"
            },
            {
              "internalType": "uint256",
              "name": "marketCap",
              "type": "uint256"
            },
            {
              "internalType": "uint256",
              "name": "maxAllocationPerUser",
              "type": "uint256"
            },
            {
              "internalType": "uint256",
              "name": "maxAllocationPerWhitelistedUser",
              "type": "uint256"
            },
            {
              "internalType": "bytes32",
              "name": "whitelistMerkleRoot",
              "type": "bytes32"
            },
            {
              "internalType": "uint24",
              "name": "buyReferralFeePer",
              "type": "uint24"
            },
            {
              "internalType": "uint24",
              "name": "sellMemeTokenOwnerFeePer",
              "type": "uint24"
            },
            {
              "internalType": "uint24",
              "name": "buyMemeTokenOwnerFeePer",
              "type": "uint24"
            },
            {
              "internalType": "uint24",
              "name": "finalizeFeePer",
              "type": "uint24"
            },
            {
              "internalType": "uint24",
              "name": "delayTradeTime",
              "type": "uint24"
            },
            {
              "internalType": "uint40",
              "name": "startTime",
              "type": "uint40"
            },
            {
              "internalType": "uint40",
              "name": "endTime",
              "type": "uint40"
            },
            {
              "internalType": "bool",
              "name": "isWhitelist",
              "type": "bool"
            },
            {
              "internalType": "uint48",
              "name": "_padding",
              "type": "uint48"
            },
            {
              "components": [
                {
                  "internalType": "address",
                  "name": "routerOrPositionManager",
                  "type": "address"
                },
                {
                  "internalType": "uint256",
                  "name": "poolId",
                  "type": "uint256"
                },
                {
                  "internalType": "uint24",
                  "name": "fee",
                  "type": "uint24"
                },
                {
                  "internalType": "int24",
                  "name": "tickSpacing",
                  "type": "int24"
                },
                {
                  "internalType": "uint24",
                  "name": "per",
                  "type": "uint24"
                },
                {
                  "internalType": "bool",
                  "name": "isLPBurn",
                  "type": "bool"
                },
                {
                  "internalType": "uint8",
                  "name": "_padding",
                  "type": "uint8"
                }
              ],
              "internalType": "struct Dex[]",
              "name": "dex",
              "type": "tuple[]"
            },
            {
              "internalType": "string",
              "name": "metaData",
              "type": "string"
            }
          ],
          "internalType": "struct InitialMemeTokenData",
          "name": "initialData",
          "type": "tuple"
        },
        {
          "components": [
            {
              "internalType": "bool",
              "name": "hasV4Hook",
              "type": "bool"
            },
            {
              "components": [
                {
                  "internalType": "uint16",
                  "name": "liquidityFeeBps",
                  "type": "uint16"
                },
                {
                  "internalType": "uint16",
                  "name": "buybackFeeBps",
                  "type": "uint16"
                },
                {
                  "internalType": "uint16",
                  "name": "rewardFeeBps",
                  "type": "uint16"
                },
                {
                  "internalType": "address[]",
                  "name": "customWallets",
                  "type": "address[]"
                },
                {
                  "internalType": "uint16[]",
                  "name": "customWalletBps",
                  "type": "uint16[]"
                }
              ],
              "internalType": "struct HookFeeDistributionData",
              "name": "hookFeeDistributionConfig",
              "type": "tuple"
            },
            {
              "internalType": "uint256",
              "name": "feeThreshold",
              "type": "uint256"
            },
            {
              "internalType": "address",
              "name": "rewardToken",
              "type": "address"
            },
            {
              "components": [
                {
                  "internalType": "Currency",
                  "name": "currency0",
                  "type": "address"
                },
                {
                  "internalType": "Currency",
                  "name": "currency1",
                  "type": "address"
                },
                {
                  "internalType": "uint24",
                  "name": "fee",
                  "type": "uint24"
                },
                {
                  "internalType": "int24",
                  "name": "tickSpacing",
                  "type": "int24"
                },
                {
                  "internalType": "contract IHooks",
                  "name": "hooks",
                  "type": "address"
                }
              ],
              "internalType": "struct PoolKey",
              "name": "rewardPoolKey",
              "type": "tuple"
            },
            {
              "internalType": "enum IBasedBidHook.FeeKind",
              "name": "feeKind",
              "type": "uint8"
            },
            {
              "internalType": "uint24",
              "name": "staticPoolFeeBpsBuy",
              "type": "uint24"
            },
            {
              "internalType": "uint24",
              "name": "staticPoolFeeBpsSell",
              "type": "uint24"
            },
            {
              "internalType": "uint24",
              "name": "hookFeeBpsBuy",
              "type": "uint24"
            },
            {
              "internalType": "uint24",
              "name": "hookFeeBpsSell",
              "type": "uint24"
            },
            {
              "components": [
                {
                  "internalType": "uint24",
                  "name": "minBaseFeeBpsBuy",
                  "type": "uint24"
                },
                {
                  "internalType": "uint24",
                  "name": "minBaseFeeBpsSell",
                  "type": "uint24"
                },
                {
                  "internalType": "uint24",
                  "name": "maxBaseFeeBpsBuy",
                  "type": "uint24"
                },
                {
                  "internalType": "uint24",
                  "name": "maxBaseFeeBpsSell",
                  "type": "uint24"
                },
                {
                  "internalType": "uint32",
                  "name": "baseFeeFactorBuy",
                  "type": "uint32"
                },
                {
                  "internalType": "uint32",
                  "name": "baseFeeFactorSell",
                  "type": "uint32"
                },
                {
                  "internalType": "uint24",
                  "name": "defaultBaseFeeBpsBuy",
                  "type": "uint24"
                },
                {
                  "internalType": "uint24",
                  "name": "defaultBaseFeeBpsSell",
                  "type": "uint24"
                },
                {
                  "internalType": "uint32",
                  "name": "surgeDecayPeriodSeconds",
                  "type": "uint32"
                },
                {
                  "internalType": "uint32",
                  "name": "surgeMultiplierPpm",
                  "type": "uint32"
                },
                {
                  "internalType": "bool",
                  "name": "perSwapMode",
                  "type": "bool"
                },
                {
                  "internalType": "uint32",
                  "name": "capAutoTuneStepPpm",
                  "type": "uint32"
                },
                {
                  "internalType": "uint32",
                  "name": "capAutoTuneIntervalSeconds",
                  "type": "uint32"
                }
              ],
              "internalType": "struct IBasedBidHook.DynamicFeeConfig",
              "name": "dynamicFeeConfig",
              "type": "tuple"
            },
            {
              "components": [
                {
                  "internalType": "uint16[]",
                  "name": "buyFeesBps",
                  "type": "uint16[]"
                },
                {
                  "internalType": "uint16[]",
                  "name": "sellFeesBps",
                  "type": "uint16[]"
                },
                {
                  "internalType": "uint256[]",
                  "name": "buyFeeTierAmountLevels",
                  "type": "uint256[]"
                },
                {
                  "internalType": "uint256[]",
                  "name": "sellFeeTierAmountLevels",
                  "type": "uint256[]"
                }
              ],
              "internalType": "struct IBasedBidHook.TieredFeeConfig",
              "name": "tieredFeeConfig",
              "type": "tuple"
            },
            {
              "internalType": "uint48",
              "name": "protectPeriod",
              "type": "uint48"
            },
            {
              "internalType": "uint256",
              "name": "maxBuyPerOrigin",
              "type": "uint256"
            },
            {
              "internalType": "bool",
              "name": "isAntiSandwich",
              "type": "bool"
            },
            {
              "internalType": "uint32",
              "name": "cooldownSeconds",
              "type": "uint32"
            },
            {
              "internalType": "uint24",
              "name": "penaltyFeeBps",
              "type": "uint24"
            },
            {
              "components": [
                {
                  "internalType": "uint32",
                  "name": "volumeIntervalSeconds",
                  "type": "uint32"
                },
                {
                  "internalType": "uint256[]",
                  "name": "volumeLevels",
                  "type": "uint256[]"
                },
                {
                  "internalType": "uint16[]",
                  "name": "volumeMultiplierBps",
                  "type": "uint16[]"
                }
              ],
              "internalType": "struct IBasedBidHook.VolumeConfig",
              "name": "volumeConfig",
              "type": "tuple"
            }
          ],
          "internalType": "struct V4HookData[]",
          "name": "v4HookData",
          "type": "tuple[]"
        },
        {
          "internalType": "uint256",
          "name": "minTokenBalanceForDividends",
          "type": "uint256"
        },
        {
          "components": [
            {
              "internalType": "bool",
              "name": "isWhitelist",
              "type": "bool"
            },
            {
              "internalType": "uint256",
              "name": "maxBuyPerOrigin",
              "type": "uint256"
            }
          ],
          "internalType": "struct WhitelistOptionForHookBuy[]",
          "name": "whitelistOptionForHookBuy",
          "type": "tuple[]"
        },
        {
          "components": [
            {
              "internalType": "bool",
              "name": "isSwapAll",
              "type": "bool"
            },
            {
              "internalType": "uint8",
              "name": "swapForRewardNo",
              "type": "uint8"
            },
            {
              "internalType": "uint16[]",
              "name": "RWAPercentsBps",
              "type": "uint16[]"
            },
            {
              "components": [
                {
                  "components": [
                    {
                      "internalType": "Currency",
                      "name": "currency0",
                      "type": "address"
                    },
                    {
                      "internalType": "Currency",
                      "name": "currency1",
                      "type": "address"
                    },
                    {
                      "internalType": "uint24",
                      "name": "fee",
                      "type": "uint24"
                    },
                    {
                      "internalType": "int24",
                      "name": "tickSpacing",
                      "type": "int24"
                    },
                    {
                      "internalType": "contract IHooks",
                      "name": "hooks",
                      "type": "address"
                    }
                  ],
                  "internalType": "struct PoolKey[]",
                  "name": "hops",
                  "type": "tuple[]"
                }
              ],
              "internalType": "struct IBasedBidHook.RewardPath[]",
              "name": "paths",
              "type": "tuple[]"
            }
          ],
          "internalType": "struct IBasedBidHook.RWASwapConfig[]",
          "name": "rewardSwapData",
          "type": "tuple[]"
        },
        {
          "internalType": "string[][]",
          "name": "customWalletLabels",
          "type": "string[][]"
        },
        {
          "components": [
            {
              "internalType": "bool",
              "name": "isSwapAll",
              "type": "bool"
            },
            {
              "internalType": "uint8",
              "name": "swapForRewardNo",
              "type": "uint8"
            },
            {
              "internalType": "uint16[]",
              "name": "RWAPercentsBps",
              "type": "uint16[]"
            },
            {
              "components": [
                {
                  "components": [
                    {
                      "internalType": "Currency",
                      "name": "currency0",
                      "type": "address"
                    },
                    {
                      "internalType": "Currency",
                      "name": "currency1",
                      "type": "address"
                    },
                    {
                      "internalType": "uint24",
                      "name": "fee",
                      "type": "uint24"
                    },
                    {
                      "internalType": "int24",
                      "name": "tickSpacing",
                      "type": "int24"
                    },
                    {
                      "internalType": "contract IHooks",
                      "name": "hooks",
                      "type": "address"
                    }
                  ],
                  "internalType": "struct PoolKey[]",
                  "name": "hops",
                  "type": "tuple[]"
                }
              ],
              "internalType": "struct IBasedBidHook.RewardPath[]",
              "name": "paths",
              "type": "tuple[]"
            }
          ],
          "internalType": "struct IBasedBidHook.RWASwapConfig[][]",
          "name": "customWalletSwapConfigs",
          "type": "tuple[][]"
        },
        {
          "internalType": "address[]",
          "name": "_rewardTokens",
          "type": "address[]"
        },
        {
          "internalType": "bool[]",
          "name": "isExternalFeeTrigger",
          "type": "bool[]"
        }
      ],
      "name": "createMeme",
      "outputs": [
        {
          "internalType": "address",
          "name": "",
          "type": "address"
        }
      ],
      "stateMutability": "payable",
      "type": "function"
    }
  ],
  "bytecode": "0x60808060405234601557615c71908161001a8239f35b5f80fdfe6105806040526004361015610012575f80fd5b5f610560525f3560e01c63fa2e195b1461002a575f80fd5b6102603660031901126142d5576024356001600160401b0381116142d557366023820112156142d5576100679036906024816004013591016149e2565b6064356001600160401b0381116142d557610086903690600401614a18565b610500526084356102408190526001600160a01b03811690036142d55760c4356001600160401b0381116142d5576100c2903690600401614a18565b6105405260e4356001600160401b0381116142d5576100e5903690600401614a18565b61052052610104356104a081905260ff811690036142d5576001600160401b0361014435116142d55761024061014435360360031901126142d557610164356001600160401b0381116142d557366023820112156142d55780600401359161014c83614a58565b9161015a60405193846149a6565b83835260208301906024829560051b820101903682116142d55760248101925b82841061448757505050506101a4356001600160401b0381116142d557366023820112156142d5578060040135906101c46101b483614a58565b60405161016052610160516149a6565b6101608051839052516020016103208190529160061b8101602401903682116142d557602401915b81831061443c575050506101c4356001600160401b0381116142d557610216903690600401614bf4565b6101a052610180526101e4356001600160401b0381116142d55761023e903690600401614bf4565b6103405261036052610204356001600160401b0381116142d557610266903690600401614bf4565b6103c0526103a052610224356001600160401b0381116142d55761028e903690600401614a8b565b6103e052610244356001600160401b0381116142d5576102b2903690600401614bf4565b61040052610460526001600554146143f7576001600555610124356104e05260ff600654166143e8575f610440523330036143de576102f0366149c7565b6104c0526040516104805261030b6104c051610480516149a6565b3661048051525f61056052365f6020610480510137610480515f6020369290920191820152516001600160a01b0316610440525b61024051610440516001600160a01b039081169116146143c957604051602081019061038e602082610500515180836105005101875e810161056051838201520301601f1981018352826149a6565b5190206040516104205261026061042051016104205181106001600160401b038211176143b5576040526105605161042051526105605160206104205101526105605160406104205101526105605160606104205101526105605160806104205101526105605160a06104205101526105605160c06104205101526105605160e06104205101526105605161010061042051015261056051610120610420510152610560516101406104205101526105605161016061042051015261056051610180610420510152610560516101a0610420510152610560516101c0610420510152610560516101e061042051015260405161048981614953565b6105605181526105605160208201526105605160408201526105605160608201526105605160808201526105605160a08201526105605160c08201526105605160e08201526105605161010082015261056051610120820152610560516101408201526105605161016082015261056051610180820152610560516101a0820152610560516101c0820152610560516101e0820152606061020082015260606102208201526102006104205101526040516105438161498a565b6105605181526105605160208201526105605160408201526105605160608201526105605160808201526105605160a08201526105605160c08201526105605160e082015261022061042051015261056051610240610420510152806105605152600f6020526040610560512090815460ff811690816143a6575b5015614333576105dc6105d660043560028501614c24565b50614c3d565b6102206104205101526101006104205101525b6105fe61014435600401614cae565b6003546001600160a01b039182168015610280819052929091169115614327575b505061063a6102206104205101516020815191015190614cc2565b610280511561417657610651906101243590614cc2565b80341061416257803411614146575b505b805460ff81169081614137575b5015613ffa57610240516001600160a01b031615613efd576106a06020610220610420510151015161024051615856565b6020610220610420510151015160405190815261056051907f150f14831044e1f4ff2291bff707cab4854442469477ae8f9986538ab3f67096602060018060a01b03610240511692a3620f42406107086102206104205101515162ffffff6008541690615934565b049061071d8261022061042051015151614ce3565b906107348260018060a01b03835460101c16615856565b60018060a01b03905460101c166040519182527fb31d5740c93468f40d7cfaf4abee5f8bbf99655d372c474822ccc6a88bf27a5060206105605193a361056051546001600160a01b0316803b15611bb457604491604051928380926311f9fbc960e21b825261056051600483015261056051602483015261056051945af1801561332b57613ee0575b505b805115613ecb576044359060208151910161056051f5610380523d151961038051151661332b57610380516001600160a01b031615613eb657610380513f6105605152600d60205260ff604061056051205416610300526103005115613ea1576103005161024061042051015261083c3661014435600401614d02565b6102e081905261056051610200908152015151610260819052815103613e8c576103005160010361087c5763f143876360e01b6105605152600461056051fd5b610560516102a0525b610260516102a0511061368d576102e051516001600160a01b031680151580613678575b6135eb575b506101a06102e0510164ffffffffff815116610e1064ffffffffff6101806102e0510151160164ffffffffff811161191b5764ffffffffff161161357b5760a06102e051015160806102e0510151116135d65760406102e05101908151156135c15760206102e051019081518351116135ac5760606102e0510151825110156135ac5764ffffffffff928392519051105f14613590575116101561357b575b620186a062ffffff6101206102e0510151161161356657620186a062ffffff6101006102e0510151161161356657620186a062ffffff60e06102e0510151161161356657620186a062ffffff6101406102e0510151161161356657620f424062ffffff61020051160361355157610300516005036134105761018435158015613402575b6133ed576109ec610204610144350161014435600401614f61565b156125e9576001600160a01b0390610a0390614cae565b1661056051526012602052600460406105605120541461056051505f146133dc576014546001600160a01b03165b610380516001600160a01b03163b15611bb4576040519063ee96e0fd60e01b825260a435600483015260e06024830152610aad610a8c610a7760e4850161054051614f3d565b84810360031901604486015261052051614f3d565b6104a05160ff1660648501528381036003190160848501526103e051614f96565b6101843560a48401526001600160a01b0391821660c48401526105605161038051909284928390039183918591165af1801561332b576133bf575b505b600c54600160401b8110156117e25760018101600c55600c5481101561339957600c5f5260205f200160018060a01b0361038051166bffffffffffffffffffffffff60a01b825416179055610b4461014435600401614cae565b6001600160a01b038116156133ad575b610b6b610204610144350161014435600401614f61565b919050610560515b82811061315f5750505060ff6004351661014061042051015260018060a01b0361044051166104205152610bad3661014435600401614d02565b61020061042051015262ffffff6080610220610420510151015116620f424003620f4240811161191b57610bf49062ffffff610bed610144803501614fe7565b1690614ce3565b610c05610144356024013580615934565b610c3c610c2060246101443501356064610144350135614ce3565b620f4240610c35856024610144350135615934565b0490614ce3565b801561315357610c4b916158e8565b905b60018201821161191b57610c84610c7c60018481610cd096016080610420510152016024610144350135614cc2565b60a435615934565b61014435602401351561313e57620f4240610cbc610cad610cca936024610144350135906158e8565b935b6024610144350135615934565b046064610144350135614ce3565b90615934565b61014435606401351561313157610cf2610d23916064610144350135906158e8565b8060a06104205101526080610420510151908160406104205101526060610420510152602461014435013590614cc2565b60c0610420510152610d446080610420510151604461014435013590614cc2565b60e0610420510152602461014435013561012435116130d0575b8051610560515b81811061261d575061040051612544575b6101a051612477575b610340516121d0575b6103c051611faf575b5060405161010052610140610100515260018060a01b036104205151166101406101005101526020610420510151610160610100510152604061042051015161018061010051015260606104205101516101a061010051015260806104205101516101c061010051015260a06104205101516101e061010051015260c061042051015161020061010051015260e061042051015161022061010051015261010061042051015161024061010051015261012061042051015161026061010051015260ff6101406104205101511661028061010051015261016061042051015115156102a061010051015261018061042051015115156102c06101005101526101a061042051015115156102e06101005101526101c0610420510151151561030061010051015260ff6101e061042051015116610320610100510152610200610420510151610340806101005101526106c061010051019060018060a01b0381511661048061010051015260208101516104a061010051015260408101516104c061010051015260608101516104e0610100510152608081015161050061010051015260a081015161052061010051015260c081015161054061010051015262ffffff60e08201511661056061010051015262ffffff6101008201511661058061010051015262ffffff610120820151166105a061010051015262ffffff610140820151166105c061010051015262ffffff610160820151166105e061010051015264ffffffffff6101808201511661060061010051015264ffffffffff6101a0820151166106206101005101526101c0810151151561064061010051015265ffffffffffff6101e08201511661066061010051015261020081015191610240610680610100510152825180915260206106e06101005101930190610560515b818110611f40575050509061022061105d92015161047f19610100518303016106a0610100510152614f3d565b9060ff60e06102206104205101518051610360610100510152602081015161038061010051015262ffffff6040820151166103a061010051015262ffffff6060820151166103c061010051015262ffffff6080820151166103e061010051015262ffffff60a08201511661040061010051015262ffffff60c0820151166104206101005101520151166104406101005101526102406104205101516104606101005101526104e051602061010051015260018060a01b03610240511660406101005101526101005182036060610100510152518082526020820160208260051b840101939261056051905b838210611bdf578561010051810360806101005101526020610160515191828152016103205191610560515b818110611bbb5761119a8361010051810360a06101005101526101a05161018051615611565b61010051810360c0610100510152610340518152602081019060206103405160051b82010191610360519161056051915b610340518310611aea578461010051810360e06101005101526103c05181526020810160206103c05160051b830101916103a0519161056051905b6103c0518210611ab357602061122c86610100518103610100805101526103e051614f96565b6101005181036101206101005101526104005181520161046051610560515b610400518110611a945761038051610100516001600160a01b03909116907f453bfca21bdaf16c499d08a67b197a34aff25bc4b41cf4d8350222de528601939080860390a26104e051611935575b6103805161056080516001600160a01b03928316905260106020818152915160409081902061042051805182546001600160a01b0319169616959095178155848401516001820155908401516002820155606084015160038201556080840151600482015560a0840151600582015560c0840151600682015560e084015160078201556101008401516008808301919091556101208501516009830155610140850151600a830180546101608801516101808901516101a08a01516101c0909a015164ffffffffff1990931660ff959095169490941790151590941b61ff00169390931791151590941b62ff0000161794151560181b63ff000000169490941793151590921b64ff000000001692909217825590610420516101e0810151825465ff0000000000191660289190911b65ff0000000000161790915561020001518051600b830180546001600160a01b0319166001600160a01b03929092169190911790556020810151600c8301556040810151600d8301556060810151600e8301556080810151600f83015560a0810151601083015560c0810151601183015560e081015160128301805461010084015165ffffffffffff1990911662ffffff939093169290921760189290921b65ffffff00000016919091178155909190610120830151815468ffffff000000000000191660309190911b62ffffff60301b1617815561014083015181546bffffff000000000000000000191660489190911b62ffffff60481b16178155610160830151815462ffffff60601b191660609190911b62ffffff60601b1617815561018083015181546101a08501516101c08601516101e087015160ff60c81b91151560c81b919091166effffffffffffffffffffffffffffff90931660789490941b64ffffffffff60781b169390931760a09190911b64ffffffffff60a01b16171760d09190911b6001600160d01b0319161790556102008201518051906013830190600160401b83116117e25781548383558084106118bd575b506020019061056051526020610560512061056051915b8383106117fc578585610220601482019201519182516001600160401b0381116117e2576115d1816115cb84546154ee565b84615526565b60206001601f831114611778578190611604939495610560519261176d575b50508160011b915f199060031b1c19161790565b90555b610420516102208101518051601584015560208101516016840155604080820151601785018054606080860151608087015160a088015160c0808a015160e0909a01516fffffffffffffffffffffffffffffffff1990961662ffffff90981697909717601893841b65ffffff000000161762ffffff60301b60309390931b929092169190911762ffffff60481b60489290921b919091161762ffffff60601b9790921b969096161760789190911b60ff60781b161790556102408401519290940191909155810151910151146116f6575b61056051600555604051610380516001600160a01b03168152602090f35b60405163bcdf569b60e01b60208201908152610440516001600160a01b03908116602484015261038051166044808401919091528252906117386064826149a6565b61056051916105605191519061056051305af1611753615827565b506116d857632e1e71d360e21b6105605152600461056051fd5b0151905085806115f0565b601f1982169083610560515280610560512091610560515b8181106117ca575095836001959697106117b2575b505050811b019055611607565b01515f1960f88460031b161c191690558480806117a5565b9192602060018192868b015181550194019201611790565b634e487b7160e01b61056051526041600452602461056051fd5b8051805183546001600160a01b0319166001600160a01b0390911617835560208082015160018086019190915560408301516002860180546060860151608087015160a088015160c0909801516affffffffffffffffffffff1990931662ffffff9095169490941765ffffff00000060189290921b919091161760309390931b62ffffff60301b169290921794151560481b69ff000000000000000000169490941760509190911b60ff60501b161790925593019260039092019101611599565b8060030290600382040361191b578360030260038104850361191b57836105605152806020610560512001910390610560515b8281106118fe575050611582565b6105605182820181815560018101829055600201556003016118f0565b634e487b7160e01b61056051526011600452602461056051fd5b6119496104e0516040610420510151614cc2565b61196660406104205101516060610420510151906104e0516159e5565b90611980826104405160018060a01b0361038051166159aa565b6040610420510152611999816060610420510151614ce3565b60606104205101526119b56104e0516020610420510151614cc2565b8060206104205101526040610420510151606061042051015160c061042051015191829160e061042051015194604051966105605188526104e051602089015260408801526105605160608801526105605160808801526105605160a08801526105605160c088015260e0870152816101008701526101208601521461014084015260ff6104a051166101608401526101808301526101a082015260018060a01b036103805116907f068d39e3b8d18843364ea124a6320bb690f5220cd685fc780a8c0b97d125c3166101c060018060a01b03610440511692a3611299565b9091602080600192611aa586614a6f565b15158152019301910161124b565b90919293602080611adc600193601f19888203018652611ad6896103a0516155dd565b90615611565b960192019201909291611206565b90919293601f19838203018252611b0485610360516155dd565b9190828252602082019060208460051b84010193819361056051925b828410611b41575050505050506020806001929601920193019190926111cb565b909192939495601f198382030186528635601e1983360301811215611bb457820190602082359201916001600160401b038111611bb4578036038313611bb45760208282806001968496958596528484013761056051828201840152601f01601f19160101980196019401929190611b20565b6105605180fd5b83518051151584526020908101518185015290930192604090920191600101611174565b9091929394601f198282030184528551805115158252602081015161044060208401526104e083019061ffff81511661044085015261ffff60208201511661046085015261ffff60408201511661048085015260608101519160a06104a086015282518091526020610500860193019061056051905b808210611f1e575050506080015183820361043f19016104c0850152611c7b9190615573565b604082810151848201526060808401516001600160a01b039081168287015260808086015180518316828901526020810151831660a0808a01919091529481015162ffffff1660c08901529283015160020b60e08801529190910151166101008501528201516003811015611f045783602093610220611e658695611ef79561012060019a015262ffffff60c08501511661014086015262ffffff60e08501511661016086015262ffffff6101008501511661018086015262ffffff610120850151166101a086015263ffffffff61018061014086015162ffffff8151166101c089015262ffffff8a820151166101e089015262ffffff60408201511661020089015262ffffff60608201511686890152826080820151166102408901528260a08201511661026089015262ffffff60c08201511661028089015262ffffff60e0820151166102a089015282610100820151166102c089015282610120820151166102e089015261014081015115156103008901528261016082015116610320890152015116610340860152610160840151908581036103608701526060611e54611e42611e328551608086526080860190615573565b8b8601518582038d870152615573565b604085015184820360408601526155aa565b9201519060608184039101526155aa565b9165ffffffffffff610180820151166103808501526101a08101516103a08501526101c081015115156103c085015263ffffffff6101e0820151166103e085015262ffffff6102008201511661040085015201519161042081830391015263ffffffff82511681526040611ee68584015160608785015260608401906155aa565b920151906040818403910152615573565b9701959401920190611148565b634e487b7160e01b61056051526021600452602461056051fd5b82516001600160a01b0316855260209485019490920191600190910190611c55565b909193602060e060019260ff60c08951868060a01b038151168452858101518685015262ffffff6040820151166040850152606081015160020b606085015262ffffff608082015116608085015260a0810151151560a085015201511660c08201520195019101919091611030565b6103c051036121885760018060a01b0361038051166105605152601c602052604061056051206105605160c0525b6103c05160c0511015610d9157611ffd60c0516103c0516103a0516154d3565b905015158061219d575b6121885761201e60c0516103c0516103a0516154d3565b8254600160401b8110156117e25780600161203c9201855584614fd2565b61216c57600160401b82116117e25780548282558083106120ad575b50829061056051526020610560512061056051915b838310612087575050505050600160c0510160c052611fdd565b60036020826120a161209b6001958a6150bd565b86615161565b0192019201919061206d565b600381810204810361191b57600383810204830361191b57816105605152826003026020610560512001610560515b84600302836003020381106120f2575050612058565b6002818301610560518155600181018054905f81558161214f575b5050018054905f815581612126575b50506003016120dc565b5f5260205f205f5b82811061213b575061211c565b806121496001928401615116565b0161212e565b61216591600f915f520160041c60205f2061500b565b5f8061210d565b634e487b7160e01b610560515261056051600452602461056051fd5b63568b2fe160e11b6105605152600461056051fd5b506121b160c0516103c0516103a0516154d3565b9050606060206121c360c05186614ff7565b5101510151511415612007565b8061034051036121885760018060a01b0361038051166105605152601b60205260406105605120610560515b61034051811061220d575050610d88565b61221e8161034051610360516154d3565b9050151580612448575b6121885761223d8161034051610360516154d3565b8354600160401b8110156117e25780600161225b9201865585614fd2565b61216c57600160401b82116117e25780548282558083106123b3575b509180926105605152602061056051209061056051935b8385106122a25750505050506001016121fc565b8035601e1983360301811215611bb45782018035906001600160401b038211611bb4578136036020820113611bb4576122e5826122df87546154ee565b87615526565b6105605190601f831160011461233c579261232083600195946020948796610560519261232f5750508160011b915f199060031b1c19161790565b86555b0193019401939161228e565b8692500101355f806115f0565b601f198316918661056051526020610560512092610560515b818110612399575093602093600196938796938388951061237e575b505050811b018655612323565b018501355f19600384901b60f8161c191690555f8080612371565b919360206001819282888801013581550195019201612355565b816105605152826020610560512001610560515b84830381106123d7575050612277565b8060019183016123e781546154ee565b806123f5575b5050016123c7565b601f8111841461240b57505f90555b5f806123ed565b6105608051839052516020902061242d91601f0160051c5f190190850161500b565b8061056051525f602061056051209155610560519055612404565b5061245a8161034051610360516154d3565b90506060602061246a8488614ff7565b5101510151511415612228565b806101a0510361252f576103805161056080516001600160a01b0392909216909152601a6020525160408120610140819052805460ff191660011790556080525b6101a051608051101561252a576124dc60805160051b6101805101610180516150bd565b6001610140510154600160401b8110156117e25780600161250c9201600161014051015560016101405101614c24565b91909161216c5761251c91615161565b6001608051016080526124b8565b610d7f565b63be49056160e01b6105605152600461056051fd5b806104005103612608576105605160a0525b6104005160a05110156126035760018060a01b0361038051166105605152601e6020526040610560512061259360a05160051b61046051016150b0565b815491600160401b8310156117e257600183018082558310156125e9576105605152602061056051208260051c019160ff8060f885549360031b1693151516831b921b1916179055600160a0510160a052612556565b634e487b7160e01b61056051526032600452602461056051fd5b610d76565b6337d512e760e21b6105605152600461056051fd5b60018060a01b03610380511661056051526015602052604061056051206126448285614ff7565b51815491600160401b8310156117e257600183018082558310156125e9576105605152602061056051209061268d815115156016850284019060ff801983541691151516179055565b60016016840283010160208201519061ffff82511681549063ffff0000602085015160101b169065ffff00000000604086015160201b169265ffffffffffff1916171717905560608101518051906001600160401b0382116117e257600160401b82116117e257601686028501600201805483825560209291612711918591615026565b01600260168702860101610560515260206105605120610560515b8381106130b35750505050608001518051906001600160401b0382116117e25760209061276183600360168902880101615049565b019060036016860285010161056051526020610560512090610560515b8160041c81106130705750600f1981168103928361301d575b50505050604081810151601685028401600481019190915560608301516005820180546001600160a01b03199081166001600160a01b03938416179091556080850151805160068501805490931690841617909155602081015160079093018054948201516001600160b81b0319909516939092169290921760a09390931b62ffffff60a01b169290921782559061284e906060830151815460b89190911b62ffffff60b81b1662ffffff60b81b19909116179055565b608001516016840283016008810180546001600160a01b0319166001600160a01b03939093169290921790915560a08201516009909101906003811015611f0457815463ffffff0060c085015160081b169066ffffff0000000060e086015160201b169062ffffff60381b61010087015160381b169262ffffff60501b61012088015160501b169462ffffff60501b199260ff62ffffff60381b1992169066ffffffffffffff1916171617161717179055600a601684028301016101408201519062ffffff808351161662ffffff1982541617815561294f62ffffff602084015116829065ffffff00000082549160181b169065ffffff0000001916179055565b6040820151815460608085015160808087015160a08089015160c08a015160e08b01516101008c01516601000000000000600160f01b031990991662ffffff60301b60309b909b1b9a909a169990991762ffffff60481b604897881b161763ffffffff60601b9490971b939093169590951763ffffffff60801b9590931b949094169190911762ffffff60a01b9190931b169190911760b89390931b62ffffff60b81b169290921760d09190911b63ffffffff60d01b1617909155610120820151601686028501600b01805461014085015161016080870151610180909701516cffffffffffffffffffffffffff1990931663ffffffff9095169490941790151560201b64ff00000000161760289590951b68ffffffff000000000016949094179390921b6cffffffff0000000000000000001692909217905581015180518051906001600160401b0382116117e257602090612ab483600c60168a02890101615049565b0190600c6016870286010161056051526020610560512090610560515b8160041c8110612fda5750600f19811681039283612f87575b5050505060208101518051906001600160401b0382116117e257602090612b1983600d60168a02890101615049565b0190600d6016870286010161056051526020610560512090610560515b8160041c8110612f445750600f19811681039283612ef1575b5050505060408101518051906001600160401b0382116117e257600160401b82116117e257601686028501600e01805483825560209291612b91918591615026565b01600e60168702860101610560515260206105605120610560515b838110612edd5750505050606001518051906001600160401b0382116117e257600160401b82116117e257601685028401600f01805483825560209291612bf4918591615026565b01600f60168602850101610560515260206105605120610560515b838110612ec957505050506102209060106016850284010165ffffffffffff6101808301511665ffffffffffff198254161790556101a081015160116016860285010155601260168502840101612c796101c08301511515829060ff801983541691151516179055565b6101e0820151815464ffffffff0067ffffff000000000061020086015160281b169260081b169067ffffffffffffff00191617179055015163ffffffff81511663ffffffff601360168602850101911663ffffffff1982541617905560208101518051906001600160401b0382116117e257600160401b82116117e257601685028401601401805483825560209291612d13918591615026565b01601460168602850101610560515260206105605120610560515b838110612eb55750505050604001518051916001600160401b0383116117e25760166020601593612d658686858a02870101615049565b019402010161056051526020610560512090610560515b8160041c8110612e725750600f19811692838203612e1d575b5050505060018060a01b036103805116610560515260176020526040610560512090612dc48161016051614ff7565b518254600160401b8110156117e257600181018085558110156125e9576020600194918592610560515281610560512090831b0192612e1281511515859060ff801983541691151516179055565b015191015501610d65565b610560519384905b8084038210612e3f5750505060041c01555f808080612d95565b9091946020612e6860019261ffff8951169086851b61ffff809160031b9316831b921b19161790565b9601920190612e25565b61056051805b60108110612e8d575083820155600101612d7c565b855190959160019160209161ffff60048a901b81811b199092169216901b1792019501612e78565b600190602084519401938184015501612d2e565b600190602084519401938184015501612c0f565b600190602084519401938184015501612bac565b610560519384905b808210612f115750505060041c01555f808080612b4f565b9091946020612f3a60019261ffff8951169086851b61ffff809160031b9316831b921b19161790565b9601920190612ef9565b61056051805b60108110612f5f575083820155600101612b36565b855190959160019160209161ffff60048a901b81811b199092169216901b1792019501612f4a565b610560519384905b808210612fa75750505060041c01555f808080612aea565b9091946020612fd060019261ffff8951169086851b61ffff809160031b9316831b921b19161790565b9601920190612f8f565b61056051805b60108110612ff5575083820155600101612ad1565b855190959160019160209161ffff60048a901b81811b199092169216901b1792019501612fe0565b610560519384905b80821061303d5750505060041c01555f808080612797565b909194602061306660019261ffff8951169086851b61ffff809160031b9316831b921b19161790565b9601920190613025565b61056051805b6010811061308b57508382015560010161277e565b855190959160019160209161ffff60048a901b81811b199092169216901b1792019501613076565b82516001600160a01b03168183015560209092019160010161272c565b6130e4602461014435013561012435614ce3565b61014435602401356104e052610280511561310b576131069061044051615856565b610d5e565b6104405161310691906001600160a01b0361312b60046101443501614cae565b166159aa565b50610d2361056051610cf2565b50610cca620f4240610cbc6105605193610caf565b50506105605190610c4d565b613176610204610144350161014435600401614f61565b8210156133995760e08202016001600160a01b0361319382614cae565b166105605152601260205260036040610560512054146131b7575b50600101610b73565b610380516001600160a01b038481169116101561338d5761038051602084915b610380516001600160a01b0391821693911683036133665760846001600160a01b0361321461320f60a4356101443560640135615a89565b615b19565b16935b61323560406001600160a01b0361322d89614cae565b169701614fe7565b9462ffffff60405196879586946309f56ab160e11b8652600486015260018060a01b0316602485015216604483015260018060a01b03169586606483015261056051905af190811561332b576004916020916105605191613339575b50604051633850c7bd60e01b815292839182906001600160a01b03165afa90811561332b5761056051916132ea575b506001600160a01b0316036132d5575f6131ae565b630188c99160e11b6105605152600461056051fd5b90506020813d8211613323575b81613304602093836149a6565b81010312611bb457516001600160a01b0381168103611bb4575f6132c0565b3d91506132f7565b6040513d61056051823e3d90fd5b6133599150823d811161335f575b61335181836149a6565b8101906158c9565b5f613291565b503d613347565b60846001600160a01b0361338661320f610144356064013560a435615a89565b1693613217565b610380516020846131d7565b634e487b7160e01b5f52603260045260245ffd5b506003546001600160a01b0316610b54565b610560516133cc916149a6565b610560515f12611bb4575f610ae8565b6016546001600160a01b0316610a31565b633bdab6b560e21b6105605152600461056051fd5b5060a43561018435116109d1565b610300516002036134c757610380516001600160a01b03163b15611bb457604051638a35c56360e01b815260a43560048201526080602482015261347261345d6084830161054051614f3d565b82810360031901604484015261052051614f3d565b60ff6104a0511660648301528180610560519203816105605160018060a01b0361038051165af1801561332b576134aa575b50610aea565b610560516134b7916149a6565b610560515f12611bb4575f6134a4565b610380516001600160a01b03163b15611bb45760405163b68db3d160e01b815260a435600482015260a0602482015261350961345d60a4830161054051614f3d565b6104a05160ff166064830152610440516001600160a01b039081166084840152610560516103805190928492908390039183918591165af1801561332b576134aa5750610aea565b6331a6964d60e21b6105605152600461056051fd5b63cd4e616760e01b6105605152600461056051fd5b6338af65f760e01b6105605152600461056051fd5b51161461094d576338af65f760e01b6105605152600461056051fd5b6382acc16f60e01b6105605152600461056051fd5b636858a31f60e11b6105605152600461056051fd5b63796e63d360e01b6105605152600461056051fd5b60206004916040519283809263313ce56760e01b82525afa90811561332b57610560519161363b575b5060ff6024911611613626575f6108ae565b6329e45b6960e11b6105605152600461056051fd5b90506020813d602011613670575b81613656602093836149a6565b81010312611bb4575160ff81168103611bb45760ff613614565b3d9150613649565b506003546001600160a01b03168114156108a9565b6136a26102a0516102006102e0510151614ff7565b516102c05260018060a01b036102c0515116610560515260126020526040610560512054600381141580613e81575b80613e76575b613e615760038103613e35576102c0515160405163c45a015560e01b815290602090829060049082906001600160a01b03165afa90811561332b576105605191613e17575b50602062ffffff60406102c0510151166024604051809481936322afcccb60e01b8352600483015260018060a01b03165afa90811561332b576105605191613ddc575b5060020b15613dc7575b6137766102a05183614ff7565b519081516137ae575b505061379a62ffffff60806102c0510151166102005161591c565b6102005260016102a051016102a052610885565b60048114159081613dbb575b50613da6576280000062ffffff60406102c05101511603613d91576040810151600a60a435041115613d7c576107d062ffffff60c0830151161015613d67576107d062ffffff610100830151161015613d67576107d062ffffff60e0830151161015613d67576107d062ffffff610120830151161015613d6757602081015161386361385461ffff83511661ffff60208501511690615906565b61ffff60408401511690615906565b606082015151610560519060808401905b808310613d3f5750505061ffff612710911603613d2a576138a962ffffff60c08401511662ffffff610100850151169061591c565b61014083019062ffffff60c0835101911690526138da62ffffff60e08501511662ffffff610120860151169061591c565b62ffffff60e083510191169052805162ffffff60c08201511662ffffff6040830151168111918215613d1a575b5050613cf257805162ffffff60e08201511662ffffff6060830151168111918215613d07575b5050613cf257805162ffffff60648160c063ffffffff60808601511694015116041603613cdd575162ffffff60648160e063ffffffff60a08601511694015116041603613cdd576040015161ffff16613cbc575b6102208101602081510151519060015b828110613c3f575081613bef575b604090510151516001820180921161191b5703613bda57610160015161022052610220515151604061022051015151906001820180921161191b5703613bc557602061022051015151606061022051015151906001820180921161191b5703613bc55760016101c0525b604061022051015180516101c0511015613a76576101c051613a2a91614ff7565b5161022051604001516101c0515f19810190811161191b57613a4b91614ff7565b511015613a625760016101c051016101c052613a09565b6210edd760e61b6105605152600461056051fd5b5060016101e0525b606061022051015180516101e0511015613ad7576101e051613a9f91614ff7565b5161022051606001516101e0515f19810190811161191b57613ac091614ff7565b511015613a625760016101e051016101e052613a7e565b50600160e0525b6102205151805160e0511015613b4d57613afe61ffff9160e05190614ff7565b511661022051515f1960e051019060e051821161191b5761ffff91613b2291614ff7565b51161115613b3857600160e0510160e052613ade565b638c53ea0d60e01b6105605152600461056051fd5b50906001610120525b60206102205101518051610120511015613bbc57613b7b61ffff916101205190614ff7565b511660206102205101515f1961012051019061012051821161191b5761ffff91613ba491614ff7565b51161015613b38576001610120510161012052613b56565b50905f8061377f565b639100d34760e01b6105605152600461056051fd5b634cc0a70960e11b6105605152600461056051fd5b61ffff613c0183604084510151614ff7565b51166040825101515f1984019084821161191b5761ffff91613c2291614ff7565b51161061399f575b6324601ce960e21b6105605152600461056051fd5b613c4e81602084510151614ff7565b518251602001515f198301919083831161191b5782613c6c91614ff7565b511015613ca75761ffff613c9781613c8985604088510151614ff7565b511692604086510151614ff7565b51161015613c2a57600101613991565b630db5e38360e31b6105605152600461056051fd5b600561030051031561398157630cbd438560e31b6105605152600461056051fd5b6328676e4560e11b6105605152600461056051fd5b63ae46b99960e01b6105605152600461056051fd5b6020015162ffffff161190505f8061392d565b5162ffffff161190505f80613907565b6308aca44d60e01b6105605152600461056051fd5b909192613d5e60019161ffff613d56878751614ff7565b511690615906565b93019190613874565b63663885fb60e01b6105605152600461056051fd5b63f10bd44d60e01b6105605152600461056051fd5b631a50f0d160e21b6105605152600461056051fd5b63f06bd7e960e01b6105605152600461056051fd5b600e915014155f6137ba565b63f75ca50b60e01b6105605152600461056051fd5b90506020813d8211613e0f575b81613df6602093836149a6565b81010312611bb457518060020b8103611bb4575f61375f565b3d9150613de9565b613e2f915060203d811161335f5761335181836149a6565b5f61371c565b600481036137695760606102c051015160020b6137695763013840ad60e51b6105605152600461056051fd5b63466d7fef60e01b6105605152600461056051fd5b50600e8114156136d7565b5060048114156136d1565b63cf6ccd9760e01b6105605152600461056051fd5b63a9146eeb60e01b6105605152600461056051fd5b63b06ebf3d60e01b6105605152600461056051fd5b631328927760e21b6105605152600461056051fd5b61056051613eed916149a6565b610560515f12611bb4575f6107bd565b613f166102206104205101516020815191015190614cc2565b90613f37620f4240613f2f62ffffff6008541685615934565b048093614ce3565b90613f4e8260018060a01b03835460101c16615856565b60018060a01b03905460101c166040519182527fb31d5740c93468f40d7cfaf4abee5f8bbf99655d372c474822ccc6a88bf27a5060206105605193a361056051546001600160a01b0316803b15611bb457604491604051928380926311f9fbc960e21b825261056051600483015261056051602483015261056051945af1801561332b57613fdd575b506107bf565b61056051613fea916149a6565b610560515f12611bb4575f613fd7565b50610240516001600160a01b0316156140cc576140266020610220610420510151015161024051615856565b6020610220610420510151015160405190815261056051907f150f14831044e1f4ff2291bff707cab4854442469477ae8f9986538ab3f67096602060018060a01b03610240511692a3610560515461042051610220015151906001600160a01b0316803b15611bb457604491604051928380926311f9fbc960e21b825261056051600483015261056051602483015261056051945af1801561332b57613fdd57506107bf565b60018060a01b036105605154166140f26102206104205101516020810151905190614cc2565b90803b15611bb457604491604051928380926311f9fbc960e21b825261056051600483015261056051602483015261056051945af1801561332b57613fdd57506107bf565b60ff915060081c16155f61066f565b61415361415c9134614ce3565b61044051615856565b5f610660565b62976f7560e21b6105605152600461056051fd5b80341061416257803411614314575b50610124351561066257602460206001600160a01b036141aa60046101443501614cae565b16604051928380926370a0823160e01b82523060048301525afa801561332b5761056051906142e1575b6024915061423a6001600160a01b036141f260046101443501614cae565b6040516323b872dd60e01b6020820152610440516001600160a01b03168682015230604482015261012435606480830191909152815291166142356084836149a6565b615a26565b60206001600160a01b0361425360046101443501614cae565b16604051938480926370a0823160e01b82523060048301525afa91821561332b5761056051926142a7575b5061428d906101243592614ce3565b146106625763bf96dce560e01b6105605152600461056051fd5b9091506020813d6020116142d9575b816142c3602093836149a6565b810103126142d557519061428d61427e565b5f80fd5b3d91506142b6565b506020813d60201161430c575b816142fb602093836149a6565b810103126142d557602490516141d4565b3d91506142ee565b6141536143219134614ce3565b5f614185565b14610280525f8061061f565b5060095460043510156133995760095f526143746004356003027f6e1540171b6c0c960b71a7020d9f60077f6af931a8bbf590da0223dacf75c7af01614c3d565b6102206104205101526040516105605181526143916020826149a6565b602081519101206101006104205101526105ef565b60ff915060081c16155f6105be565b634e487b7160e01b5f52604160045260245ffd5b632af47b8760e11b6105605152600461056051fd5b336104405261033f565b6313d0ff5960e31b5f5260045ffd5b60405162461bcd60e51b815260206004820152601f60248201527f5265656e7472616e637947756172643a207265656e7472616e742063616c6c006044820152606490fd5b6040833603126142d5576040519060408201908282106001600160401b038311176143b557604092602092845261447286614a6f565b815282860135838201528152019201916101ec565b83356001600160401b0381116142d557820190602319823603019161044083126142d557604051926144b884614953565b6144c460248301614a6f565b845260448201356001600160401b0381116142d55760249083010160a0813603126142d557604051906144f68261496f565b6144ff81614a7c565b825261450d60208201614a7c565b602083015261451e60408201614a7c565b604083015260608101356001600160401b0381116142d5576145439036908301614a8b565b60608301526080810135906001600160401b0382116142d55761456891369101614af0565b608082015260208501526064820135604085015261458860848301614a36565b606085015260a0607f198201126142d5576040516145a58161496f565b6145b160a48401614a36565b81526145bf60c48401614a36565b60208201526145d060e48401614b55565b60408201526145e26101048401614b65565b60608201526145f46101248401614a36565b608082015260808501526101448201359060038210156142d5576101a09160a08601526146246101648401614b55565b60c08601526146366101848401614b55565b60e08601526146486101a48401614b55565b61010086015261465b6101c48401614b55565b6101208601526101bf1901126142d5576040516101a081018181106001600160401b038211176143b5576040526146956101e48301614b55565b81526146a46102048301614b55565b60208201526146b66102248301614b55565b60408201526146c86102448301614b55565b60608201526146da6102648301614b73565b60808201526146ec6102848301614b73565b60a08201526146fe6102a48301614b55565b60c08201526147106102c48301614b55565b60e08201526147226102e48301614b73565b6101008201526147356103048301614b73565b6101208201526147486103248301614a6f565b61014082015261475b6103448301614b73565b61016082015261476e6103648301614b73565b6101808201526101408401526103848101356001600160401b0381116142d5576024908201016080813603126142d55760405190608082018281106001600160401b038211176143b55760405280356001600160401b0381116142d5576147d89036908301614af0565b825260208101356001600160401b0381116142d5576147fa9036908301614af0565b602083015260408101356001600160401b0381116142d55761481f9036908301614b84565b60408301526060810135906001600160401b0382116142d55761484491369101614b84565b606082015261016084015261485c6103a48201614be1565b6101808401526103c48101356101a084015261487b6103e48201614a6f565b6101c084015261488e6104048201614b73565b6101e08401526148a16104248201614b55565b6102008401526104448101356001600160401b0381116142d5576024910101906060823603126142d55760405192606084018481106001600160401b038211176143b5576040526148f183614b73565b845260208301356001600160401b0381116142d5576149139036908501614b84565b60208501526040830135936001600160401b0385116142d55761493d602095948695369101614af0565b604082015261022082015281520193019261017a565b61024081019081106001600160401b038211176143b557604052565b60a081019081106001600160401b038211176143b557604052565b61010081019081106001600160401b038211176143b557604052565b90601f801991011681019081106001600160401b038211176143b557604052565b6001600160401b0381116143b557601f01601f191660200190565b9291926149ee826149c7565b916149fc60405193846149a6565b8294818452818301116142d5578281602093845f960137010152565b9080601f830112156142d557816020614a33933591016149e2565b90565b35906001600160a01b03821682036142d557565b359060ff821682036142d557565b6001600160401b0381116143b55760051b60200190565b359081151582036142d557565b359061ffff821682036142d557565b9080601f830112156142d5578135614aa281614a58565b92614ab060405194856149a6565b81845260208085019260051b8201019283116142d557602001905b828210614ad85750505090565b60208091614ae584614a36565b815201910190614acb565b9080601f830112156142d5578135614b0781614a58565b92614b1560405194856149a6565b81845260208085019260051b8201019283116142d557602001905b828210614b3d5750505090565b60208091614b4a84614a7c565b815201910190614b30565b359062ffffff821682036142d557565b35908160020b82036142d557565b359063ffffffff821682036142d557565b9080601f830112156142d5578135614b9b81614a58565b92614ba960405194856149a6565b81845260208085019260051b8201019283116142d557602001905b828210614bd15750505090565b8135815260209182019101614bc4565b359065ffffffffffff821682036142d557565b9181601f840112156142d5578235916001600160401b0383116142d5576020808501948460051b0101116142d557565b8054821015613399575f52600360205f20910201905f90565b90604051614c4a8161498a565b60e060ff600283958054855260018101546020860152015462ffffff8116604085015262ffffff8160181c16606085015262ffffff8160301c16608085015262ffffff8160481c1660a085015262ffffff8160601c1660c085015260781c16910152565b356001600160a01b03811681036142d55790565b91908201809211614ccf57565b634e487b7160e01b5f52601160045260245ffd5b91908203918211614ccf57565b359064ffffffffff821682036142d557565b9190610240838203126142d55760405190614d1c82614953565b8193614d2781614a36565b83526020810135602084015260408101356040840152606081013560608401526080810135608084015260a081013560a084015260c081013560c0840152614d7160e08201614b55565b60e0840152614d836101008201614b55565b610100840152614d966101208201614b55565b610120840152614da96101408201614b55565b610140840152614dbc6101608201614b55565b610160840152614dcf6101808201614cf0565b610180840152614de26101a08201614cf0565b6101a0840152614df56101c08201614a6f565b6101c0840152614e086101e08201614be1565b6101e08401526102008101356001600160401b0381116142d557810182601f820112156142d5578035614e3a81614a58565b91614e4860405193846149a6565b818352602060e08185019302820101908582116142d557602001915b818310614e9c57505050610200840152610220810135916001600160401b0383116142d55761022092614e979201614a18565b910152565b60e0838703126142d5576040519060e08201908282106001600160401b038311176143b55760e092602092604052614ed386614a36565b81528286013583820152614ee960408701614b55565b6040820152614efa60608701614b65565b6060820152614f0b60808701614b55565b6080820152614f1c60a08701614a6f565b60a0820152614f2d60c08701614a4a565b60c0820152815201920191614e64565b805180835260209291819084018484015e5f828201840152601f01601f1916010190565b903590601e19813603018212156142d557018035906001600160401b0382116142d5576020019160e08202360383136142d557565b90602080835192838152019201905f5b818110614fb35750505090565b82516001600160a01b0316845260209384019390920191600101614fa6565b8054821015613399575f5260205f2001905f90565b3562ffffff811681036142d55790565b80518210156133995760209160051b010190565b5f5b82811061501957505050565b5f8282015560010161500d565b9181811061503357505050565b615047925f528060205f200191039061500b565b565b90600160401b81116143b55781549181815582821061506757505050565b600f6150479381840160041c925f52601e8360205f20019460011b1680615095575b500160041c039061500b565b5f198501908154905f199060200360031b1c1690555f615089565b3580151581036142d55790565b903590607e19813603018212156142d5570190565b903590601e19813603018212156142d557018035906001600160401b0382116142d557602001918160051b360383136142d557565b3561ffff811681036142d55790565b8054905f815581615125575050565b81600302916003830403614ccf575f5260205f205f5b82811061514757505050565b805f6002600393850182815582600182015501550161513b565b61517f61516d836150b0565b829060ff801983541691151516179055565b602082013560ff811681036142d55761ff0082549160081b169061ff001916178155600181016151b260408401846150d2565b906001600160401b0382116143b5576151cb8284615049565b915f5260205f208160041c915f5b8381106154875750600f198116900380615434575b50505050600261520491019160608101906150d2565b91600160401b83116143b5578054838255808410615403575b505f9081526020812090929136819003601e190190805b84861061524357505050505050565b8035838112156142d5578201803590601e19813603018212156142d557018035906001600160401b0382116142d55760200160a08202360381136142d557600160401b82116143b55785548287558083106153b1575b505f8681526020812092915b8282106152c2575050505060016020819201940195019492615234565b6001600160a01b036152d382614cae565b85546001600160a01b0319169116178455600184016001600160a01b036152fc60208401614cae565b82546001600160a01b031916911617815561533a61531c60408401614fe7565b825462ffffff60a01b191660a09190911b62ffffff60a01b16178255565b60608201358060020b81036142d557815460b89190911b62ffffff60b81b1662ffffff60b81b199091161790556080810135906001600160a01b03821682036142d55760a060039160019360028801908580851b03166bffffffffffffffffffffffff841b825416179055019401910190926152a5565b80600302906003820403614ccf5782600302600381048403614ccf57875f528060205f20019103905f5b8281106153e9575050615299565b805f600260039385018281558260018201550155016153db565b815f52838060205f20019103905f5b82811061542057505061521d565b8061542e6001928401615116565b01615412565b925f935f5b81811061545157505050015560026152045f806151ee565b909194602061547d60019261546589615107565b9085851b61ffff809160031b9316831b921b19161790565b9601929101615439565b5f5f5b6010811061549f5750838201556001016151d9565b959060206154ca6001926154b285615107565b908a851b61ffff809160031b9316831b921b19161790565b9201960161548a565b90821015613399576154ea9160051b8101906150d2565b9091565b90600182811c9216801561551c575b602083101461550857565b634e487b7160e01b5f52602260045260245ffd5b91607f16916154fd565b91601f821161553457505050565b80821161554057505050565b615047925f5260205f20916020601f830160051c921061556b575b601f82910160051c03910161500b565b5f915061555b565b90602080835192838152019201905f5b8181106155905750505090565b825161ffff16845260209384019390920191600101615583565b90602080835192838152019201905f5b8181106155c75750505090565b82518452602093840193909201916001016155ba565b9035601e19823603018112156142d55701602081359101916001600160401b0382116142d5578160051b360383136142d557565b90602083828152019260208260051b82010193835f925b8484106156385750505050505090565b909192939495601f198282030184528635607e19843603018112156142d557830190608081019161566881614a6f565b1515825260ff61567a60208301614a4a565b16602083015261568d60408201826155dd565b608060408501529384905260a08301935f905b808210615804575050508060606156b89201906155dd565b90916060818503910152808352602083019060208160051b85010193835f90601e19813603015b84831061570357505050505050506020806001929801940194019294939190615628565b90919293949596601f198582030187528735828112156142d557830160208201908035601e19823603018112156142d5570190602082359201926001600160401b0383116142d55760a08302360384136142d5578260409260208352520191905f905b808210615787575050506020806001929901970193019190949392946156df565b90919260a0806001928380831b0361579e88614a36565b1681528380831b036157b260208901614a36565b16602082015262ffffff6157c860408901614b55565b1660408201526157da60608801614b65565b60020b60608201528380831b036157f360808901614a36565b166080820152019401920190615766565b90919460208060019261ffff6158198a614a7c565b1681520196019201906156a0565b3d15615851573d90615838826149c7565b9161584660405193846149a6565b82523d5f602084013e565b606090565b81156158c5576001600160a01b0316905f80808084865af1615876615827565b5015615880575050565b60207f15037fdbcf9999d2f250620f39c029ca732e68e0561907aa9083b4fa6a86e46c91835f52601d825260405f206158ba828254614cc2565b9055604051908152a2565b5050565b908160209103126142d557516001600160a01b03811681036142d55790565b81156158f2570490565b634e487b7160e01b5f52601260045260245ffd5b9061ffff8091169116019061ffff8211614ccf57565b9062ffffff8091169116019062ffffff8211614ccf57565b90811580156159a2575b61599c5761594f81830292836158e8565b036159575790565b60405162461bcd60e51b815260206004820152601d60248201527f4d6174683a206d756c7469706c69636174696f6e206f766572666c6f770000006044820152606490fd5b50505f90565b50801561593e565b60405163a9059cbb60e01b60208201526001600160a01b039092166024830152604480830193909352918152615047916142356064836149a6565b91909182158015615a1e575b615a1757615a02615a089282615934565b92614cc2565b801561599c57614a33916158e8565b5050505f90565b5081156159f1565b905f602091828151910182855af115615a7e575f513d615a7557506001600160a01b0381163b155b615a555750565b635274afe760e01b5f9081526001600160a01b0391909116600452602490fd5b60011415615a4e565b6040513d5f823e3d90fd5b5f19600160c01b8209918160c01b91828085109403938085039414615b0c57838211156142d5578190600160c01b9009816001811901168092046002816003021880820260020302808202600203028082026002030280820260020302808202600203028091026002030293600183805f03040190848311900302920304170290565b50809250156142d5570490565b6001811115614a3357806001600160801b821015615c2a575b600482600160401b615bdc941015615c1d575b640100000000811015615c10575b62010000811015615c03575b610100811015615bf7575b6010811015615beb575b1015615be3575b60030260011c615b8b81846158e8565b0160011c615b9981846158e8565b0160011c615ba781846158e8565b0160011c615bb581846158e8565b0160011c615bc381846158e8565b0160011c615bd181846158e8565b0160011c80926158e8565b8111900390565b60011b615b7b565b811c9160021b91615b74565b60081c91811b91615b6a565b60101c9160081b91615b5f565b60201c9160101b91615b53565b60401c9160201b91615b45565b5050608081901c600160401b615b3256fea264697066735822122079b0394d53db3a19989c622ecd9f5707ab6d3bc68f0ea4ce53307943eed3f88c64736f6c63430008240033",
  "linkReferences": {},
  "deployedLinkReferences": {}
}