{
  "_format": "hh-sol-artifact-1",
  "contractName": "FlashLaunchForV3Facet",
  "sourceName": "contracts/Meme/facets/FlashLaunchForV3Facet.sol",
  "abi": [
    {
      "inputs": [],
      "name": "Create2EmptyBytecode",
      "type": "error"
    },
    {
      "inputs": [],
      "name": "FailedDeployment",
      "type": "error"
    },
    {
      "inputs": [
        {
          "internalType": "uint256",
          "name": "balance",
          "type": "uint256"
        },
        {
          "internalType": "uint256",
          "name": "needed",
          "type": "uint256"
        }
      ],
      "name": "InsufficientBalance",
      "type": "error"
    },
    {
      "inputs": [],
      "name": "InsufficientOutput",
      "type": "error"
    },
    {
      "inputs": [],
      "name": "InvalidDecimals",
      "type": "error"
    },
    {
      "inputs": [],
      "name": "InvalidDistributedTokenAmount",
      "type": "error"
    },
    {
      "inputs": [],
      "name": "InvalidDistributionInputLengths",
      "type": "error"
    },
    {
      "inputs": [],
      "name": "InvalidMaxTx",
      "type": "error"
    },
    {
      "inputs": [],
      "name": "InvalidMaxWallet",
      "type": "error"
    },
    {
      "inputs": [],
      "name": "InvalidPositionManager",
      "type": "error"
    },
    {
      "inputs": [],
      "name": "InvalidTickSpacing",
      "type": "error"
    },
    {
      "inputs": [],
      "name": "InvalidTotalSupply",
      "type": "error"
    },
    {
      "inputs": [],
      "name": "InvalidVersion",
      "type": "error"
    },
    {
      "inputs": [],
      "name": "InvalidVirtualEth",
      "type": "error"
    },
    {
      "inputs": [],
      "name": "Paused",
      "type": "error"
    },
    {
      "inputs": [],
      "name": "PoolAlreadyExists",
      "type": "error"
    },
    {
      "inputs": [
        {
          "internalType": "address",
          "name": "token",
          "type": "address"
        }
      ],
      "name": "SafeERC20FailedOperation",
      "type": "error"
    },
    {
      "anonymous": false,
      "inputs": [
        {
          "indexed": true,
          "internalType": "address",
          "name": "token",
          "type": "address"
        },
        {
          "indexed": false,
          "internalType": "address[]",
          "name": "wallets",
          "type": "address[]"
        },
        {
          "indexed": false,
          "internalType": "uint256[]",
          "name": "amounts",
          "type": "uint256[]"
        },
        {
          "indexed": false,
          "internalType": "uint256",
          "name": "initialBuyAmount",
          "type": "uint256"
        },
        {
          "indexed": false,
          "internalType": "uint256",
          "name": "distributedTokenAmount",
          "type": "uint256"
        }
      ],
      "name": "FlashLaunchV3InitialBuyDistributed",
      "type": "event"
    },
    {
      "anonymous": false,
      "inputs": [
        {
          "indexed": false,
          "internalType": "address",
          "name": "token",
          "type": "address"
        },
        {
          "components": [
            {
              "internalType": "address",
              "name": "positionManager",
              "type": "address"
            },
            {
              "internalType": "uint24",
              "name": "feeTier",
              "type": "uint24"
            },
            {
              "internalType": "uint8",
              "name": "decimals",
              "type": "uint8"
            },
            {
              "internalType": "bool",
              "name": "isTokenBurn",
              "type": "bool"
            },
            {
              "internalType": "uint8",
              "name": "_padding1",
              "type": "uint8"
            },
            {
              "internalType": "uint256",
              "name": "virtualEth",
              "type": "uint256"
            },
            {
              "internalType": "uint256",
              "name": "totalSupply",
              "type": "uint256"
            },
            {
              "internalType": "address",
              "name": "baseToken",
              "type": "address"
            },
            {
              "internalType": "uint8",
              "name": "_padding2",
              "type": "uint8"
            },
            {
              "internalType": "uint256",
              "name": "maxWalletAmount",
              "type": "uint256"
            },
            {
              "internalType": "uint256",
              "name": "maxTxAmount",
              "type": "uint256"
            },
            {
              "internalType": "uint256",
              "name": "protectBlocks",
              "type": "uint256"
            },
            {
              "internalType": "uint160",
              "name": "sqrtPriceX96_1",
              "type": "uint160"
            },
            {
              "internalType": "uint8",
              "name": "_padding3",
              "type": "uint8"
            },
            {
              "internalType": "uint160",
              "name": "sqrtPriceX96_2",
              "type": "uint160"
            },
            {
              "internalType": "uint8",
              "name": "_padding4",
              "type": "uint8"
            },
            {
              "internalType": "int24",
              "name": "tickLower_1",
              "type": "int24"
            },
            {
              "internalType": "int24",
              "name": "tickUpper_1",
              "type": "int24"
            },
            {
              "internalType": "int24",
              "name": "tickLower_2",
              "type": "int24"
            },
            {
              "internalType": "int24",
              "name": "tickUpper_2",
              "type": "int24"
            },
            {
              "internalType": "uint8",
              "name": "_padding5",
              "type": "uint8"
            }
          ],
          "indexed": false,
          "internalType": "struct FlashLaunchV3PoolInitialData",
          "name": "poolInitialData",
          "type": "tuple"
        },
        {
          "components": [
            {
              "internalType": "address",
              "name": "owner",
              "type": "address"
            },
            {
              "internalType": "bool",
              "name": "isTokenBurn",
              "type": "bool"
            },
            {
              "internalType": "uint8",
              "name": "_padding1",
              "type": "uint8"
            },
            {
              "internalType": "bytes32",
              "name": "subBoard",
              "type": "bytes32"
            },
            {
              "internalType": "string",
              "name": "metaData",
              "type": "string"
            },
            {
              "internalType": "address",
              "name": "positionManager",
              "type": "address"
            },
            {
              "internalType": "uint8",
              "name": "_padding2",
              "type": "uint8"
            },
            {
              "internalType": "uint256",
              "name": "poolId",
              "type": "uint256"
            },
            {
              "internalType": "address",
              "name": "pool",
              "type": "address"
            }
          ],
          "indexed": false,
          "internalType": "struct FlashLaunchV3PoolData",
          "name": "flashLaunchV3Pool",
          "type": "tuple"
        }
      ],
      "name": "FlashLaunchV3TokenCreated",
      "type": "event"
    },
    {
      "anonymous": false,
      "inputs": [
        {
          "indexed": true,
          "internalType": "address",
          "name": "memeOwner",
          "type": "address"
        },
        {
          "indexed": true,
          "internalType": "address",
          "name": "token",
          "type": "address"
        },
        {
          "indexed": false,
          "internalType": "uint256",
          "name": "amount",
          "type": "uint256"
        }
      ],
      "name": "MemeOwnerFeeCollected",
      "type": "event"
    },
    {
      "anonymous": false,
      "inputs": [
        {
          "indexed": true,
          "internalType": "address",
          "name": "to",
          "type": "address"
        },
        {
          "indexed": false,
          "internalType": "uint256",
          "name": "amount",
          "type": "uint256"
        }
      ],
      "name": "PaymentOwed",
      "type": "event"
    },
    {
      "anonymous": false,
      "inputs": [
        {
          "indexed": true,
          "internalType": "address",
          "name": "referrer",
          "type": "address"
        },
        {
          "indexed": true,
          "internalType": "address",
          "name": "token",
          "type": "address"
        },
        {
          "indexed": false,
          "internalType": "uint256",
          "name": "amount",
          "type": "uint256"
        }
      ],
      "name": "ReferralFeeCollected",
      "type": "event"
    },
    {
      "anonymous": false,
      "inputs": [
        {
          "indexed": true,
          "internalType": "address",
          "name": "subBoardOwner",
          "type": "address"
        },
        {
          "indexed": true,
          "internalType": "address",
          "name": "token",
          "type": "address"
        },
        {
          "indexed": false,
          "internalType": "uint256",
          "name": "amount",
          "type": "uint256"
        }
      ],
      "name": "SubBoardFeeCollected",
      "type": "event"
    },
    {
      "inputs": [
        {
          "internalType": "string",
          "name": "name",
          "type": "string"
        },
        {
          "internalType": "string",
          "name": "symbol",
          "type": "string"
        },
        {
          "internalType": "string",
          "name": "metaData",
          "type": "string"
        },
        {
          "internalType": "uint256",
          "name": "initialBuyAmount",
          "type": "uint256"
        },
        {
          "components": [
            {
              "internalType": "address",
              "name": "positionManager",
              "type": "address"
            },
            {
              "internalType": "uint24",
              "name": "feeTier",
              "type": "uint24"
            },
            {
              "internalType": "uint8",
              "name": "decimals",
              "type": "uint8"
            },
            {
              "internalType": "bool",
              "name": "isTokenBurn",
              "type": "bool"
            },
            {
              "internalType": "uint8",
              "name": "_padding1",
              "type": "uint8"
            },
            {
              "internalType": "uint256",
              "name": "virtualEth",
              "type": "uint256"
            },
            {
              "internalType": "uint256",
              "name": "totalSupply",
              "type": "uint256"
            },
            {
              "internalType": "address",
              "name": "baseToken",
              "type": "address"
            },
            {
              "internalType": "uint8",
              "name": "_padding2",
              "type": "uint8"
            },
            {
              "internalType": "uint256",
              "name": "maxWalletAmount",
              "type": "uint256"
            },
            {
              "internalType": "uint256",
              "name": "maxTxAmount",
              "type": "uint256"
            },
            {
              "internalType": "uint256",
              "name": "protectBlocks",
              "type": "uint256"
            },
            {
              "internalType": "uint160",
              "name": "sqrtPriceX96_1",
              "type": "uint160"
            },
            {
              "internalType": "uint8",
              "name": "_padding3",
              "type": "uint8"
            },
            {
              "internalType": "uint160",
              "name": "sqrtPriceX96_2",
              "type": "uint160"
            },
            {
              "internalType": "uint8",
              "name": "_padding4",
              "type": "uint8"
            },
            {
              "internalType": "int24",
              "name": "tickLower_1",
              "type": "int24"
            },
            {
              "internalType": "int24",
              "name": "tickUpper_1",
              "type": "int24"
            },
            {
              "internalType": "int24",
              "name": "tickLower_2",
              "type": "int24"
            },
            {
              "internalType": "int24",
              "name": "tickUpper_2",
              "type": "int24"
            },
            {
              "internalType": "uint8",
              "name": "_padding5",
              "type": "uint8"
            }
          ],
          "internalType": "struct FlashLaunchV3PoolInitialData",
          "name": "poolInitialData",
          "type": "tuple"
        },
        {
          "internalType": "string",
          "name": "subBoardTitle",
          "type": "string"
        },
        {
          "internalType": "bytes",
          "name": "initCode",
          "type": "bytes"
        },
        {
          "internalType": "bytes32",
          "name": "salt",
          "type": "bytes32"
        },
        {
          "internalType": "address[]",
          "name": "distributionWallets",
          "type": "address[]"
        },
        {
          "internalType": "uint256[]",
          "name": "distributionAmounts",
          "type": "uint256[]"
        }
      ],
      "name": "customFlashLaunchV3",
      "outputs": [
        {
          "internalType": "address",
          "name": "coin_address",
          "type": "address"
        }
      ],
      "stateMutability": "payable",
      "type": "function"
    }
  ],
  "bytecode": "0x60808060405234601557612c69908161001a8239f35b5f80fdfe6101606040526004361015610012575f80fd5b5f610140525f3560e01c631c1ef1a11461002a575f80fd5b6103c03660031901126116d5576004356001600160401b0381116116d5576100569036906004016125ff565b6024356001600160401b0381116116d5576100759036906004016125ff565b6044356001600160401b0381116116d5576100949036906004016125ff565b9060c052936102a06083193601126116d5576104006040526084356001600160a01b03811681036116d5576101605260a43562ffffff811681036116d5576101805260c43560ff811681036116d5576101a05260e43580151581036116d5576101c0526101043560ff811681036116d5576101e05261012435610200526101443561022052610164356001600160a01b03811681036116d557610240526101843560ff811681036116d557610260526101a435610280526101c4356102a0526101e4356102c052610204356001600160a01b03811681036116d5576102e0526102243560ff811681036116d55761030052610244356001600160a01b03811681036116d557610320526102643560ff811681036116d5576103405261028435600281900b81036116d557610360526102a435600281900b81036116d557610380526102c435600281900b81036116d5576103a0526102e435600281900b81036116d5576103c0526103043560ff811681036116d5576103e052610324356001600160401b0381116116d557366023820112156116d55761023e903690602481600401359101612684565b610344356001600160401b0381116116d557366023820112156116d55761026f903690602481600401359101612684565b61038435956001600160401b0387116116d557366023880112156116d557866004013561029b816126c9565b976102a9604051998a612663565b818952602460208a0192836101005260051b820101903682116116d557602401915b8183106125cb575050506001600160401b036103a435116116d5573660236103a4350112156116d5576103a4356004013593610306856126c9565b936103146040519586612663565b8585526020850195863660248360051b6103a4350101116116d55760246103a43501905b60248360051b6103a435010182106125bb5750505060016005541461257657600160055560ff60065416612567576040516103926020828180820195805191829101875e81015f838201520301601f198101835282612663565b519020610160516001600160a01b039081166080819052610240515f9182527f3a59990e08c4a836db25a291e51ebf3cfceafcacf3419227ff6a9d3910d749e4602052604090912090821699929892919054169480511561255857805161036435916020015ff5610120523d151961012051151661252357610120516001600160a01b03161561254957610120513f5f52600d60205260ff60405f20541660038114908115908161253d575b5061252e571561247b576101a051610220516102a0516102c0516101205160ff90941696909591949293909291906001600160a01b03163b1561199257604051630857b1b760e11b815260e06004820152976104b4936104a29160e48b01916126e0565b8881036003190160248a0152916126e0565b936044860152606485015233608485015260a484015260c48301528180610140519203816101405160018060a01b0361012051165af180156116e157612460575b505b1561244b576040519463c45a015560e01b86526020866004816080515afa9586156116e157610140519661242a575b50610180516040516322afcccb60e01b815262ffffff909116600482015295602090879060249082906001600160a01b03165afa9586156116e15761014051966123ec575b50610140518660020b13156123d75761020051156123c35761022051156123ae576101a05160ff1615612399576102805115612384576102a0511561236f5784612368576003546001600160a01b0316955b610120516001600160a01b03888116911610156123445761020051610220516001600160a01b03916105f7916105f2916127b8565b612852565b165b6001600160a01b0381166102e08190526401000276a311158061231e575b156122f557640100000000600160c01b038160201b16806001600160801b03811160071b90811c6001600160401b03811160061b90811c63ffffffff811160051b90811c61ffff811160041b90811c9060ff821160031b91821c92600f841160021b93841c94600160038711811b96871c1196171717171717179060808210155f146122e15781607e1981011161168f57607e1982011c5b607f19820191821360011661168f57800280607f1c8160ff1c1c800280607f1c8160ff1c1c800280607f1c8160ff1c1c800280607f1c8160ff1c1c800280607f1c8160ff1c1c800280607f1c8160ff1c1c80029081607f1c8260ff1c1c80029283607f1c8460ff1c1c80029485607f1c8660ff1c1c80029687607f1c8860ff1c1c80029889607f1c8a60ff1c1c80029a8b607f1c8c60ff1c1c80029c8d80607f1c9060ff1c1c800260cd1c6604000000000000169d60cc1c6608000000000000169c60cb1c6610000000000000169b60ca1c6620000000000000169a60c91c6640000000000000169960c81c6680000000000000169860c71c670100000000000000169760c61c670200000000000000169660c51c670400000000000000169560c41c670800000000000000169460c31c671000000000000000169360c21c672000000000000000169260c11c674000000000000000169160c01c678000000000000000169060401b17171717171717171717171717179081693627a301d71055774c85810205693627a301d71055774c85148215171561168f57693627a301d71055774c8582026f028f6481ab7f045a5af012a19d003aa9198101919060019083131661168f576fdb2df09e81959a81455e260799a0632f80693627a301d71055774c858502011261014051693627a301d71055774c8585021290801582169115161761168f5761014051506fdb2df09e81959a81455e260799a0632f693627a301d71055774c8584020160801d60020b8260801d60020b145f14611ad75750905060801d60020b5b610120516001600160a01b0389811691161015611ab4576109238261091e818461271f565b612769565b60020b61036052610120516001600160a01b0389811691161015611aa15750600281900b15611a875761095f90600281900b620d89e805612769565b60020b61038052610120516001600160a01b0387811691161015611a805761012051945b6101405160e052610120516001600160a01b0388811691161015611a74578660e0525b610160516001600160a01b0390811660a0526101205188821691161015611a6a5761022051965b610120516001600160a01b0391821691161015611a6157610140515b87611a44575b80611a25575b60405163c45a015560e01b815260208160048160a0515afa9081156116e1576101405191611a06575b5061018051604051630b4c774160e11b81526001600160a01b038a8116600483015260e0518116602483015262ffffff90921660448201529160209183916064918391165afa9081156116e15761014051916119e7575b506001600160a01b03166119d257610180516102e0516040516309f56ab160e11b81526001600160a01b038a8116600483015260e0518116602483015262ffffff9093166044820152911660648201526101405160a0519199916020918b9160849183915af19889156116e15761014051996119a1575b5062ffffff6020610160015116610200610160015160020b610220610160015160020b916040519a8b6001600160401b036101608281810110920111176112d6576101608c0160405260018060a01b03168b5260018060a01b0360e0511660208c015260408b015260608a0152608089015260a088015260c08701526101405160e087015261014051610100870152306101208701524261014087015261014060405196634418b22b60e11b885260018060a01b03815116600489015260018060a01b03602082015116602489015262ffffff6040820151166044890152606081015160020b6064890152608081015160020b608489015260a081015160a489015260c081015160c489015260e081015160e489015261010081015161010489015260018060a01b03610120820151166101248901520151610144870152608086610164816101405160a0515af19586156116e1576101405196611951575b5061194957345b8151835103611934578061134b575b505050507f3a59990e08c4a836db25a291e51ebf3cfceafcacf3419227ff6a9d3910d749f054600160401b8110156112d65760018101807f3a59990e08c4a836db25a291e51ebf3cfceafcacf3419227ff6a9d3910d749f055811015611331577f3a59990e08c4a836db25a291e51ebf3cfceafcacf3419227ff6a9d3910d749f06101405152602061014051200160018060a01b0361012051166bffffffffffffffffffffffff60a01b825416179055806101405152600f60205260ff60406101405120541680611311575b156112f0575b6060610160015115159360405193846101208101106001600160401b03610120870111176112d657610120850160405233855260208501958652610d8c604086019261014051845260608701948552369060c051612684565b60808681019182525160a08701526101405160c087015260e08601949094526001600160a01b0390811661010086015261012051165f9081527f3a59990e08c4a836db25a291e51ebf3cfceafcacf3419227ff6a9d3910d749ef6020526040902084518154965192516001600160b01b03199097166001600160a01b03919091161791151560a01b60ff60a01b169190911760a89590951b60ff60a81b16949094178455516001840155518051906001600160401b0382116112d657610e556002850154612780565b601f8111611276575b506020906001601f8411146111ff579180916005949361014051926111f4575b50508160011b915f199060031b1c19161760028401555b60a08181015160038501805460c08501516001600160a81b03199091166001600160a01b0393841617931b60ff60a01b169290921790915560e08201516004850155610100909101519190920180546001600160a01b03191691831691909117905561012051165f9081527f3a59990e08c4a836db25a291e51ebf3cfceafcacf3419227ff6a9d3910d749ef6020526040902060405160018060a01b036101205116815260018060a01b036101605116602082015262ffffff6020610160015116604082015260ff60406101600151166060820152606061016001511515608082015260ff608061016001511660a082015260a0610160015160c082015260c0610160015160e082015260018060a01b0360e061016001511661010082015260ff6101006101600151166101208201526101206101600151610140820152610140610160015161016082015261016080015161018082015260018060a01b036101806101600151166101a082015260ff6101a06101600151166101c082015260018060a01b036101c06101600151166101e082015260ff6101e0610160015116610200820152610200610160015160020b610220820152610220610160015160020b610240820152610240610160015160020b610260820152610260610160015160020b61028082015260ff6102806101600151166102a08201526102e06102c082015260ff825460018060a01b0381166102e0840152818160a01c16151561030084015260a81c1661032082015260018201546103408201526002820161012061036083015261014051908054906110ed82612780565b91826104008601526001811690815f146111ce575060011461118a575b60038501546001600160a01b0380821661038087015260a09190911c60ff166103a086015260048601546103c08601526005860154166103e08501527f3ee0004261ca22b44b1ac2b55c5c0c7c06742db6d9fe4fd86a65bd9834d96f5f84840385a161014051600555604051610120516001600160a01b03168152602090f35b9091506101405152602061014051209061014051915b8183106111b6575050810161042001828261110a565b805461042084860101526020909201916001016111a0565b60ff19166104208087019190915292151560051b8501909201925084915083905061110a565b015190505f80610e7e565b9060028501610140515280610140512091610140515b601f198516811061125e575091839160019360059695601f19811610611246575b505050811b016002840155610e95565b01515f1960f88460031b161c191690555f8080611236565b91926020600181928685015181550194019201611215565b82811115610e5e5760028501610140515260206101405120601f840160051c602085106112cc575b610140515b81601f850160051c0381106112ba57505050610e5e565b610140518383018201556001016112a3565b506101405161129e565b634e487b7160e01b61014051526041600452602461014051fd5b50604051610140518152611305602082612663565b60208151910120610d33565b50806101405152600f60205260ff604061014051205460081c1615610d2d565b634e487b7160e01b61014051526032600452602461014051fd5b610160516001600160a01b039081165f9081527f3a59990e08c4a836db25a291e51ebf3cfceafcacf3419227ff6a9d3910d749e460205260409020541660018060a01b0360e061016001511661014051508161014051527f3a59990e08c4a836db25a291e51ebf3cfceafcacf3419227ff6a9d3910d749f160205260ff60406101405120541691604051916370a0823160e01b835230600484015260208360248160018060a01b0361012051165afa9384156116e157859361014051956118fd575b50156117e2578061171e57506003546101805160405160209361149b93909262ffffff16906001600160a01b031661144483612647565b825260018060a01b0361012051168583015260408201523060608201524260808201528460a08201526101405160c08201526101405160e082015260405194858094819363414bf38960e01b8352600483016129f1565b03925af180156116e1576116ef575b505b604051906370a0823160e01b825230600483015260208260248160018060a01b0361012051165afa80156116e15761014051906116a9575b6114ee9250612977565b61014051835190939190845b818110611618575050808411611603578361151491612977565b806115e4575b50604051936080850191608086525180925260a08501916101005190610140515b8181106115c557505050602090858303828701525191828152019490610140515b8181106115af5750505060408301526060820152610120516001600160a01b0316917fc5c73f553541b580b97f9dc4ad97ec2da66e5f4d7962ec314f7d775bbc6d5f4f919081900390a25f808080610c61565b825187526020968701969092019160010161155c565b82516001600160a01b031685526020948501949092019160010161153b565b610120516115fd919033906001600160a01b0316612bf7565b5f61151a565b630777285960e41b6101405152600461014051fd5b6116228188612b77565b5180611632575b506001016114fa565b80840290848204148415171561168f578561164c91612848565b801561162957909560019161168891611683826001600160a01b036116718c8b612b77565b5116868060a01b036101205116612bf7565b612a5a565b9590611629565b634e487b7160e01b61014051526011600452602461014051fd5b506020823d6020116116d9575b816116c360209383612663565b810103126116d5576114ee91516114e4565b5f80fd5b3d91506116b6565b6040513d61014051823e3d90fd5b6117109060203d602011611717575b6117088183612663565b810190612984565b505f6114aa565b503d6116fe565b6020916117306117a994303385612b33565b61173b868284612a67565b62ffffff836101600151166040519261175384612647565b835260018060a01b0361012051168484015260408301523060608301524260808301528560a08301526101405160c08301526101405160e0830152604051808095819463414bf38960e01b8352600483016129f1565b039161014051905af180156116e1576117c3575b506114ac565b6117db9060203d602011611717576117088183612663565b505f6117bd565b8061187857506003546101805160405160209361186493909262ffffff16906001600160a01b03166118138361262c565b825260018060a01b0361012051168583015260408201523060608201528460808201526101405160a08201526101405160c08201526040519485809481936304e45aaf60e01b835260048301612993565b03925af180156116e1576117c357506114ac565b60209161188a6117a994303385612b33565b611895868284612a67565b62ffffff83610160015116604051926118ad8461262c565b835260018060a01b0361012051168484015260408301523060608301528560808301526101405160a08301526101405160c083015260405180809581946304e45aaf60e01b835260048301612993565b935093506020833d60201161192c575b8161191a60209383612663565b810103126116d557849251935f61140d565b3d915061190d565b6384a84c3760e01b6101405152600461014051fd5b606435610c52565b9095506080813d608011611999575b8161196d60809383612663565b8101031261199257602081519101516001600160801b0381160361199257945f610c4b565b6101405180fd5b3d9150611960565b6119c491995060203d6020116119cb575b6119bc8183612663565b810190612700565b975f610aec565b503d6119b2565b630188c99160e11b6101405152600461014051fd5b611a00915060203d6020116119cb576119bc8183612663565b5f610a75565b611a1f915060203d6020116119cb576119bc8183612663565b5f610a1e565b60a05160e051611a3f9183916001600160a01b0316612a67565b6109f5565b60a051611a5c9089906001600160a01b038a16612a67565b6109ef565b610220516109e9565b61014051966109cd565b6101205160e0526109a6565b8594610983565b634e487b7160e01b61014051526012600452602461014051fd5b9061091e81611aaf9361271f565b61095f565b600282900b15611a8757611ad282600281900b620d89e71905612769565b610923565b61014051693627a301d71055774c8584026fdb2df09e81959a81455e260799a0632f0160801d60020b12156122b657693627a301d71055774c8583026fdb2df09e81959a81455e260799a0632f0160801d60020b600160ff1b1461168f576fdb2df09e81959a81455e260799a0632f693627a301d71055774c8584020160801d60020b6101405103905b620d89e8821161228d57600182161561227b576001600160881b036ffffcb933bd6fad37aa2d162d1a5940015b169160028116612230575b600481166121e5575b6008811661219a575b6010811661214f575b60208116612104575b604081166120b9575b6080811661206e575b6101008116612023575b6102008116611fd8575b6104008116611f8d575b6108008116611f42575b6110008116611ef7575b6120008116611eac575b6140008116611e61575b6180008116611e16575b620100008116611dcb575b620200008116611d83575b620400008116611d3e575b6208000016611cff575b610140516fdb2df09e81959a81455e260799a0632f693627a301d71055774c8586020160801d60020b13611cef575b63ffffffff8216611ce457611ca761014051915b6001600160a01b0390811693909260ff169060201c612a5a565b1611611cd75750693627a301d71055774c85026fdb2df09e81959a81455e260799a0632f0160801d60020b6108f9565b905060801d60020b6108f9565b611ca7600191611c8d565b908015611a87575f190490611c79565b90806b048a170391f7dc42444e8fa28102046b048a170391f7dc42444e8fa2148115171561168f576b048a170391f7dc42444e8fa20260801c90611c4a565b91806d2216e584f5fa1ea926041bedfe988102046d2216e584f5fa1ea926041bedfe98148115171561168f576d2216e584f5fa1ea926041bedfe980260801c91611c40565b91806e5d6af8dedb81196699c329225ee6048102046e5d6af8dedb81196699c329225ee604148115171561168f576e5d6af8dedb81196699c329225ee6040260801c91611c35565b91806f09aa508b5b7a84e1c677de54f3e99bc98102046f09aa508b5b7a84e1c677de54f3e99bc9148115171561168f576f09aa508b5b7a84e1c677de54f3e99bc90260801c91611c2a565b91806f31be135f97d08fd981231505542fcfa68102046f31be135f97d08fd981231505542fcfa6148115171561168f576f31be135f97d08fd981231505542fcfa60260801c91611c1f565b91806f70d869a156d2a1b890bb3df62baf32f78102046f70d869a156d2a1b890bb3df62baf32f7148115171561168f576f70d869a156d2a1b890bb3df62baf32f70260801c91611c15565b91806fa9f746462d870fdf8a65dc1f90e061e58102046fa9f746462d870fdf8a65dc1f90e061e5148115171561168f576fa9f746462d870fdf8a65dc1f90e061e50260801c91611c0b565b91806fd097f3bdfd2022b8845ad8f792aa58258102046fd097f3bdfd2022b8845ad8f792aa5825148115171561168f576fd097f3bdfd2022b8845ad8f792aa58250260801c91611c01565b91806fe7159475a2c29b7443b29c7fa6e889d98102046fe7159475a2c29b7443b29c7fa6e889d9148115171561168f576fe7159475a2c29b7443b29c7fa6e889d90260801c91611bf7565b91806ff3392b0822b70005940c7a398e4b70f38102046ff3392b0822b70005940c7a398e4b70f3148115171561168f576ff3392b0822b70005940c7a398e4b70f30260801c91611bed565b91806ff987a7253ac413176f2b074cf7815e548102046ff987a7253ac413176f2b074cf7815e54148115171561168f576ff987a7253ac413176f2b074cf7815e540260801c91611be3565b91806ffcbe86c7900a88aedcffc83b479aa3a48102046ffcbe86c7900a88aedcffc83b479aa3a4148115171561168f576ffcbe86c7900a88aedcffc83b479aa3a40260801c91611bd9565b91806ffe5dee046a99a2a811c461f1969c30538102046ffe5dee046a99a2a811c461f1969c3053148115171561168f576ffe5dee046a99a2a811c461f1969c30530260801c91611bcf565b91806fff2ea16466c96a3843ec78b326b528618102046fff2ea16466c96a3843ec78b326b52861148115171561168f576fff2ea16466c96a3843ec78b326b528610260801c91611bc6565b91806fff973b41fa98c081472e6896dfb254c08102046fff973b41fa98c081472e6896dfb254c0148115171561168f576fff973b41fa98c081472e6896dfb254c00260801c91611bbd565b91806fffcb9843d60f6159c9db58835c9266448102046fffcb9843d60f6159c9db58835c926644148115171561168f576fffcb9843d60f6159c9db58835c9266440260801c91611bb4565b91806fffe5caca7e10e4e61c3624eaa0941cd08102046fffe5caca7e10e4e61c3624eaa0941cd0148115171561168f576fffe5caca7e10e4e61c3624eaa0941cd00260801c91611bab565b91806ffff2e50f5f656932ef12357cf3c7fdcc8102046ffff2e50f5f656932ef12357cf3c7fdcc148115171561168f576ffff2e50f5f656932ef12357cf3c7fdcc0260801c91611ba2565b91806ffff97272373d413259a46990580e213a8102046ffff97272373d413259a46990580e213a148115171561168f576ffff97272373d413259a46990580e213a0260801c91611b99565b6001600160881b03600160801b611b8e565b60405162461bcd60e51b81526020600482015260016024820152601560fa1b6044820152606490fd5b6fdb2df09e81959a81455e260799a0632f693627a301d71055774c8584020160801d60020b90611b61565b607f8281031161168f5781607f031b6106af565b60405162461bcd60e51b81526020600482015260016024820152602960f91b6044820152606490fd5b5073fffd8963efd1fc6a506488495d951d5263988d266001600160a01b03821610610617565b61022051610200516001600160a01b0391612362916105f2916127b8565b166105f9565b84956105bd565b63e784520560e01b6101405152600461014051fd5b6303466b7960e51b6101405152600461014051fd5b630692acc560e51b6101405152600461014051fd5b6334bbd58560e01b6101405152600461014051fd5b6259466b60e91b6101405152600461014051fd5b63013840ad60e51b6101405152600461014051fd5b9095506020813d602011612422575b8161240860209383612663565b8101031261199257518060020b810361199257945f61056b565b3d91506123fb565b61244491965060203d6020116119cb576119bc8183612663565b945f610526565b63ed5f09f160e01b6101405152600461014051fd5b6101405161246d91612663565b61014051611992575f6104f5565b91929060c061016001519060ff60406101600151169060018060a01b0361012051163b156116d5575f946124e6916124d46040519889978897638a35c56360e01b895260048901526080602489015260848801916126e0565b858103600319016044870152916126e0565b90606483015203818360018060a01b0361012051165af180156125235761250e575b506104f7565b5f61251891612663565b5f610140525f612508565b6040513d5f823e3d90fd5b63a9146eeb60e01b5f5260045ffd5b6004915014155f61043e565b63b06ebf3d60e01b5f5260045ffd5b631328927760e21b5f5260045ffd5b6313d0ff5960e31b5f5260045ffd5b60405162461bcd60e51b815260206004820152601f60248201527f5265656e7472616e637947756172643a207265656e7472616e742063616c6c006044820152606490fd5b8135815260209182019101610338565b82356001600160a01b03811681036116d5578152602092830192016102cb565b634e487b7160e01b5f52604160045260245ffd5b9181601f840112156116d5578235916001600160401b0383116116d557602083818601950101116116d557565b60e081019081106001600160401b038211176125eb57604052565b61010081019081106001600160401b038211176125eb57604052565b90601f801991011681019081106001600160401b038211176125eb57604052565b9291926001600160401b0382116125eb57604051916126ad601f8201601f191660200184612663565b8294818452818301116116d5578281602093845f960137010152565b6001600160401b0381116125eb5760051b60200190565b908060209392818452848401375f828201840152601f01601f1916010190565b908160209103126116d557516001600160a01b03811681036116d55790565b60020b9060020b90811561275557627fffff1981145f19831416612741570590565b634e487b7160e01b5f52601160045260245ffd5b634e487b7160e01b5f52601260045260245ffd5b9060020b9060020b02908160020b91820361274157565b90600182811c921680156127ae575b602083101461279a57565b634e487b7160e01b5f52602260045260245ffd5b91607f169161278f565b5f19600160c01b8209918160c01b9182808510940393808503941461283b57838211156116d5578190600160c01b9009816001811901168092046002816003021880820260020302808202600203028082026002030280820260020302808202600203028091026002030293600183805f03040190848311900302920304170290565b50809250156116d5570490565b8115612755570490565b600181111561297457806001600160801b821015612963575b600482600160401b612915941015612956575b640100000000811015612949575b6201000081101561293c575b610100811015612930575b6010811015612924575b101561291c575b60030260011c6128c48184612848565b0160011c6128d28184612848565b0160011c6128e08184612848565b0160011c6128ee8184612848565b0160011c6128fc8184612848565b0160011c61290a8184612848565b0160011c8092612848565b8111900390565b60011b6128b4565b811c9160021b916128ad565b60081c91811b916128a3565b60101c9160081b91612898565b60201c9160101b9161288c565b60401c9160201b9161287e565b5050608081901c600160401b61286b565b90565b9190820391821161274157565b908160209103126116d5575190565b81516001600160a01b03908116825260208084015182169083015260408084015162ffffff16908301526060808401518216908301526080808401519083015260a0808401519083015260c092830151169181019190915260e00190565b81516001600160a01b03908116825260208084015182169083015260408084015162ffffff16908301526060808401518216908301526080808401519083015260a0808401519083015260c0808401519083015260e09283015116918101919091526101000190565b9190820180921161274157565b60405163095ea7b360e01b60208083019182526001600160a01b0385166024840152604480840196909652948252929390925f90612aa6606486612663565b84519082855af15f513d82612b0e575b505015612ac257505050565b60405163095ea7b360e01b60208201526001600160a01b0390931660248401525f6044808501919091528352612b0c92612b0790612b01606482612663565b82612b9f565b612b9f565b565b909150612b2b57506001600160a01b0381163b15155b5f80612ab6565b600114612b24565b6040516323b872dd60e01b60208201526001600160a01b039283166024820152929091166044830152606480830193909352918152612b0c91612b07608483612663565b8051821015612b8b5760209160051b010190565b634e487b7160e01b5f52603260045260245ffd5b905f602091828151910182855af115612523575f513d612bee57506001600160a01b0381163b155b612bce5750565b635274afe760e01b5f9081526001600160a01b0391909116600452602490fd5b60011415612bc7565b60405163a9059cbb60e01b60208201526001600160a01b03929092166024830152604480830193909352918152612b0c91612b0760648361266356fea2646970667358221220a089e5e27f079b0e06d199ebb41c7d457277a80807b1d0195bc5ef9cac9b6a1464736f6c63430008240033",
  "linkReferences": {},
  "deployedLinkReferences": {}
}