{
  "_format": "hh-sol-artifact-1",
  "contractName": "SubBoardFacet",
  "sourceName": "contracts/Meme/facets/SubBoardFacet.sol",
  "abi": [
    {
      "inputs": [],
      "name": "AlreadyApplied",
      "type": "error"
    },
    {
      "inputs": [],
      "name": "BlankTitle",
      "type": "error"
    },
    {
      "inputs": [],
      "name": "FeeTooHigh",
      "type": "error"
    },
    {
      "inputs": [],
      "name": "FlashLaunchFeeTooHigh",
      "type": "error"
    },
    {
      "inputs": [],
      "name": "InsufficientFee",
      "type": "error"
    },
    {
      "inputs": [],
      "name": "NotAllowed",
      "type": "error"
    },
    {
      "inputs": [],
      "name": "NotApplied",
      "type": "error"
    },
    {
      "inputs": [],
      "name": "NotOwner",
      "type": "error"
    },
    {
      "inputs": [],
      "name": "Paused",
      "type": "error"
    },
    {
      "anonymous": false,
      "inputs": [
        {
          "indexed": false,
          "internalType": "address",
          "name": "subOwner",
          "type": "address"
        },
        {
          "indexed": false,
          "internalType": "string",
          "name": "title",
          "type": "string"
        },
        {
          "indexed": false,
          "internalType": "string",
          "name": "metaData",
          "type": "string"
        },
        {
          "components": [
            {
              "internalType": "uint256",
              "name": "listingFee",
              "type": "uint256"
            },
            {
              "internalType": "uint256",
              "name": "listingReferralFee",
              "type": "uint256"
            },
            {
              "internalType": "uint24",
              "name": "buyFeePer",
              "type": "uint24"
            },
            {
              "internalType": "uint24",
              "name": "sellFeePer",
              "type": "uint24"
            },
            {
              "internalType": "uint24",
              "name": "finalizeFeePer",
              "type": "uint24"
            },
            {
              "internalType": "uint24",
              "name": "flashLaunchFeePer",
              "type": "uint24"
            },
            {
              "internalType": "uint24",
              "name": "tradingFeeAfterLaunchPer",
              "type": "uint24"
            },
            {
              "internalType": "uint8",
              "name": "_padding",
              "type": "uint8"
            }
          ],
          "indexed": false,
          "internalType": "struct Fee[]",
          "name": "fee",
          "type": "tuple[]"
        }
      ],
      "name": "LogSubBoardApplied",
      "type": "event"
    },
    {
      "anonymous": false,
      "inputs": [
        {
          "indexed": false,
          "internalType": "address",
          "name": "subOwner",
          "type": "address"
        },
        {
          "indexed": false,
          "internalType": "string",
          "name": "title",
          "type": "string"
        },
        {
          "indexed": false,
          "internalType": "uint256",
          "name": "package",
          "type": "uint256"
        },
        {
          "components": [
            {
              "internalType": "uint256",
              "name": "listingFee",
              "type": "uint256"
            },
            {
              "internalType": "uint256",
              "name": "listingReferralFee",
              "type": "uint256"
            },
            {
              "internalType": "uint24",
              "name": "buyFeePer",
              "type": "uint24"
            },
            {
              "internalType": "uint24",
              "name": "sellFeePer",
              "type": "uint24"
            },
            {
              "internalType": "uint24",
              "name": "finalizeFeePer",
              "type": "uint24"
            },
            {
              "internalType": "uint24",
              "name": "flashLaunchFeePer",
              "type": "uint24"
            },
            {
              "internalType": "uint24",
              "name": "tradingFeeAfterLaunchPer",
              "type": "uint24"
            },
            {
              "internalType": "uint8",
              "name": "_padding",
              "type": "uint8"
            }
          ],
          "indexed": false,
          "internalType": "struct Fee",
          "name": "fee",
          "type": "tuple"
        }
      ],
      "name": "LogSubBoardListingReferralFeeUpdated",
      "type": "event"
    },
    {
      "anonymous": false,
      "inputs": [
        {
          "indexed": false,
          "internalType": "address",
          "name": "subOwner",
          "type": "address"
        },
        {
          "indexed": false,
          "internalType": "string",
          "name": "title",
          "type": "string"
        },
        {
          "indexed": false,
          "internalType": "string",
          "name": "metaData",
          "type": "string"
        }
      ],
      "name": "LogSubBoardMetaDataChanged",
      "type": "event"
    },
    {
      "anonymous": false,
      "inputs": [
        {
          "indexed": true,
          "internalType": "address",
          "name": "memeOwner",
          "type": "address"
        },
        {
          "indexed": true,
          "internalType": "address",
          "name": "token",
          "type": "address"
        },
        {
          "indexed": false,
          "internalType": "uint256",
          "name": "amount",
          "type": "uint256"
        }
      ],
      "name": "MemeOwnerFeeCollected",
      "type": "event"
    },
    {
      "anonymous": false,
      "inputs": [
        {
          "indexed": true,
          "internalType": "address",
          "name": "to",
          "type": "address"
        },
        {
          "indexed": false,
          "internalType": "uint256",
          "name": "amount",
          "type": "uint256"
        }
      ],
      "name": "PaymentOwed",
      "type": "event"
    },
    {
      "anonymous": false,
      "inputs": [
        {
          "indexed": true,
          "internalType": "address",
          "name": "referrer",
          "type": "address"
        },
        {
          "indexed": true,
          "internalType": "address",
          "name": "token",
          "type": "address"
        },
        {
          "indexed": false,
          "internalType": "uint256",
          "name": "amount",
          "type": "uint256"
        }
      ],
      "name": "ReferralFeeCollected",
      "type": "event"
    },
    {
      "anonymous": false,
      "inputs": [
        {
          "indexed": true,
          "internalType": "address",
          "name": "subBoardOwner",
          "type": "address"
        },
        {
          "indexed": true,
          "internalType": "address",
          "name": "token",
          "type": "address"
        },
        {
          "indexed": false,
          "internalType": "uint256",
          "name": "amount",
          "type": "uint256"
        }
      ],
      "name": "SubBoardFeeCollected",
      "type": "event"
    },
    {
      "inputs": [
        {
          "internalType": "string",
          "name": "title",
          "type": "string"
        },
        {
          "internalType": "string",
          "name": "metaData",
          "type": "string"
        },
        {
          "components": [
            {
              "internalType": "uint256",
              "name": "listingFee",
              "type": "uint256"
            },
            {
              "internalType": "uint256",
              "name": "listingReferralFee",
              "type": "uint256"
            },
            {
              "internalType": "uint24",
              "name": "buyFeePer",
              "type": "uint24"
            },
            {
              "internalType": "uint24",
              "name": "sellFeePer",
              "type": "uint24"
            },
            {
              "internalType": "uint24",
              "name": "finalizeFeePer",
              "type": "uint24"
            },
            {
              "internalType": "uint24",
              "name": "flashLaunchFeePer",
              "type": "uint24"
            },
            {
              "internalType": "uint24",
              "name": "tradingFeeAfterLaunchPer",
              "type": "uint24"
            },
            {
              "internalType": "uint8",
              "name": "_padding",
              "type": "uint8"
            }
          ],
          "internalType": "struct Fee[]",
          "name": "fee",
          "type": "tuple[]"
        }
      ],
      "name": "applySubBoard",
      "outputs": [],
      "stateMutability": "payable",
      "type": "function"
    },
    {
      "inputs": [
        {
          "internalType": "string",
          "name": "title",
          "type": "string"
        },
        {
          "internalType": "uint256",
          "name": "package",
          "type": "uint256"
        },
        {
          "components": [
            {
              "internalType": "uint256",
              "name": "listingFee",
              "type": "uint256"
            },
            {
              "internalType": "uint256",
              "name": "listingReferralFee",
              "type": "uint256"
            },
            {
              "internalType": "uint24",
              "name": "buyFeePer",
              "type": "uint24"
            },
            {
              "internalType": "uint24",
              "name": "sellFeePer",
              "type": "uint24"
            },
            {
              "internalType": "uint24",
              "name": "finalizeFeePer",
              "type": "uint24"
            },
            {
              "internalType": "uint24",
              "name": "flashLaunchFeePer",
              "type": "uint24"
            },
            {
              "internalType": "uint24",
              "name": "tradingFeeAfterLaunchPer",
              "type": "uint24"
            },
            {
              "internalType": "uint8",
              "name": "_padding",
              "type": "uint8"
            }
          ],
          "internalType": "struct Fee",
          "name": "fee",
          "type": "tuple"
        }
      ],
      "name": "updateSubBoardFee",
      "outputs": [],
      "stateMutability": "nonpayable",
      "type": "function"
    },
    {
      "inputs": [
        {
          "internalType": "string",
          "name": "title",
          "type": "string"
        },
        {
          "internalType": "string",
          "name": "metaData",
          "type": "string"
        }
      ],
      "name": "updateSubBoardMetaData",
      "outputs": [],
      "stateMutability": "nonpayable",
      "type": "function"
    }
  ],
  "bytecode": "0x60808060405234601557610e13908161001a8239f35b5f80fdfe6080806040526004361015610012575f80fd5b5f905f3560e01c9081638a563383146105a457508063a2ff79fd1461037b5763b0e138a81461003f575f80fd5b34610378576101403660031901126103785760043567ffffffffffffffff811161037657610071903690600401610c1c565b6101003660431901126103765760ff600654166103675760405160208101906100b4602082855180838801875e810187838201520301601f198101835282610bca565b5190208252600f602052604082209081549160ff8360081c166103585760ff831615610349576001600160a01b036100ea610d99565b169260101c6001600160a01b0316830361033a5762ffffff608435166084350361032757620186a062ffffff608435161161032b5762ffffff60a4351660a4350361032757620186a062ffffff60a435161161032b5762ffffff60c4351660c4350361032757620186a062ffffff60c435161161032b5762ffffff60e4351660e4350361032757620dbba062ffffff60e43516116103185762ffffff6101043516610104350361032757620dbba062ffffff610104351611610318576101b69060026024359101610c96565b610304576044358155606435600182015560020180549290610124359060ff82168203610300576101043560601b62ffffff60601b1660e43560481b62ffffff60481b166fffffffffffffffffffffffffffffffff1990961660843562ffffff161760a43560181b65ffffff000000161760c43560301b68ffffff00000000000016179590951794909417607882901b60ff60781b1617909355604051908152610160602082018190527f59952c6a57883f1d72df817b6aade162742206ad1066814549636c0ba391aadf93919283929160ff9161029691850190610d75565b9160243560408501526044356060850152606435608085015262ffffff6084351660a085015262ffffff60a4351660c085015262ffffff60c4351660e085015262ffffff60e4351661010085015262ffffff6101043516610120850152166101408301520390a180f35b8580fd5b634e487b7160e01b84526004849052602484fd5b63ef72c51160e01b8452600484fd5b8380fd5b63cd4e616760e01b8452600484fd5b6330cd747160e01b8452600484fd5b63d35abd2d60e01b8452600484fd5b631eb49d6d60e11b8452600484fd5b6313d0ff5960e31b8252600482fd5b505b80fd5b50346103785760403660031901126103785760043567ffffffffffffffff8111610376576103ad903690600401610c1c565b9060243567ffffffffffffffff8111610376576103ce903690600401610c1c565b9160ff60065416610367576040516020810190610405602082855180838801875e810187838201520301601f198101835282610bca565b5190208252600f6020526040822080549060ff8260081c166103585760ff821615610349576001600160a01b0361043a610d99565b169160101c6001600160a01b0316820361033a576001019380519467ffffffffffffffff861161059057610478866104728354610caf565b83610ce7565b602095601f811160011461050b57906104cd826104fa949388997fedadfefa4461341ef45e06247faa5ecf19659b48fd886891c82f0c5e717067309991610500575b508160011b915f199060031b1c19161790565b90555b6104ec6040519485948552606060208601526060850190610d75565b908382036040850152610d75565b0390a180f35b90508401515f6104ba565b818652868620601f198216875b8181106105785750916001917fedadfefa4461341ef45e06247faa5ecf19659b48fd886891c82f0c5e717067309899826104fa97969510610560575b5050811b0190556104d0565b8501515f1960f88460031b161c191690555f80610554565b858a015183556020998a019960019093019201610518565b634e487b7160e01b85526041600452602485fd5b90506060366003190112610b7b5760043567ffffffffffffffff8111610b7b576105d2903690600401610b9c565b9160243567ffffffffffffffff8111610b7b576105f3903690600401610b9c565b6044359367ffffffffffffffff8511610b7b5736602386011215610b7b5784600401359367ffffffffffffffff8511610b7b576024860195602436918760081b010111610b7b5760ff60065416610b8d576007543410610b7f575f546001600160a01b0316803b15610b7b57816044815f936311f9fbc960e21b825284600483015284602483015234905af18015610b7057610b5b575b506040516020810190878383376106b46020828a81018c838201520301601f198101835282610bca565b5190206040518881526106c8602082610bca565b602081519101208114610b4c57808852600f60205260ff604089205416610b3e578752600f60205260408720956106fd610d99565b9660028101895b87898183106109465750505050600160ff198254161781556001810167ffffffffffffffff85116109325761073d856104728354610caf565b898a601f87116001146108c25792602097959261077788806107c99a98956107bb98916108b757508160011b915f199060031b1c19161790565b90555b805462010000600160b01b03191660108c901b62010000600160b01b03161790556040516001600160a01b03909a168a526080878b018190528a0191610d45565b918783036040890152610d45565b848103606086015282815201919084905b80821061080b57857f104987d352b41fa656e13168c1434840957c6b78a89041bdfad8005036d15d1086860387a180f35b909192833581526020840135602082015262ffffff61082c60408601610d65565b16604082015262ffffff61084260608601610d65565b16606082015262ffffff61085860808601610d65565b16608082015262ffffff61086e60a08601610d65565b1660a082015262ffffff61088460c08601610d65565b1660c082015260e08401359060ff82168092036108b3576101008160019360e0839401520194019201906107da565b8680fd5b90508901355f6104ba565b50818b5260208b2090601f1987168c5b81811061091a5750928795926107bb95926107c99960209b999610610901575b5050600186811b01905561077a565b8801355f19600389901b60f8161c191690555f806108f2565b9192602060018192868d0135815501940192016108d2565b634e487b7160e01b8a52604160045260248afd5b610964604061095e85620186a09562ffffff95610c62565b01610c86565b1611610b2f57620186a062ffffff610982606061095e858d8f610c62565b1611610b2f57620186a062ffffff6109a0608061095e858d8f610c62565b1611610b2f57620dbba062ffffff6109be60a061095e858d8f610c62565b1611610b2057620dbba062ffffff6109dc60c061095e858d8f610c62565b1611610b20576109ed81898b610c62565b90825468010000000000000000811015610b0c57806001610a119201855584610c96565b610af857823581556020830135600182015560020162ffffff610a3660408501610c86565b169281549065ffffff000000610a4e60608301610c86565b60181b169168ffffff000000000000610a6960808401610c86565b60301b169062ffffff60481b610a8160a08501610c86565b60481b169160e062ffffff60601b610a9b60c08701610c86565b60601b169401359760ff89168903610af15760019860ff60781b9060781b169560ff60781b199362ffffff60601b199262ffffff60481b199168ffffffffffffffffff1916171617161716171717905501610704565b5050508f80fd5b634e487b7160e01b8d5260048d905260248dfd5b634e487b7160e01b8d52604160045260248dfd5b63ef72c51160e01b8b5260048bfd5b63cd4e616760e01b8b5260048bfd5b62540c0360e11b8852600488fd5b63b04ee3e560e01b8852600488fd5b610b689197505f90610bca565b5f955f61068a565b6040513d5f823e3d90fd5b5f80fd5b62976f7560e21b5f5260045ffd5b6313d0ff5960e31b5f5260045ffd5b9181601f84011215610b7b5782359167ffffffffffffffff8311610b7b5760208381860195010111610b7b57565b90601f8019910116810190811067ffffffffffffffff821117610bec57604052565b634e487b7160e01b5f52604160045260245ffd5b67ffffffffffffffff8111610bec57601f01601f191660200190565b81601f82011215610b7b57803590610c3382610c00565b92610c416040519485610bca565b82845260208383010111610b7b57815f926020809301838601378301015290565b9190811015610c725760081b0190565b634e487b7160e01b5f52603260045260245ffd5b3562ffffff81168103610b7b5790565b8054821015610c72575f52600360205f20910201905f90565b90600182811c92168015610cdd575b6020831014610cc957565b634e487b7160e01b5f52602260045260245ffd5b91607f1691610cbe565b919091601f8311610cf8575b505050565b818311610d0457505050565b5f5260205f206020601f830160051c9210610d3d575b81601f9101920160051c03905f5b82811015610cf3575f82820155600101610d28565b5f9150610d1a565b908060209392818452848401375f828201840152601f01601f1916010190565b359062ffffff82168203610b7b57565b805180835260209291819084018484015e5f828201840152601f01601f1916010190565b333003610dd957610da936610c00565b610db66040519182610bca565b368152365f60208301375f6020369290920191820152516001600160a01b031690565b339056fea26469706673582212202dd1283b8ac400f0efb51af962a8b10ca14a5ef50443cd1d23c5231e8705460b64736f6c63430008240033",
  "linkReferences": {},
  "deployedLinkReferences": {}
}