{
  "_format": "hh-sol-artifact-1",
  "contractName": "TradeFacet",
  "sourceName": "contracts/Meme/facets/TradeFacet.sol",
  "abi": [
    {
      "inputs": [],
      "name": "AllocationExceeded",
      "type": "error"
    },
    {
      "inputs": [],
      "name": "AlreadyListed",
      "type": "error"
    },
    {
      "inputs": [],
      "name": "Cancelled",
      "type": "error"
    },
    {
      "inputs": [],
      "name": "FailedLaunch",
      "type": "error"
    },
    {
      "inputs": [],
      "name": "HardCapReached",
      "type": "error"
    },
    {
      "inputs": [],
      "name": "NoReserves",
      "type": "error"
    },
    {
      "inputs": [],
      "name": "NotStarted",
      "type": "error"
    },
    {
      "inputs": [],
      "name": "Paused",
      "type": "error"
    },
    {
      "inputs": [],
      "name": "RefundFailed",
      "type": "error"
    },
    {
      "inputs": [
        {
          "internalType": "address",
          "name": "token",
          "type": "address"
        }
      ],
      "name": "SafeERC20FailedOperation",
      "type": "error"
    },
    {
      "inputs": [],
      "name": "SelfReferral",
      "type": "error"
    },
    {
      "inputs": [],
      "name": "SlippageExceeded",
      "type": "error"
    },
    {
      "inputs": [],
      "name": "TokenTransferMismatch",
      "type": "error"
    },
    {
      "inputs": [],
      "name": "TradeDelayed",
      "type": "error"
    },
    {
      "inputs": [],
      "name": "TransferFailed",
      "type": "error"
    },
    {
      "inputs": [],
      "name": "ZeroAmount",
      "type": "error"
    },
    {
      "anonymous": false,
      "inputs": [
        {
          "indexed": true,
          "internalType": "address",
          "name": "buyer",
          "type": "address"
        },
        {
          "indexed": true,
          "internalType": "address",
          "name": "memeToken",
          "type": "address"
        },
        {
          "indexed": false,
          "internalType": "address",
          "name": "referrer",
          "type": "address"
        },
        {
          "indexed": false,
          "internalType": "uint256",
          "name": "amountIn",
          "type": "uint256"
        },
        {
          "indexed": false,
          "internalType": "uint256",
          "name": "amountOut",
          "type": "uint256"
        },
        {
          "indexed": false,
          "internalType": "uint256",
          "name": "amountOwnerFee",
          "type": "uint256"
        },
        {
          "indexed": false,
          "internalType": "uint256",
          "name": "amountSubBoardFee",
          "type": "uint256"
        },
        {
          "indexed": false,
          "internalType": "uint256",
          "name": "amountMemeTokenOwnerFee",
          "type": "uint256"
        },
        {
          "indexed": false,
          "internalType": "uint256",
          "name": "amountReferralFee",
          "type": "uint256"
        },
        {
          "indexed": false,
          "internalType": "uint256",
          "name": "volumn",
          "type": "uint256"
        },
        {
          "indexed": false,
          "internalType": "uint256",
          "name": "virtualReserveETH",
          "type": "uint256"
        },
        {
          "indexed": false,
          "internalType": "uint256",
          "name": "virtualReserveToken",
          "type": "uint256"
        },
        {
          "indexed": false,
          "internalType": "bool",
          "name": "isHardCapReached",
          "type": "bool"
        },
        {
          "indexed": false,
          "internalType": "uint8",
          "name": "decimals",
          "type": "uint8"
        },
        {
          "indexed": false,
          "internalType": "uint256",
          "name": "virtualReserveETHHardcap",
          "type": "uint256"
        },
        {
          "indexed": false,
          "internalType": "uint256",
          "name": "virtualReserveETHSoftcap",
          "type": "uint256"
        }
      ],
      "name": "Bought",
      "type": "event"
    },
    {
      "anonymous": false,
      "inputs": [
        {
          "indexed": true,
          "internalType": "address",
          "name": "memeOwner",
          "type": "address"
        },
        {
          "indexed": true,
          "internalType": "address",
          "name": "token",
          "type": "address"
        },
        {
          "indexed": false,
          "internalType": "uint256",
          "name": "amount",
          "type": "uint256"
        }
      ],
      "name": "MemeOwnerFeeCollected",
      "type": "event"
    },
    {
      "anonymous": false,
      "inputs": [
        {
          "indexed": true,
          "internalType": "address",
          "name": "to",
          "type": "address"
        },
        {
          "indexed": false,
          "internalType": "uint256",
          "name": "amount",
          "type": "uint256"
        }
      ],
      "name": "PaymentOwed",
      "type": "event"
    },
    {
      "anonymous": false,
      "inputs": [
        {
          "indexed": true,
          "internalType": "address",
          "name": "referrer",
          "type": "address"
        },
        {
          "indexed": true,
          "internalType": "address",
          "name": "token",
          "type": "address"
        },
        {
          "indexed": false,
          "internalType": "uint256",
          "name": "amount",
          "type": "uint256"
        }
      ],
      "name": "ReferralFeeCollected",
      "type": "event"
    },
    {
      "anonymous": false,
      "inputs": [
        {
          "indexed": true,
          "internalType": "address",
          "name": "seller",
          "type": "address"
        },
        {
          "indexed": true,
          "internalType": "address",
          "name": "memeToken",
          "type": "address"
        },
        {
          "indexed": false,
          "internalType": "uint256",
          "name": "amountIn",
          "type": "uint256"
        },
        {
          "indexed": false,
          "internalType": "uint256",
          "name": "amountOut",
          "type": "uint256"
        },
        {
          "indexed": false,
          "internalType": "uint256",
          "name": "amountOwnerFee",
          "type": "uint256"
        },
        {
          "indexed": false,
          "internalType": "uint256",
          "name": "amountSubBoardFee",
          "type": "uint256"
        },
        {
          "indexed": false,
          "internalType": "uint256",
          "name": "amountMemeTokenOwnerFee",
          "type": "uint256"
        },
        {
          "indexed": false,
          "internalType": "uint256",
          "name": "volumn",
          "type": "uint256"
        },
        {
          "indexed": false,
          "internalType": "uint256",
          "name": "virtualReserveETH",
          "type": "uint256"
        },
        {
          "indexed": false,
          "internalType": "uint256",
          "name": "virtualReserveToken",
          "type": "uint256"
        },
        {
          "indexed": false,
          "internalType": "bool",
          "name": "isHardCapReached",
          "type": "bool"
        },
        {
          "indexed": false,
          "internalType": "uint8",
          "name": "decimals",
          "type": "uint8"
        },
        {
          "indexed": false,
          "internalType": "uint256",
          "name": "virtualReserveETHHardcap",
          "type": "uint256"
        },
        {
          "indexed": false,
          "internalType": "uint256",
          "name": "virtualReserveETHSoftcap",
          "type": "uint256"
        }
      ],
      "name": "Sold",
      "type": "event"
    },
    {
      "anonymous": false,
      "inputs": [
        {
          "indexed": true,
          "internalType": "address",
          "name": "subBoardOwner",
          "type": "address"
        },
        {
          "indexed": true,
          "internalType": "address",
          "name": "token",
          "type": "address"
        },
        {
          "indexed": false,
          "internalType": "uint256",
          "name": "amount",
          "type": "uint256"
        }
      ],
      "name": "SubBoardFeeCollected",
      "type": "event"
    },
    {
      "inputs": [
        {
          "internalType": "address",
          "name": "memeToken",
          "type": "address"
        },
        {
          "internalType": "address",
          "name": "referrer",
          "type": "address"
        },
        {
          "internalType": "bytes32[]",
          "name": "proof",
          "type": "bytes32[]"
        },
        {
          "internalType": "uint256",
          "name": "amountInBaseToken",
          "type": "uint256"
        },
        {
          "internalType": "uint256",
          "name": "amountOutMin",
          "type": "uint256"
        }
      ],
      "name": "buy",
      "outputs": [
        {
          "internalType": "uint256",
          "name": "amountIn",
          "type": "uint256"
        },
        {
          "internalType": "uint256",
          "name": "amountOut",
          "type": "uint256"
        }
      ],
      "stateMutability": "payable",
      "type": "function"
    },
    {
      "inputs": [
        {
          "internalType": "address",
          "name": "memeToken",
          "type": "address"
        },
        {
          "internalType": "uint256",
          "name": "amountOut",
          "type": "uint256"
        },
        {
          "internalType": "uint256",
          "name": "maxAllocation",
          "type": "uint256"
        },
        {
          "internalType": "bool",
          "name": "isReferral",
          "type": "bool"
        }
      ],
      "name": "getAmountInETH",
      "outputs": [
        {
          "internalType": "uint256",
          "name": "amountIn",
          "type": "uint256"
        },
        {
          "internalType": "uint256",
          "name": "amountOutAvailable",
          "type": "uint256"
        },
        {
          "internalType": "uint256",
          "name": "amountInWithoutFee",
          "type": "uint256"
        },
        {
          "internalType": "uint256",
          "name": "amountOwnerFee",
          "type": "uint256"
        },
        {
          "internalType": "uint256",
          "name": "amountSubBoardFee",
          "type": "uint256"
        },
        {
          "internalType": "uint256",
          "name": "amountMemeTokenOwnerFee",
          "type": "uint256"
        },
        {
          "internalType": "uint256",
          "name": "amountReferralFee",
          "type": "uint256"
        },
        {
          "internalType": "bool",
          "name": "isHardCapReached",
          "type": "bool"
        }
      ],
      "stateMutability": "view",
      "type": "function"
    },
    {
      "inputs": [
        {
          "internalType": "address",
          "name": "memeToken",
          "type": "address"
        },
        {
          "internalType": "uint256",
          "name": "amountOut",
          "type": "uint256"
        }
      ],
      "name": "getAmountInTokens",
      "outputs": [
        {
          "internalType": "uint256",
          "name": "amountIn",
          "type": "uint256"
        },
        {
          "internalType": "uint256",
          "name": "amountOutAvailable",
          "type": "uint256"
        },
        {
          "internalType": "uint256",
          "name": "amountOutWithFee",
          "type": "uint256"
        },
        {
          "internalType": "uint256",
          "name": "amountOwnerFee",
          "type": "uint256"
        },
        {
          "internalType": "uint256",
          "name": "amountSubBoardFee",
          "type": "uint256"
        },
        {
          "internalType": "uint256",
          "name": "amountMemeTokenOwnerFee",
          "type": "uint256"
        },
        {
          "internalType": "bool",
          "name": "isHardCapReached",
          "type": "bool"
        }
      ],
      "stateMutability": "view",
      "type": "function"
    },
    {
      "inputs": [
        {
          "internalType": "address",
          "name": "memeToken",
          "type": "address"
        },
        {
          "internalType": "uint256",
          "name": "amountIn",
          "type": "uint256"
        }
      ],
      "name": "getAmountOutETH",
      "outputs": [
        {
          "components": [
            {
              "internalType": "uint256",
              "name": "amountInAvailable",
              "type": "uint256"
            },
            {
              "internalType": "uint256",
              "name": "amountOutAvailable",
              "type": "uint256"
            },
            {
              "internalType": "uint256",
              "name": "amountOutWithFee",
              "type": "uint256"
            },
            {
              "internalType": "uint256",
              "name": "amountOwnerFee",
              "type": "uint256"
            },
            {
              "internalType": "uint256",
              "name": "amountSubBoardFee",
              "type": "uint256"
            },
            {
              "internalType": "uint256",
              "name": "amountMemeTokenOwnerFee",
              "type": "uint256"
            },
            {
              "internalType": "bool",
              "name": "isHardCapReached",
              "type": "bool"
            }
          ],
          "internalType": "struct TradeFacet.SellData",
          "name": "sellData",
          "type": "tuple"
        }
      ],
      "stateMutability": "view",
      "type": "function"
    },
    {
      "inputs": [
        {
          "internalType": "address",
          "name": "memeToken",
          "type": "address"
        },
        {
          "internalType": "uint256",
          "name": "amountIn",
          "type": "uint256"
        },
        {
          "internalType": "uint256",
          "name": "maxAllocation",
          "type": "uint256"
        },
        {
          "internalType": "bool",
          "name": "isReferral",
          "type": "bool"
        }
      ],
      "name": "getAmountOutTokens",
      "outputs": [
        {
          "components": [
            {
              "internalType": "uint256",
              "name": "amountInAvailable",
              "type": "uint256"
            },
            {
              "internalType": "uint256",
              "name": "amountOutAvailable",
              "type": "uint256"
            },
            {
              "internalType": "uint256",
              "name": "amountInWithoutFee",
              "type": "uint256"
            },
            {
              "internalType": "uint256",
              "name": "amountOwnerFee",
              "type": "uint256"
            },
            {
              "internalType": "uint256",
              "name": "amountSubBoardFee",
              "type": "uint256"
            },
            {
              "internalType": "uint256",
              "name": "amountMemeTokenOwnerFee",
              "type": "uint256"
            },
            {
              "internalType": "uint256",
              "name": "amountReferralFee",
              "type": "uint256"
            },
            {
              "internalType": "bool",
              "name": "isHardCapReached",
              "type": "bool"
            }
          ],
          "internalType": "struct TradeFacet.BuyData",
          "name": "buyData",
          "type": "tuple"
        }
      ],
      "stateMutability": "view",
      "type": "function"
    },
    {
      "inputs": [
        {
          "internalType": "address",
          "name": "memeToken",
          "type": "address"
        },
        {
          "internalType": "uint256",
          "name": "amount",
          "type": "uint256"
        },
        {
          "internalType": "uint256",
          "name": "amountOutMin",
          "type": "uint256"
        }
      ],
      "name": "sell",
      "outputs": [
        {
          "internalType": "uint256",
          "name": "amountIn",
          "type": "uint256"
        },
        {
          "internalType": "uint256",
          "name": "amountOut",
          "type": "uint256"
        }
      ],
      "stateMutability": "nonpayable",
      "type": "function"
    },
    {
      "inputs": [],
      "name": "withdrawOwedETH",
      "outputs": [
        {
          "internalType": "uint256",
          "name": "amount",
          "type": "uint256"
        }
      ],
      "stateMutability": "nonpayable",
      "type": "function"
    }
  ],
  "bytecode": "0x608080604052346015576138d2908161001a8239f35b5f80fdfe6101206040526004361015610012575f80fd5b5f5f3560e01c80632061a6aa14611b1b57806352a25910146117ff5780636832e5de146114e25780636a27246214610cb75780636d65a13714610c29578063b6383f01146100c15763dc174f2b14610068575f80fd5b346100be5761010061008561007c36611b87565b9291909161253a565b949193909392916080519190604051978852602088015260408701526060860152608085015260a084015260c0830152151560e0820152f35b80fd5b5060a03660031901126100be576100d6611b71565b602435906001600160a01b038216820361098d5767ffffffffffffffff6044351161098d5736602360443501121561098d5767ffffffffffffffff604435600401351161098d573660246044356004013560051b60443501011161098d5761013c613327565b6064359060ff60065416610c1a5761015261337d565b906001600160a01b0384811690831614610c0b576001600160a01b03811685526010602052604080862090519061018882611bbe565b60018060a01b03815416825260018101546020830152600281015460408301526003810154606083015260048101546080830152600581015460a0830152600681015460c0830152600781015460e08301526008810154610100830152600981015461012083015260ff600a820154818116610140850152818160081c161515610160850152818160101c161515610180850152818160181c1615156101a0850152818160201c1615156101c085015260281c166101e083015260405161024e81611bef565b60018060a01b03600b830154168152600c8201546020820152600d8201546040820152600e8201546060820152600f8201546080820152601082015460a0820152601182015460c0820152601282015462ffffff811660e083015262ffffff8160181c1661010083015262ffffff8160301c1661012083015262ffffff8160481c1661014083015262ffffff8160601c1661016083015264ffffffffff8160781c1661018083015264ffffffffff8160a01c166101a083015260ff8160c81c1615156101c083015260d01c6101e082015260138201805461032e81611c83565b9161033c6040519384611c61565b8183528a526020808b208b9184015b838310610b9557505050506102008201526018919061036c60148301611c9b565b61022082015261020084015261038460158201611d67565b61022084015201546102408201526101a0810151610b8657610200810151516003546001600160a01b0391821696916103be9116876136b7565b9586610b7e575b6103d08584866133c1565b6040516370a0823160e01b81526001600160a01b0386811660048301526020908290602490829089165afa90811561075b578991610b48575b506101c06102008501510151151580610a54575b15610a455760a061020085015101515b80821015610a36576104569161044291611e04565b6001600160a01b0384161515908886612c70565b908151976020830151978a6104aa60026040808801519360018060a01b038c1681526010602052206001810161048d8582546124c9565b90558c61049f60038301918254611e04565b9055019182546124c9565b90556104c089896001600160a01b038a16613503565b8915610a2757876104d791608435908c858761353f565b8810610a1857606083015180610912575b506080830151610867575b60a0830151806107e5575b5060c0830151801515806107d3575b610766575b505050610527604082015160208501516124c9565b602084015261053e604082015160408501516124c9565b6040840152610551866060850151611e04565b606084015260405163313ce56760e01b8152906020826004816001600160a01b0389165afa801561075b578785928a948c9361072a575b506060810151608082015160a083015160c08401519060208801519260408901519460608a01519660e0015115159760c08b01519a60e001519b604051809e600160a01b600190031681526020015260408d015260608c015260808b015260a08a015260c089015260e088015261010087015261012086015261014085015260ff166101608401526101808301526101a0820152600160a01b60019003831690600160a01b600190038516906101c07f068d39e3b8d18843364ea124a6320bb690f5220cd685fc780a8c0b97d125c31691a360408101519060c081015182149182156106f4575b505061068a575b505060409260055582519182526020820152f35b60405163bcdf569b60e01b602082019081526001600160a01b039384166024830152929091166044808301919091528152849182916106ca606482611c61565b519082305af16106d861250b565b50156106e5575f80610676565b632e1e71d360e21b8352600483fd5b6102008201516101a0015164ffffffffff164210159250908261071b575b50505f8061066f565b60e00151111590505f80610712565b61074d91935060203d602011610754575b6107458183611c61565b8101906124d6565b915f610588565b503d61073b565b6040513d8b823e3d90fd5b6107789082156107cd578b5b866137fa565b156107c85750875b60c08201516040519081526001600160a01b03918216918416907f150f14831044e1f4ff2291bff707cab4854442469477ae8f9986538ab3f6709690602090a35f8080610512565b610780565b83610772565b506001600160a01b038516151561050d565b855161080291906001600160a01b03168315610860578c906137fa565b84516001600160a01b03168115610859578a905b60a08501516040519081526001600160a01b03909216917f9c24c3f39ed26fab2a4d8825658bf0838140ab25f12e94dc30f09c509664ee7590602090a35f6104fe565b8290610816565b84906137fa565b6101008501518a52600f60205260408a205461089c9060101c6001600160a01b0316821561090c578b5b6080860151916137fa565b6101008501518a52600f60205260408a205460101c6001600160a01b03168115610905578a905b60808501516040519081526001600160a01b03909216917fb31d5740c93468f40d7cfaf4abee5f8bbf99655d372c474822ccc6a88bf27a5090602090a36104f3565b82906108c3565b83610891565b81156109915750895460608401518b916001600160a01b0316803b1561098d5782906044604051809481936311f9fbc960e21b83528560048401528560248401525af1801561098257610969575b50505b5f6104e8565b8161097391611c61565b61097e57895f610960565b8980fd5b6040513d84823e3d90fd5b8280fd5b8a546109a791906001600160a01b031684613735565b895460608401518b916001600160a01b0316803b1561098d576040516311f9fbc960e21b81526001600160a01b0386166004820152602481019290925282908290604490829084905af1801561098257610a03575b5050610963565b81610a0d91611c61565b61097e57895f6109fc565b638199f5f360e01b8a5260048afd5b631f2a200560e01b8b5260048bfd5b6374a5d1f560e01b8a5260048afd5b6080610200850151015161042d565b509592610a6d6044989592989693963560040135611c83565b95610a7b6040519788611c61565b60443560048101358852602401602088015b60246044356004013560051b60443501018210610b3857505060c061020083015101519860405160208101906bffffffffffffffffffffffff198760601b16825260148152610add603482611c61565b519020988b995b89518b1015610b265760208b60051b8b010151908181105f14610b15578d52602052600160408d205b9a0199610ae4565b908d52602052600160408d20610b0d565b9194979a92959850929598501461041d565b8135815260209182019101610a8d565b90506020813d602011610b76575b81610b6360209383611c61565b81010312610b7257515f610409565b5f80fd5b3d9150610b56565b3495506103c5565b6318ee562160e21b8652600486fd5b60036020600192604051610ba881611c0c565b848060a01b038654168152848601548382015260ff600287015462ffffff811660408401528060181c60020b606084015262ffffff8160301c166080840152818160481c16151560a084015260501c1660c082015281520192019201919061034b565b632af47b8760e11b8552600485fd5b6313d0ff5960e31b8452600484fd5b50346100be57806003193601126100be57610c42613327565b6001600160a01b03610c5261337d565b16808252601d6020526040822054908115610ca857828080848482958352601d6020528260408120555af1610c8561250b565b5015610c9957602091600555604051908152f35b6312171d8360e31b8252600482fd5b631f2a200560e01b8352600483fd5b5034610b72576060366003190112610b7257610cd1611b71565b90610cda613327565b6044359060ff600654166114d357610cf061337d565b60018060a01b0384165f52601060205260405f209360405194610d1286611bbe565b60018060a01b03815416865260018101546020870152600281015460408701526003810154606087015260048101546080870152600581015460a0870152600681015460c0870152600781015460e08701526008810154610100870152600981015461012087015260ff600a820154818116610140890152818160081c161515610160890152818160101c161515610180890152818160181c1615156101a0890152818160201c1615156101c089015260281c166101e087015260405190610dd982611bef565b60018060a01b03600b820154168252600c8101546020830152600d8101546040830152600e8101546060830152600f8101546080830152601081015460a0830152601181015460c0830152601281015462ffffff811660e084015262ffffff8160181c1661010084015262ffffff8160301c1661012084015262ffffff8160481c1661014084015262ffffff8160601c1661016084015264ffffffffff8160781c1661018084015264ffffffffff8160a01c166101a084015260ff8160c81c1615156101c084015260d01c6101e0830152601381018054610eb981611c83565b91610ec76040519384611c61565b81835260208301905f5260205f205f915b83831061145d5750505050610200830152601890610ef860148201611c9b565b6102208401526102008801928352610f1260158201611d67565b61022089015201546102408701526101a086015161144e5751516003546001600160a01b039182169691610f479116876136b7565b610f528483856133c1565b610f5f602435838561301c565b90815197602083015197891561143f57610f848a30896001600160a01b038a166134ba565b604084015160018060a01b0387165f526010602052610fce600260405f2060018101610fb18582546124c9565b90558d610fc3600383019182546124c9565b905501918254611e04565b9055886113e1575b6024358a106113c4575b88106113b5576060830151806112a4575b5060808301516111fa575b60a083015180611176575b50505061101c604082015160208401516124c9565b602083015261102f8760608401516124c9565b606083015261104660408201516040840151611e04565b6040838101919091525163313ce56760e01b8152906020826004816001600160a01b0388165afa91821561116b5791889493918893889261114a575b50606081015190608081015160a082015160208601519060408701519260608801519460c0015115159560c08901519860e00151996040519c8d5260208d015260408c015260608b015260808a015260a089015260c088015260e087015261010086015260ff16610120850152610140840152610160830152600160a01b600190031691600160a01b6001900316906101807f513f380e556d99f368ce327732425a21e663dfd01b3883575ab11a0aeb9e688291a36005556040519182526020820152604090f35b61116491925060203d602011610754576107458183611c61565b905f611082565b6040513d88823e3d90fd5b845161119391906001600160a01b031684156111f35789906137fa565b83516001600160a01b031691156111ed575085905b60a08301516040519081526001600160a01b03909216917f9c24c3f39ed26fab2a4d8825658bf0838140ab25f12e94dc30f09c509664ee7590602090a35f8080611007565b906111a8565b83906137fa565b6101008401518752600f602052604087205461122e9060101c6001600160a01b0316831561129e57886080860151916137fa565b6101008401518752600f602052604087205460101c6001600160a01b031682156112975787905b60808501516040519081526001600160a01b03909216917fb31d5740c93468f40d7cfaf4abee5f8bbf99655d372c474822ccc6a88bf27a5090602090a3610ffc565b8190611255565b82610891565b8215611325575086546060840151906001600160a01b0316803b156113215788906044604051809481936311f9fbc960e21b83528560048401528560248401525af18015611316579088916112fd575b50505b5f610ff1565b8161130791611c61565b61131257865f6112f4565b8680fd5b6040513d8a823e3d90fd5b8880fd5b5f5461133b91906001600160a01b031683613735565b5f546060840151906001600160a01b0316803b15610b72576040516311f9fbc960e21b81526001600160a01b038416600482015260248101929092525f908290604490829084905af180156113aa57611395575b506112f7565b6113a29197505f90611c61565b5f955f61138f565b6040513d5f823e3d90fd5b638199f5f360e01b5f5260045ffd5b506113dc6024356113d78b604435612498565b6124ab565b610fe0565b8215611439575f5b6001600160a01b031689888261142b57505f91508190819081906001600160a01b038c165af161141761250b565b50610fd6576312171d8360e31b5f5260045ffd5b61143492613503565b610fd6565b816113e9565b631f2a200560e01b5f5260045ffd5b6318ee562160e21b5f5260045ffd5b6003602060019260405161147081611c0c565b848060a01b038654168152848601548382015260ff600287015462ffffff811660408401528060181c60020b606084015262ffffff8160301c166080840152818160481c16151560a084015260501c1660c0820152815201920192019190610ed8565b6313d0ff5960e31b5f5260045ffd5b34610b72576040366003190112610b72576114fb611b71565b611503612462565b5060018060a01b0381165f52601060205260405f209060405161152581611bbe565b60018060a01b03835416815260018301546020820152600283015460408201526003830154606082015260048301546080820152600583015460a0820152600683015460c0820152600783015460e08201526008830154610100820152600983015461012082015260ff600a840154818116610140840152818160081c161515610160840152818160101c161515610180840152818160181c1615156101a0840152818160201c1615156101c084015260281c166101e0820152604051926115ec84611bef565b60018060a01b03600b820154168452600c8101546020850152600d8101546040850152600e8101546060850152600f8101546080850152601081015460a0850152601181015460c0850152601281015462ffffff811660e086015262ffffff8160181c1661010086015262ffffff8160301c1661012086015262ffffff8160481c1661014086015262ffffff8160601c1661016086015264ffffffffff8160781c1661018086015264ffffffffff8160a01c166101a086015260ff8160c81c1615156101c086015260d01c6101e0850152601381019384546116cd81611c83565b906116db6040519283611c61565b80825260208201965f5260205f20965f905b8282106117885760e0611741898960188a8a8a61020082015261171260148301611c9b565b61022082015261020084015261172a60158201611d67565b61022084015201546102408201526024359161301c565b60c060405191805183526020810151602084015260408101516040840152606081015160608401526080810151608084015260a081015160a08401520151151560c0820152f35b600360206001928b60ff6002604051926117a184611c0c565b878060a01b0381541684528781015486850152015462ffffff811660408401528060181c60020b606084015262ffffff8160301c166080840152818160481c16151560a084015260501c1660c08201528152019901910190976116ed565b34610b725761180d36611b87565b9192611817612426565b5060018060a01b03165f52601060205260405f209260405161183881611bbe565b60018060a01b03855416815260018501546020820152600285015460408201526003850154606082015260048501546080820152600585015460a0820152600685015460c0820152600785015460e08201526008850154610100820152600985015461012082015260ff600a860154818116610140840152818160081c161515610160840152818160101c161515610180840152818160181c1615156101a0840152818160201c1615156101c084015260281c166101e0820152604051946118ff86611bef565b60018060a01b03600b820154168652600c8101546020870152600d8101546040870152600e8101546060870152600f8101546080870152601081015460a0870152601181015460c0870152601281015462ffffff811660e088015262ffffff8160181c1661010088015262ffffff8160301c1661012088015262ffffff8160481c1661014088015262ffffff8160601c1661016088015264ffffffffff8160781c1661018088015264ffffffffff8160a01c166101a088015260ff8160c81c1615156101c088015260d01c6101e0870152601381019586546119e081611c83565b906119ee6040519283611c61565b80825260208201985f5260205f20985f905b828210611aa457610100611a538b8b8b8b60188c8c8c610200820152611a2860148301611c9b565b610220820152610200840152611a4060158201611d67565b6102208401520154610240820152612c70565b60e060405191805183526020810151602084015260408101516040840152606081015160608401526080810151608084015260a081015160a084015260c081015160c08401520151151560e0820152f35b600360206001928d60ff600260405192611abd84611c0c565b878060a01b0381541684528781015486850152015462ffffff811660408401528060181c60020b606084015262ffffff8160301c166080840152818160481c16151560a084015260501c1660c08201528152019b0191019099611a00565b34610b72576040366003190112610b725760e0611b42611b39611b71565b60243590611e11565b94604094919493929351968752602087015260408601526060850152608084015260a0830152151560c0820152f35b600435906001600160a01b0382168203610b7257565b6080906003190112610b72576004356001600160a01b0381168103610b72579060243590604435906064358015158103610b725790565b610260810190811067ffffffffffffffff821117611bdb57604052565b634e487b7160e01b5f52604160045260245ffd5b610240810190811067ffffffffffffffff821117611bdb57604052565b60e0810190811067ffffffffffffffff821117611bdb57604052565b610100810190811067ffffffffffffffff821117611bdb57604052565b60a0810190811067ffffffffffffffff821117611bdb57604052565b90601f8019910116810190811067ffffffffffffffff821117611bdb57604052565b67ffffffffffffffff8111611bdb5760051b60200190565b90604051915f8154908160011c9260018316928315611d5d575b602085108414611d49578487528693908115611d275750600114611ce3575b50611ce192500383611c61565b565b90505f9291925260205f20905f915b818310611d0b575050906020611ce1928201015f611cd4565b6020919350806001915483858901015201910190918492611cf2565b905060209250611ce194915060ff191682840152151560051b8201015f611cd4565b634e487b7160e01b5f52602260045260245ffd5b93607f1693611cb5565b90604051611d7481611c28565b60e060ff600283958054855260018101546020860152015462ffffff8116604085015262ffffff8160181c16606085015262ffffff8160301c16608085015262ffffff8160481c1660a085015262ffffff8160601c1660c085015260781c16910152565b9062ffffff8091169116019062ffffff8211611df057565b634e487b7160e01b5f52601160045260245ffd5b91908203918211611df057565b90915f5f5f5f60018060a01b0386165f52601060205260405f209460405195611e3987611bbe565b60018060a01b03815416875260018101546020880152600281015460408801526003810154606088015260048101546080880152600581015460a0880152600681015460c08801908152600782015460e0890152600882015491610100890192835260098101546101208a015260ff600a8201548181166101408c0152818160081c1615156101608c0152818160101c1615156101808c0152818160181c1615156101a08c0152818160201c1615156101c08c015260281c166101e08a0152604051611f0481611bef565b60018060a01b03600b830154168152600c8201546020820152600d8201546040820152600e8201546060820152600f8201546080820152601082015460a0820152601182015460c0820152601282015462ffffff811660e083015262ffffff8160181c1661010083015262ffffff8160301c1661012083015262ffffff8160481c1661014083015262ffffff8160601c1661016083015264ffffffffff8160781c1661018083015264ffffffffff8160a01c166101a083015260ff8160c81c1615156101c083015260d01c6101e0820152601382018054611fe481611c83565b91611ff26040519384611c61565b81835260208301905f5260205f205f915b8383106123b057505050506102008201526018919061202460148301611c9b565b6102208201526102008b015261203c60158201611d67565b6102208b0152015461024089015260408801511580156123a4575b61239557604088015190511461237c57515f52600f60205260405f2060026040519161208283611c45565b805460ff80821615158552600882901c161515602085015260101c6001600160a01b031660408401526120b760018201611c9b565b60608401520180546120c881611c83565b916120d66040519384611c61565b81835260208301905f5260205f205f915b83831061235e5750505050608082015262ffffff61211d8160606102208b0151015116826101006102008c015101511690611dd8565b169788156123585761212e8a612b53565b620f42408a810311611df057620f42408a1461235157612154908a620f424003906124ab565b6121688160608b015160408c015191612bf3565b6040516318160ddd60e01b815290926020826004816001600160a01b0385165afa9182156113aa575f9261231c575b506040516370a0823160e01b81523060048201529190602090839060249082906001600160a01b03165afa9081156113aa575f916122e6575b6121da9250611e04565b9a828c10156122db575050506121fa89606089015160408a015191612c45565b9688156122d55788620f424003620f42408111611df05761221f620f4240918a612bca565b045b985b61222b575050565b92945092509350620f424061224f62ffffff61010061020085015101511687612bca565b04918051151590816122c8575b50156122a657606061022062ffffff920151015116916122a2620f424061229a8161229262ffffff60085460181c16978a612bca565b049586612bca565b048094611e04565b9293565b91620f42406122c462ffffff60606102205f97015101511687612bca565b0493565b602091500151155f61225c565b87612221565b9098919a5098612223565b90506020823d602011612314575b8161230160209383611c61565b81010312610b72576121da9151906121d0565b3d91506122f4565b91506020823d602011612349575b8161233760209383611c61565b81010312610b72579051906020612197565b3d915061232a565b505f612154565b89612154565b6003602060019261236e85611d67565b8152019201920191906120e7565b505f975087965086955085945084935083925060019150565b63d8b9cde160e01b5f5260045ffd5b50606088015115612057565b600360206001926040516123c381611c0c565b848060a01b038654168152848601548382015260ff600287015462ffffff811660408401528060181c60020b606084015262ffffff8160301c166080840152818160481c16151560a084015260501c1660c0820152815201920192019190612003565b6040519061243382611c28565b5f60e0838281528260208201528260408201528260608201528260808201528260a08201528260c08201520152565b6040519061246f82611c0c565b5f60c0838281528260208201528260408201528260608201528260808201528260a08201520152565b81810292918115918404141715611df057565b81156124b5570490565b634e487b7160e01b5f52601260045260245ffd5b91908201809211611df057565b90816020910312610b72575160ff81168103610b725790565b67ffffffffffffffff8111611bdb57601f01601f191660200190565b3d15612535573d9061251c826124ef565b9161252a6040519384611c61565b82523d5f602084013e565b606090565b5f60808190526001600160a01b0390911681526010602052604080822060e0525194929391929091829182919061257088611bbe565b60018060a01b0360e05154168852600160e05101546020890152600260e05101549160408901928352600360e051015460608a0160a05260a05152600460e051015460808a0152600560e051015460a08a0152600660e051015460c08a0160c05260c05152600760e051015460e08a0152600860e05101546101008a01908152600960e05101546101208b015260ff600a60e05101548181166101408d0152818160081c1615156101608d0152818160101c1615156101808d0152818160181c1615156101a08d0152818160201c1615156101c08d015260281c166101e08b01526040519961265e8b611bef565b60018060a01b03600b60e0510154168b52600c60e051015460208c0152600d60e051015460408c0152600e60e051015460608c0152600f60e051015460808c0152601060e051015460a08c0152601160e051015460c08c0152601260e051015462ffffff811660e08d015262ffffff8160181c166101008d015262ffffff8160301c166101208d015262ffffff8160481c166101408d015262ffffff8160601c166101608d015264ffffffffff8160781c166101808d015264ffffffffff8160a01c166101a08d015260ff8160c81c1615156101c08d015260d01c6101e08c0152601360e05101805461275081611c83565b9161275e6040519384611c61565b81835260208301905f5260205f205f915b838310612add57505050506102008c015261278e601460e05101611c9b565b6102208c015261020081019a8b526127aa601560e05101611d67565b6102208201610100526101005152610240601860e05101549101528351158015612ad2575b61239557835160c0515114612ab357515f52600f60205260405f206002604051916127f983611c45565b805460ff80821615158552600882901c161515602085015260101c6001600160a01b0316604084015261282e60018201611c9b565b606084015201805461283f81611c83565b9161284d6040519384611c61565b81835260208301905f5260205f205f915b838310612a95575050505060808201526128a36128928b62ffffff6101208160406101005151015116925101511690611dd8565b62ffffff60e08d5101511690611dd8565b986128b4855160a05151908b612bf3565b6128c360c05151875190611e04565b915f9060a05151808210612a71575b505082821115612a6157505062ffffff90986001956001965b15612a5a5761290191505160a05151908b612c45565b995b16801580159b9190612a52576129188a612b53565b9080620f42400390620f42408211611df057620f424014612a4a5761293c916124ab565b925b839b61294b575b50505050565b929750945094505f14612a1657620f424061298462ffffff610120836129788360e08a510151168b612bca565b04965101511687612bca565b04935b805115159081612a09575b50156129e3576129d5620f42406129cd816129c562ffffff6040610100515101511662ffffff60085460181c169a612bca565b049788612bca565b048096611e04565b946080525b5f808080612945565b620f4240612a005f9662ffffff6040610100515101511690612bca565b046080526129da565b602091500151155f612992565b620f4240612a4362ffffff612a3c5f96518260e081610120840151169201511690611dd8565b1687612bca565b0493612987565b50505f61293c565b50889261293e565b5099612903565b9562ffffff92829b9214966128eb565b8851612a7c92612bf3565b808311612a8a575b806128d2565b91505060015f612a84565b60036020600192612aa585611d67565b81520192019201919061285e565b505096505050505050505f905f905f905f6080525f905f905f90600190565b5060a05151156127cf565b60036020600192604051612af081611c0c565b848060a01b038654168152848601548382015260ff600287015462ffffff811660408401528060181c60020b606084015262ffffff8160301c166080840152818160481c16151560a084015260501c1660c082015281520192019201919061276f565b80158015612bc3575b612bbe57620f4240612b7181830292836124ab565b03612b795790565b60405162461bcd60e51b815260206004820152601d60248201527f4d6174683a206d756c7469706c69636174696f6e206f766572666c6f770000006044820152606490fd5b505f90565b505f612b5c565b9081158015612beb575b612be557612b7181830292836124ab565b50505f90565b508015612bd4565b81158015612c3d575b8015612c33575b612c2c57612c14612c1a9282612bca565b92611e04565b8015612be557612c29916124ab565b90565b5050505f90565b5082811015612c03565b508215612bfc565b91909182158015612c68575b612c2c57612c62612c1a9282612bca565b926124c9565b508115612c51565b93929091612c7c612426565b9460408101928351158015613010575b6123955760c08201519485855114613001576101008301515f52600f60205260405f20604051612cbb81611c45565b600282549260ff841615158352602083019360ff8160081c161515855260018060a01b039060101c166040840152612cf560018201611c9b565b6060840152018054612d0681611c83565b91612d146040519384611c61565b81835260208301905f5260205f205f915b838310612fe3575050505060808201526102208501928a62ffffff6040865101511691612d83612d7a612d696102008b019562ffffff610120885101511690611dd8565b62ffffff60e0875101511690611dd8565b9b8b5190611e04565b62ffffff5f9c169b8b8d151594855f14612fd85750508c620f424003620f42408111611df0578f909b6060620f42408f9e612dbe9088612498565b049c5b604084019d8e5201809d81518310612f9b575b5050508a518381115f14612f7b5750505088528c600160e0819201525b15612f6f57508015612f6357865199620f42408b029a808c04620f42401490151715611df057620f42400399620f42408b11611df057612e4c9a612e34916124ab565b8c525b612e53575b5050505050519151905191612c45565b6020830152565b620f4240908b8051965f14612f2a576101208262ffffff9260c086612e828660e0612e9099510151168d612498565b049101525101511686612498565b0460a08b01525b5115159081612f20575b5015612ef657620f4240612ed981612ed162ffffff6040612ee1965101511662ffffff60085460181c1696612bca565b049384612bca565b048092611e04565b608088015260608701525b5f80808080612e3c565b620f42409162ffffff6040612f15935f60808d01525101511690612bca565b046060870152612eec565b905051155f612ea1565b612f51612f58925f60c062ffffff940152518260e081610120840151169201511690611dd8565b1686612498565b0460a08b0152612e97565b612e4c99508651612e34565b612e4c9a508c52612e37565b9192909103612f905760e06001910152612df1565b60e05f910152612df1565b612fba92612fad612fb4925182612498565b9251611e04565b906124ab565b808c5111612fca575b8c8e612dd4565b8b5250600190508e5f612fc3565b909b6060859c612dc1565b60036020600192612ff385611d67565b815201920192019190612d25565b5050600160e087015250505050565b50606082015115612c8c565b92919092613028612462565b936040810192835115801561331b575b61239557835160c08301511461330e576101008201515f52600f60205260405f20906040519061306782611c45565b600283549360ff851615158452602084019460ff8160081c161515865260018060a01b039060101c1660408501526130a160018201611c9b565b60608501520180546130b281611c83565b916130c06040519384611c61565b81835260208301905f5260205f205f915b8383106132f05750505050608083015261022084019362ffffff606086510151169661310e61020083019862ffffff6101008b5101511690611dd8565b6040516318160ddd60e01b815290979093906001600160a01b0316602085600481845afa9485156113aa575f956132bb575b50936020602495604051968780926370a0823160e01b82523060048301525afa9485156113aa575f95613283575b509061317f61319795606093611e04565b8181111561327b5750925b838c520151905191612c45565b6040880181815262ffffff9095169490851561326e57506131c962ffffff610100620f42409351985101511687612bca565b0460a08801525115159081613264575b501561323b57606062ffffff915101511661320a620f4240612ed981612ed162ffffff60085460181c169588612bca565b608086015260608501525b620f42400390620f42408211611df057620f42409161323391612bca565b046020830152565b61325962ffffff6060620f4240935f60808a01525101511684612bca565b046060850152613215565b905051155f6131d9565b6020890152505050505050565b90509261318a565b9450906020853d6020116132b3575b8161329f60209383611c61565b81010312610b72579351939061317f61316e565b3d9150613292565b94506020853d6020116132e8575b816132d660209383611c61565b81010312610b72579351936020613140565b3d91506132c9565b6003602060019261330085611d67565b8152019201920191906130d1565b5050600160c08501525050565b50606082015115613038565b600160055414613338576001600555565b60405162461bcd60e51b815260206004820152601f60248201527f5265656e7472616e637947756172643a207265656e7472616e742063616c6c006044820152606490fd5b3330036133bd5761338d366124ef565b61339a6040519182611c61565b368152365f60208301375f6020369290920191820152516001600160a01b031690565b3390565b61020082019164ffffffffff610180845101511642106134ab57604081015160c0820151111561349c57610180015161348d5760018060a01b031690815f52601160205260405f2060018060a01b0384165f5260205262ffffff61016064ffffffffff60405f20541692510151160164ffffffffff8111611df05764ffffffffff4291161161347e575f52601160205260405f209060018060a01b03165f5260205260405f2064ffffffffff421664ffffffffff19825416179055565b6365ab892b60e11b5f5260045ffd5b6328f560bb60e21b5f5260045ffd5b634bc461a160e11b5f5260045ffd5b636f312cbd60e01b5f5260045ffd5b6040516323b872dd60e01b60208201526001600160a01b039283166024820152929091166044830152606480830193909352918152611ce1916134fe608483611c61565b6136dd565b60405163a9059cbb60e01b60208201526001600160a01b03929092166024830152604480830193909352918152611ce1916134fe606483611c61565b93949193901561359f57508183106135575750505090565b5f808080936135698787989997611e04565b906001600160a01b03165af161357d61250b565b501561359057612c29926113d791612498565b633c31275160e21b5f5260045ffd5b6040516370a0823160e01b8152306004820152939492936001600160a01b03919091169190602081602481865afa9182156113aa5786915f9361367e575b50926135f06020926024953090846134ba565b6040516370a0823160e01b815230600482015293849182905afa80156113aa5785925f91613645575b509061362491611e04565b0361363657612c29926113d791612498565b63bf96dce560e01b5f5260045ffd5b919250506020813d602011613676575b8161366260209383611c61565b81010312610b725751849190613624613619565b3d9150613655565b915091506020813d6020116136af575b8161369b60209383611c61565b81010312610b7257519085906135f06135dd565b3d915061368e565b6001600160a01b031680159182156136ce57505090565b6001600160a01b031614919050565b905f602091828151910182855af1156113aa575f513d61372c57506001600160a01b0381163b155b61370c5750565b635274afe760e01b5f9081526001600160a01b0391909116600452602490fd5b60011415613705565b60405163095ea7b360e01b60208083019182526001600160a01b0385166024840152604480840196909652948252929390925f90613774606486611c61565b84519082855af15f513d826137d5575b50501561379057505050565b60405163095ea7b360e01b60208201526001600160a01b0390931660248401525f6044808501919091528352611ce1926134fe906137cf606482611c61565b826136dd565b9091506137f257506001600160a01b0381163b15155b5f80613784565b6001146137eb565b91908115613824576001600160a01b0316918261381b57611ce19250613829565b611ce192613503565b505050565b8115613898576001600160a01b0316905f80808084865af161384961250b565b5015613853575050565b60207f15037fdbcf9999d2f250620f39c029ca732e68e0561907aa9083b4fa6a86e46c91835f52601d825260405f2061388d8282546124c9565b9055604051908152a2565b505056fea2646970667358221220d824961659ad29db9000a702eb23db452bcb16d644fdf65aebc13a943827038064736f6c63430008240033",
  "linkReferences": {},
  "deployedLinkReferences": {}
}